:020000040800F2
:10000000E8D9002031250008AD0200083B25000892
:10001000190300081B0300081D030008000000006E
:100020000000000000000000000000001F030008A6
:100030002103000800000000230300083324000807
:100040006125000861250008612500086125000878
:1000500061250008612500081D0900083509000810
:100060004D090008650900087D09000861250008A0
:100070006125000861250008612500086125000848
:100080006125000861250008612500086125000838
:100090006125000861250008612500086125000828
:1000A0006125000861250008612500086125000818
:1000B000612500080D07000861250008612500087A
:1000C00061250008612500086125000861250008F8
:1000D0006125000809250008612500086125000840
:1000E00061250008612500086125000861250008D8
:1000F00061250008612500086125000861250008C8
:1001000061250008612500086125000861250008B7
:1001100061250008612500086125000861250008A7
:10012000CF08000861250008612500086125000846
:100130006125000861250008612500086125000887
:100140006125000861250008612500086125000877
:100150006125000861250008612500086125000867
:100160006125000861250008612500086125000857
:100170006125000861250008612500086125000847
:10018000612500086125000800F002F800F04FF832
:100190000AA090E8000C82448344AAF10107DA45E2
:1001A00001D100F044F8AFF2090EBAE80F0013F0E5
:1001B000010F18BFFB1A43F001031847B86E010086
:1001C000D86E0100103A24BF78C878C1FAD8520717
:1001D00024BF30C830C144BF04680C6070470000C1
:1001E0000023002400250026103A28BF78C1FBD840
:1001F000520728BF30C148BF0B607047662907F01F
:100200008E80642904F05A86782904F093860020B1
:1002100070471FB507F079F805F042F90400002097
:10022000002106F031FBE0601FBD10B510BD05F0E8
:1002300057FA1146FFF7EDFF00F008F805F075FAE0
:1002400003B4FFF7F2FF03BC02F004F94FF4A0601F
:1002500002F09AF9134802F005F900F073F902F080
:1002600079F840F6B83002F09DF801F057FC01F043
:100270004CFA00F08FFB00F057FA00F0B4FA4FF49C
:10028000FA1000F062FA01F015F90021064801F0B9
:10029000A2FD01F0A8FFA82002F0B0F801F03AF8A2
:1002A000FCE7000080841E000024F4007047FEE795
:1002B0002DE9F35F50F804BB50F804AB50F8089BED
:1002C00090E8F00050F8048C16A004F0B7FD5946F1
:1002D0001AA004F0B3FD51461BA004F0AFFD49463F
:1002E0001CA004F0ABFD41461DA004F0A7FD214673
:1002F0001EA004F0A3FD29461FA004F09FFD314677
:1003000022A004F09BFD394625A004F097FD29A00A
:10031000019904F093FDFEE7FEE7FEE7FEE7704774
:10032000704770475B48617264206661756C742029
:1003300068616E646C65725D0D0A00005230203D8C
:100340002025780D0A0000005231203D2025780D2F
:100350000A0000005232203D2025780D0A000000DE
:100360005233203D2025780D0A0000005231322002
:100370003D2025780D0A0000537461636B6564208D
:100380004C52203D2025780D0A0000005374616313
:100390006B6564205043203D2025780D0A00000045
:1003A000537461636B656420505352203D2025785F
:1003B0000D0A000043757272656E74204C52203D28
:1003C0002025780D0A0000000CB500225449009247
:1003D0000192086840F4803008604FF4A043086838
:1003E00000F4003001900098401C0090019810B972
:1003F00000989842F3D10868800334D50120019019
:1004000047484030026842F0805202604548026826
:1004100042F44042026042480830026802600268CA
:1004200042F400420260026842F4A0520260031FDC
:100430003D4A1A600A6842F080720A600A689201B6
:10044000FCD53A4940F205720A60016821F00301C7
:100450000160016841F0020101600168C1F381019E
:100460000229FAD10CBD01920CBD314810B50168CA
:1004700041F4700101602A48016841F00101016006
:10048000274A00210832116002682A4B1A40026094
:10049000031D294A1A60026822F480220260204863
:1004A0000C300160FFF790FF21494FF00060803968
:1004B000086010BD70B51A4D083528681F4B2049DB
:1004C00010F00C0004D05E10042803D0082803D0DC
:1004D0000B601BE00E6019E0114A121D1068C0F39A
:1004E0008054106800F03F0014B1B6FBF0F001E05A
:1004F000B3FBF0F013681268C3F388135843C2F3D8
:100500000142521C5200B0FBF2F0086028680C4A0D
:10051000C0F30310121D105C0A68C2400A6070BD6F
:10052000003802400070004008544007003C024080
:1005300088ED00E0FFFFF6FE103000240024F400F8
:10054000000000202DE9FC410121202002F0E3FA07
:100550000121084602F0DFFA0121102002F0DBFA47
:1005600001248DF8044000278DF806700325DFF87C
:100570004C804FF4C0668DF8055000968DF807400A
:100580006946404602F0C4F88DF804408DF80670C4
:100590008DF805508DF807402020094C00906946E1
:1005A000204602F0B5F83146404602F016F9202107
:1005B000204602F012F9BDE8FC8100000014024060
:1005C000001002401CB50121102002F0A4FA1F20E7
:1005D000009000208DF8040003208DF80500012014
:1005E0008DF807006946304802F092F81CBD2DE9ED
:1005F000F0412E4C2E4F2C4D012608B1267001E003
:100600002078A0B11021284602F0D3F8B0B108211B
:10061000284602F0CEF888B10421284602F0C9F835
:1006200060B10121384602F0C4F8012806D010213B
:10063000284602F0BEF8012821D032E000202070C8
:100640001021284602F0B5F880B10821284602F0B2
:10065000B0F870B10421284602F0ABF858B101217E
:10066000384602F0A6F8012807D01AE00120BDE8BC
:10067000F0810220FBE70320F9E70420F7E70821D7
:10068000284602F096F801280BD10421284602F0F2
:1006900090F8012805D10121384602F08AF800B906
:1006A00026700020E3E70000001002401400002044
:1006B000000002407FB50D4604460121022002F0F1
:1006C00048FA01940020ADF80050164CADF8020035
:1006D000ADF808006946204602F06CFD0122114683
:1006E000204603F0F0F80121204602F0DBFD1D203A
:1006F0008DF80C0001208DF80D0003218DF80E10EF
:100700008DF80F0003A801F044FF7FBD10B5054C24
:100710000121204603F0EBF82046BDE810400121FE
:1007200003F0F1B8000400401CB50121022002F0E2
:10073000F2F9032000908DF8040000208DF80700E6
:1007400069466D4801F0E4FF1CBD3EB56B490124CC
:1007500009684908220401E0641CA4B2B1FBF0F36B
:10076000B3FBF4F39342F7D2B1FBF0F0B0FBF4F536
:10077000012102206D1E02F0ECF9641EADF800406C
:1007800000205F4CADF80800ADF802000195694605
:10079000204602F00FFD2021204603F016F901212A
:1007A000204602F065FD0021204602F07BFD3EBDA3
:1007B00070B55448002501210560514802F072FDD2
:1007C000514C206820F001002060E014211D0860D9
:1007D0004E49204603F067FC4D480560206840F014
:1007E0000100206070BD70B59AB003F043F9464E29
:1007F000304603F0E9FA0121880502F08CF9012165
:10080000080202F0B0F938208DF8640000248DF859
:1008100065408DF8664001258DF8675019A801F0F4
:10082000B8FE3B48E9024C30CDE900403948CDE9FB
:1008300002044810CDE90414CDE90601C000CDE959
:1008400008040AA9000181E831000D946946304688
:100850000E9403F041FB0021304603F076FB2E4955
:10086000304603F020FC01221021304603F0E2FB69
:1008700015941694179415A8189403F032F92807C4
:1008800011904010CDE912048DF840400F948DF87E
:1008900041401F4C8DF850500FA9204603F0F6F848
:1008A000002301220921204603F065F90121204699
:1008B00003F0DEF90121204603F0D0F901212046A2
:1008C00003F026F9204603F090F91AB070BD10B578
:1008D0000E490D4803F0E7FB0B494FF6FF70091F67
:1008E0000860091F0860074901200860BDE8104042
:1008F0000021034802F0D6BC0004024000000020A2
:100900000004004018000020106402403CF0001079
:100910000020014024010020208000105149D1F81E
:10092000940228B10020C1F89402012003F043BCD6
:100930000120F8E74B49D1F8940228B10020C1F812
:100940009402022003F037BC0120F8E74549D1F8B2
:10095000940228B10020C1F89402042003F02BBCBB
:100960000120F8E73F49D1F8940228B10020C1F8EE
:100970009402082003F01FBC0120F8E73949D1F8A0
:10098000940228B10020C1F89402102003F013BC97
:100990000120F8E7FEB5FFF715FE0121880302F0FC
:1009A000E2F80021042002F09FF90121042002F066
:1009B0009BF90221042002F097F90321042002F0A0
:1009C00093F90421084602F08FF91F2000240190BA
:1009D0008DF808400C208DF8090001258DF80A508B
:1009E00001A803F08FFB06208DF800008DF8014070
:1009F00002268DF802608DF80350684601F0C9FDAB
:100A000007208DF800008DF801408DF802608DF808
:100A10000350684601F0BDFD08208DF800008DF8F8
:100A200001408DF802608DF80350684601F0B1FD79
:100A300009208DF800008DF801408DF802608DF8D6
:100A40000350684601F0A5FD0A208DF800008DF8DE
:100A500001408DF802608DF80350684601F099FD61
:100A6000FEBD0000000042420A20401EC0B2FCD27F
:100A7000704710B5F74C2021204601F0B0FE102140
:100A8000204601F0AAFEFFF7EFFF2046BDE8104028
:100A9000202101F0A2BE10B5EE4C2021204601F02D
:100AA0009CFEFFF7E1FF1021204601F096FEFFF7C4
:100AB000DBFF1021204601F092FEBDE81040D3E795
:100AC00070B5E44E0546002428064FF0200130465C
:100AD00002D501F082FE01E001F081FEFFF7C4FFC4
:100AE0001021304601F079FEFFF7BEFF102130469D
:100AF00001F075FE6806641C050EE4B2082CE3D311
:100B000070BD10B5D34C2021204601F066FE1021A7
:100B1000204601F062FEFFF7A7FF2021204601F0EA
:100B20005EFEFFF7A1FF1021204601F058FEBDE850
:100B3000104099E770B50C460546FFF7E2FF7820B4
:100B4000FFF7BEFFFFF7A7FF0CB1402000E0002039
:100B5000FFF7B6FFFFF79FFF2846FFF7B1FFFFF74C
:100B60009AFFBDE8704084E720B1012805D100213B
:100B7000A720DFE70021A620FBE7704710B550B1A2
:100B800001280FD10021C020FFF7D4FF0021A020B1
:100B9000BDE81040CEE70021C820FFF7CBFF0021C1
:100BA000A120F5E710BD10B500218D20FFF7C2FF91
:100BB00000211420FFF7BEFF0021BDE81040AF2048
:100BC000B8E710B500218D20FFF7B4FF00211020F9
:100BD000FFF7B0FF0021BDE81040AE20AAE770B5D6
:100BE0009D4E002505F1B000C0B20021FFF7A2FF25
:100BF00000210846FFF79EFF00211020FFF79AFF13
:100C0000FFF77FFF7820FFF75BFFFFF744FF4020EF
:100C1000FFF756FFFFF73FFF002406EB8400405D1F
:100C2000FFF74EFFFFF737FF641CE4B2802CF4D3CC
:100C3000FFF71FFF6D1CEDB2042DD3D370BD30B490
:100C40000021854B0A46002003EB8004401CC0B203
:100C500062548028F8D3491CC9B20429F3D330BCAC
:100C6000BDE730B5CC0801F0070301259D40EBB28C
:100C7000794D05EB8005C808285C0AB1184302E0ED
:100C800063EA0000C043285530BD2DE9FC4F002623
:100C9000171A8046701E3546A3EB01098C46002FBB
:100CA00002DD4FF0010102E003D14FF0000100919D
:100CB00002E0C7F100070090B9F1000F02DD4FF02C
:100CC000010002E003D14FF00000834602E08346BA
:100CD000C7F1000948464F4501DD3C4600E00446A7
:100CE000601C4FF0000A019015E00CF0FF0108F0C5
:100CF000FF000B9AFFF7B5FF3E444D44A64202DDCC
:100D00000099361B8844A54201DD2D1BDC440AF105
:100D100001001FFA80FA01998A45E6DBBDE8FC8FE5
:100D20002DE9F04F0E46074694460025144612FB67
:100D300004FB52E0A6EB040807EB050A08F0FF01EC
:100D40000AF0FF000122FFF78CFF08F0FF01A7EB7C
:100D5000050808F0FF000122FFF783FF06EB0409F6
:100D600009F0FF0108F0FF000122FFF77AFF09F008
:100D7000FF010AF0FF000122FFF773FF06EB050AEF
:100D800007EB04080AF0FF0108F0FF000122FFF75B
:100D900068FFA6EB050909F0FF0108F0FF0001223A
:100DA000FFF75FFFA7EB040809F0FF0108F0FF0061
:100DB0000122FFF756FF0AF0FF0108F0FF000122B1
:100DC000FFF74FFF6D1C05FB05F004FB04000CFB57
:100DD0001C00002801DD641E6D1E60006043584544
:100DE000A8DABDE8F08F2DE9F84F80461D468C4605
:100DF000C3468A46082B0ED0680700D0012000EBBE
:100E0000D500690810FB01F0C0B2203A02F0FF09DA
:100E10000026009050E00620F7E7082D10D00C2D9A
:100E200014D0102D20D0182D49D10C4909EBC90040
:100E300001EB80000027845DE00719D00A9A1AE0D0
:100E4000074909EB490001EB4000F3E709EB4900D2
:100E50000449EDE70018024024110020AE7F00088D
:100E6000227300084A750008FA4901EB0910E1E70E
:100E70000A9830B3002261464046FFF7F2FE7F1C1D
:100E800064080CF1010CFFB20CF0FF0C082FD3D357
:100E900008F1010000F0FF08082D0AD0A8EB0B00B4
:100EA0005946B0EB550F04D10AF10800884600F00E
:100EB000FF0A761CD446F6B200988642ADD3BDE850
:100EC000F88F0122D7E72DE9F8411E4615468846DE
:100ED0000446079F0BE03346414620460097FFF744
:100EE00082FF082E0AD004EB5600C4B26D1C2A788B
:100EF000A2F120005E28EED9BDE8F881A41DE4B27D
:100F0000F4E70346012000E05843491EC9B2FBD272
:100F100070472DE9F84F0025DDE90A691F46924622
:100F20008B468046082E00D1022500241CE0381B89
:100F3000401EC1B20A20FFF7E4FFBAFBF0F00A211D
:100F4000B0FBF1F201FB1200CDF8009078B1303027
:100F5000C2B205EB560101FB0480C0B233465946CC
:100F6000FFF741FF641CE4B2BC42E0D3A7E705EB06
:100F7000560101FB0480C0B233463022EFE72DE971
:100F8000F84F80461E4691468C46C3468A4658070F
:100F900000D0012000EBD60010FB06F000250090E9
:100FA00041E0102E0ED0182E10D0202E15D0402E3D
:100FB00085D1A94901EB49200027445DE00711D004
:100FC0000A9A12E0A54901EB4910F5E7A24909EB9D
:100FD000C900C83901EBC000EEE79F49803901EB39
:100FE000C910E9E70A9810B3002261464046FFF7AE
:100FF00038FE7F1C64080CF1010CFFB20CF0FF0CF2
:10100000082FDBD308F1010000F0FF08A8EB0B006C
:101010005946B04204D10AF10800884600F0FF0AA0
:101020006D1CD446ADB200988542BAD347E7012281
:10103000DBE708B500258A4E9246884681462C4655
:1010400010232A4608218020CDF800A0FFF797FF43
:101050006D1CEDB24D4519D1002513E00121002092
:1010600006EB81021718135C401CC0B207F8043C61
:101070000428F7D3491CC9B29029F0D3FFF7AFFD7C
:101080006D1CEDB2B5EB081FE8D30025641CE4B27B
:10109000102C00D100240121002006EB810217183A
:1010A000135C401CC0B207F8043C0428F7D3491C69
:1010B000C9B29029F0D3FFF792FD002CCAD1BFE747
:1010C0002DE9FF4F06460F464FF00009B34688460C
:1010D000580700D0012000EBD3000390002033E03C
:1010E0004FF0000C2AE00D98002410F8095009F187
:1010F00001001FFA80F9E80701D00E9A02E00E986D
:1011000040B3002239463046FFF7ABFD7F1C641C1C
:101110006D08E4B2FFB2082CEDD3761CF6B202984B
:10112000A6EB0B01814204D108F108005E4600F0F5
:10113000FF080CF1010C47460CF0FF0C02988445A7
:10114000D1D30AF10100C0B2039982468842C7D3C5
:10115000BDE8FF8F0122D5E71CB50121402001F039
:10116000DAFC3020009001208DF8040000218DF879
:10117000061003218DF805108DF8070069463948DF
:1011800001F0C6FA0021AE20FFF7D4FC002108468A
:10119000FFF7D0FC00211020FFF7CCFC002108460F
:1011A000FFF7C8FC0021B020FFF7C4FC002181201C
:1011B000FFF7C0FC0021FF20FFF7BCFC0021A120AD
:1011C000FFF7B8FC0021A620FFF7B4FC0021A820FF
:1011D000FFF7B0FC00211F20FFF7ACFC0021C82066
:1011E000FFF7A8FC0021D320FFF7A4FC002108464C
:1011F000FFF7A0FC0021D520FFF79CFC00218020F8
:10120000FFF798FC0021D920FFF794FC00211F2054
:10121000FFF790FC0021DA20FFF78CFC0021084644
:10122000FFF788FC0021DB20FFF784FC0021402031
:10123000FFF780FC00218D20FFF77CFC00211420AB
:10124000FFF778FCFFF7FBFC0021AF20FFF772FCF3
:101250001CBD0000BE790008328F00080A8D00080E
:10126000241100200018024008B501200A21009036
:10127000182333220846FFF7B6FD08BD08B5012044
:101280000A210090182331220846FFF7ACFD08BD63
:1012900008B501200A210090182332220846FFF7E2
:1012A000A2FD08BD08B501200A21009018233322B1
:1012B0000846FFF798FD08BD08B501200A210090F7
:1012C000182330220846FFF78EFDBDE80840FFF7DF
:1012D00086BC08B5FFF783FC01200A210090182383
:1012E00031220846FFF77FFD08BD1C49D1F8940262
:1012F00018B10020C1F8940270470120FAE718489D
:101300001849007800EB400001EB80001649806826
:10131000086000472DE9F041144F154D38682968E1
:10132000884219D000243E1D04EB440156F82100E8
:1013300060B106EB8101D1E9013139B12A68B2FB14
:10134000F0FC00FB1C20984200D18847641CE4B2EA
:10135000042CE9D328683860BDE8F08100004242DF
:101360001C00002020000020980000209C0000208D
:101370000C0100202DE9F0412DED028B01238CB0F2
:10138000DC0200222146684603F06CFB214605A8DA
:1013900003F002FC624B634900209FED638A33F83F
:1013A000102000EE102A01EBC002401CB8EE400AEB
:1013B000A04282ED000A82ED018AF0D35B4A002050
:1013C00001EBC00302EB800593ED000AD5ED000AA6
:1013D000401CA04220EE200A83ED000AF0D35149C0
:1013E000684603F021FB224651494E4803F046F976
:1013F000DFF83C81002008EB8001401C81ED008A71
:101400000A28F8D34B4E4C4D4FF4806C316861B9CB
:10141000002008EB800292ED000A05EB8002401CE0
:1014200082ED000A6045F4D3F9B10020434B4F1C14
:1014300008EB800200EE901A92ED000A05EB8002A4
:10144000F8EE600A92ED001A03EB8004401C01EEF6
:10145000200A00EE907A6045F8EE600A84ED000AFA
:1014600080EE201A82ED001AE2D3354F9FED358AC7
:101470000024E04605EB84000168B94201DD80EDFF
:10148000008A006805F0D0FE41EC100B2EA053EC52
:10149000102B03F0D3FC641C4445EBD33068401C94
:1014A00030600A2801D9002030600CB0BDEC028BFE
:1014B000BDE8F08170B51F4C00202DED088B4FF476
:1014C00000669FED248B9FED259B9FED26AB9FED46
:1014D00027BB164D6060606805F09EFC53EC182B2E
:1014E00005F0AEFC53EC192B05F0CAFA41EC100BD9
:1014F00004F046FD53EC1A2B51EC100B05F0A0FC48
:1015000053EC1B2B05F09AFD05F0E0F9616845F8F6
:101510002100491C6160B142DDD3BDEC088B70BD78
:101520002401002064330020000000006413002028
:1015300064730020D00000206493002064B3002076
:101540000000C8430000C8437B783A25667D0D0A39
:101550000000000000000060FB21194000000000B6
:1015600000FC9F40713D0AD7A370DD3F48E17A142B
:10157000AE47E13F2DE9F04F8BB00121072001F08C
:10158000CAFA4FF460040121204601F0E2FA012179
:10159000204601F010FB0021204601F00CFBDFF893
:1015A00038B404220621584601F026F90422072106
:1015B000584601F021F902258DF81450C0208DF80D
:1015C0001550012604908DF8166000248DF8174000
:1015D00004A9584601F09CF8DFF800A4504602F038
:1015E000F3FDFF20ADF80800FD48ADF804404BF6D0
:1015F000FF774FF480684FF480490090ADF8067093
:10160000ADF80A80ADF80C906946504602F0F8FD3E
:101610000121504602F059FE04220A21584601F0E9
:10162000EBF804220B21584601F0E6F88DF814502F
:101630004FF440608DF8155004908DF816608DF8C9
:10164000174004A9584601F063F8DFF898B35846EC
:1016500002F0BAFDADF80440ADF80840DFF888A309
:10166000ADF80670ADF80A80CDF800A0ADF80C908A
:101670006946584602F0C4FD0121584602F025FE95
:10168000DFF868B304220821584601F0B5F80422B7
:101690000921D74801F0B0F88DF81450E8018DF811
:1016A000155004908DF816608DF8174004A958461F
:1016B00001F02EF82802049004A9CD4801F028F882
:1016C000CC4D284602F080FDADF80440ADF808404E
:1016D000ADF80670ADF80A80CDF800A0ADF80C901A
:1016E0006946284602F08CFD0121284602F0EDFDF6
:1016F00006A801F07BF9069842F21071B0FBF1F0F8
:10170000BD4948600BB0BDE8F08F30B587B001210E
:10171000072001F000FA4FF460040121204601F097
:1017200018FA0121204601F046FA0021204601F076
:1017300042FAA94D04220621284601F05DF8042250
:101740000721284601F058F80221C0208DF8141016
:1017500004908DF8151001208DF8160000248DF8E6
:10176000174004A9284600F0D3FF9C4D284602F0FC
:101770002BFDFF20ADF808002815ADF80A009848A9
:101780000090ADF804404BF6FF712814ADF8061038
:10179000ADF80C006946284602F032FD01212846CA
:1017A00002F093FD07B030BD2DE9F05F924E9146F7
:1017B0008A46746883464FF400370125641E06D0BC
:1017C0003946584602F079FE0028F7D100E035701E
:1017D0000121584602F095FD884F7468641E06D0BA
:1017E0003946584602F056FE0028F7D000E0357022
:1017F00000225146584602F098FDDFF804827468D2
:10180000641E06D04146584602F044FE0028F7D038
:1018100000E035704946584602F0F4FDDFF8E081FB
:10182000746808F10208641E06D04146584602F06A
:1018300031FE0028F7D000E035700121584602F053
:1018400060FD7468641E06D03946584602F022FED8
:101850000028F7D000E0357001225146584602F0CA
:1018600064FD664F74687F1C641E06D03946584676
:1018700002F010FE0028F7D000E035700021584635
:1018800002F05BFD0121584602F045FD5B4F746894
:101890003F37641E06D03946584602F0FBFD00284B
:1018A000F7D000E03570584602F0AEFD0446012145
:1018B000584602F042FD2046BDE8F09F2DE9F05F5A
:1018C0004D4E9946904674688A4683464FF40037D9
:1018D00001253946584602F0F0FD0028F9D1641E72
:1018E00006D03946584602F0E8FD0028F7D100E05E
:1018F00035700121584602F004FD404F7468641EA3
:1019000006D03946584602F0C5FD0028F7D000E061
:10191000357000225146584602F007FD384F746872
:10192000641E06D03946584602F0B4FD0028F7D0B0
:1019300000E035704146584602F064FD304F74684F
:10194000BF1C641E06D03946584602F0A3FD00288D
:10195000F7D000E035704946584602F053FD7468F0
:10196000641E06D03946584602F094FD0028F7D090
:1019700000E035705846BDE8F05F012102F0CBBCB5
:101980002DE9F047154E894680461D461446012133
:10199000304602F0B6FC194F3046394602F07AFD67
:1019A0000028F9D000224146304602F0BEFC144F18
:1019B0003046394602F06EFD0028F9D049463046DF
:1019C00002F020FD0E4FBF1C3946304602F062FD8A
:1019D0000028F9D021E0000000040240005400403B
:1019E000801A060000580040A08601000000024056
:1019F00000080240005C0040D80000200100030005
:101A0000820007002978304602F0FCFC6D1C394644
:101A1000304602F03FFD0028F9D0641EE4B2F1D256
:101A20003046BDE8F047012102F075BC2DE9F047D2
:101A3000364F8A4681461D4614460121384602F03B
:101A400060FC334E3846314602F024FD0028F9D0C0
:101A500000224946384602F068FCDFF8B880384674
:101A6000414602F017FD0028F9D05146384602F0F1
:101A7000C9FCDFF8A08008F102084146384602F0B0
:101A800009FD0028F9D00121384602F03AFC314620
:101A9000384602F0FFFC0028F9D0012249463E46B4
:101AA000384602F042FC1A4F7F1C3946304602F09D
:101AB000F1FC0028F9D0DFF85880174F08F13F08F3
:101AC000ECB1012C19D00121304602F036FC414620
:101AD000304602F0DFFC0028F2D0304602F094FCE1
:101AE00007EB101100F00F000978385C641E41EA22
:101AF000001005F8010BE4B2E2E70021E4E730460C
:101B0000BDE8F047012102F018BC0000005400407D
:101B10000100030082000700329100081CB501217A
:101B2000102000F0F8FF4FF44040009001208DF8A5
:101B3000040000218DF8061003218DF805108DF8A2
:101B400007006946CF4800F0E3FD1CBD6420401E3D
:101B5000C0B2FCD2704770B5CA4D4FF40044214664
:101B6000284600F03AFE66103146284600F037FE5F
:101B70002146284600F033FEFFF7E8FF31462846AD
:101B800000F02BFE2146284600F027FEBDE87040FD
:101B9000DCE770B5BB4C4FF40041204600F01DFE61
:101BA000FFF7D4FF4FF480452946204600F015FE8C
:101BB000FFF7CCFF2946204600F011FEBDE870403B
:101BC000C4E72DE9F041AF4F054600244FF400482B
:101BD0004FF4804628064146384602D500F0FDFD08
:101BE00001E000F0FCFDFFF7B1FF3146384600F0A0
:101BF000F4FDFFF7ABFF3146384600F0F0FD680614
:101C0000641C050EE4B2082CE4D3BDE8F08170B585
:101C10009C4D4FF400442146284600F0DEFD66103E
:101C20003146284600F0D9FDFFF790FF21462846AF
:101C300000F0D5FDFFF78AFF3146284600F0CFFDC2
:101C4000BDE8704082E72DE9F0411D461646884602
:101C500007460024FFF7DBFF3846FFF7B2FFFFF728
:101C600098FF4046FFF7ADFFFFF793FF06E0285DC2
:101C7000FFF7A7FFFFF78DFF641CE4B2B442F6D371
:101C8000FFF769FF0120C0E707B502AB0122FFF7AC
:101C9000DAFF0EBD00EE102A2DE9F041F8EE400A01
:101CA00000EE103A0446B8EE401A80EE810ADFEDED
:101CB000760A1F4620EE200ABCEEC00A10EE100A7B
:101CC00000EE102A00EBC115B8EE401A00EE103AF3
:101CD0002146A5F50075F8EE401A81EE210A20EEA6
:101CE000200ABCEEC00A10EE100A5843C0EBC21620
:101CF000C3F30722C020FFF7C7FF601CC1B2FAB2CE
:101D0000C020FFF7C1FFA01CC1B2C5F30142C02033
:101D1000FFF7BAFFE01CC1B2C5F30722C020FFF7EE
:101D2000B3FF201DC1B2EAB2C020FFF7ADFFF02023
:101D300000EA1732C6F303400243601DC1B2C0205F
:101D4000FFF7A2FFA01DC1B2C6F30722C020FFF714
:101D50009BFFE41DF2B2E1B2BDE8F041C02093E781
:101D60002DE9F04104464948174600EBC11500260D
:101D700032462146C020FFF787FF601CC1B2012216
:101D8000C020FFF781FFA01CC5F30142C1B23A4356
:101D9000C020FFF779FFE01CC1B2C5F30722C020C5
:101DA000FFF772FF201DC1B2EAB2C020FFF76CFF3F
:101DB000601DC1B23246C020FFF766FFA01DC1B250
:101DC0003246C020FFF760FFE41DE1B23246BDE8B5
:101DD000F041C02058E770B50D462E492C4AB1FBA2
:101DE000F0F4E10700D0641E04FB00F1B1FBF2F057
:101DF000B1FBF2F302FB131100EE101ADFED260A1D
:101E00009FED261AB8EE400AC0B20146244B20EEE0
:101E1000200A1A20C0EE010ABCEEE00A10EE102AD9
:101E2000FFF738FF9DB1012D1ED0022D29D10022D0
:101E300021463A20FFF794FFA022B121C020FFF7EE
:101E400023FF4F221221BDE87040C0201CE7002272
:101E500021462A20FFF784FFA022B121C020FFF7EE
:101E600013FF4F221021EEE7002221463220FFF718
:101E700077FFA022B121C020FFF706FF4F221121DA
:101E8000E1E770BD001002400000004300FEFFFFCC
:101E900040787D0100E9A435F0FF7F4920BCBE4BAE
:101EA000FFFF0F00FEE70B468118202903D80146EB
:101EB0003420FFF765BD7047202803D2DE4A104466
:101EC00000F8051C7047202905D80A460346202142
:101ED0003420FFF7ABBD704730B420280DD2D64B6D
:101EE0001140034413F8054D9443214319700A46E9
:101EF000014630BCD1A002F0A1BF30BC7047202801
:101F000001D900207047D549085C704710B50446D8
:101F1000401CC1B2D148202901D9002010BDFFF7D3
:101F2000D2FFCE48005D10BD10B541F2C701A0FB45
:101F300001042146CAA002F081FFCC4A002000EB38
:101F4000400102EB4101C988A14202D8401C14287B
:101F5000F5D300EB400002EB4004C1A0218802F061
:101F60006DFFA178C2A002F069FFE178C3A002F082
:101F700065FF2179C6A002F061FFA1780822172031
:101F8000FFF7AAFFE178C3221A20FFF7A5FF217906
:101F90001B20FFF791FF0B2208211020FFF79CFF69
:101FA0003F2200210820FFF797FF3F220021BDE8D4
:101FB0001040092090E72DE9F04706469E48B749B2
:101FC0000C38B74A47687D080024631C06FA03F002
:101FD0000844904202D9641C052CF6D32146B1A0D6
:101FE00002F02CFF601C86403146B2A002F026FFB2
:101FF00006EB1540B0FBF7F0C0B280460146B1A039
:1020000002F01CFF07FB186081460146B0A002F0F9
:1020100015FFA8F10D00C7B23946AAA002F00EFFC5
:10202000BE083146AEA002F009FFA7EB8600C7B29A
:102030003946ADA002F002FF6007010EE022102039
:10204000FFF74AFF06EB8710C1B21420FFF734FFF9
:10205000B9F1000F23D0002409EB154120464FF4BD
:10206000004625FA00F2914204D326FA00F31C43FD
:10207000891A02D0401C1028F3D321469CA002F0FC
:10208000DDFEE1B21520FFF717FF210A1620FFF74A
:1020900013FFBDE8F0470822002112201CE70822A8
:1020A00011461220FFF718FF5146BDE8F04790A0F7
:1020B00002F0C4BE70B5604C05460C3C2946A068D1
:1020C0002E188EA002F0BAFE8FA0A16802F0B6FE14
:1020D000314692A002F0B2FE2846FFF725FF3046B7
:1020E000FFF769FF256070BD70B5534E04468FA0A1
:1020F000B57A294602F0A2FE0CB1002400E01024BB
:1021000021468DA002F09AFE05F0EF0529468AA02F
:1021100002F094FE2543294687A002F08FFEB57297
:1021200070BD0F2201460520D6E60F22014607208A
:10213000D2E60F2201460C20CEE608B1002100E0D5
:10214000102110220520C7E608B1102100E000216F
:1021500010220720C0E600B57AA100F00F00097830
:10216000C0F10F0040F0B00041F00F0301460A201B
:10217000FFF7A2FE19460B205DF804EB9CE670B554
:10218000714D0024602208210B20FFF7A5FE0422D8
:1021900011460F20FFF7A0FE032200211020FFF7B9
:1021A0009BFE2846FFF707FF102211460B20FFF782
:1021B00093FE102200210B20FFF78EFE0422002147
:1021C0000F20FFF789FE0420FFF7A0FE10F00F019B
:1021D00003D00F2901D0002070BD641C052CD1DB79
:1021E0004FF0FF3070BD10B5134C58480C3C606088
:1021F0004011A06056482060FFF7C1FF2068FFF73C
:1022000059FF0120FFF78DFF0120FFF78EFF01200E
:10221000FFF78FFF0120FFF790FF0120FFF794FFEA
:102220000020FFF761FF1B220521BDE81040024B93
:102230003420FFF7A5BB0000EC0000207238327894
:10224000785F696E69745F61727261795B3078255D
:10225000785D3A307825780D0A00000064D30020BC
:102260004672653A25640D0A00000000429100089C
:102270006F70656E5F643A25640D0A0072665F6D6B
:1022800075785F706C6F793A25640D0A0000000064
:1022900074665F633A25640D0A00000080F17F9642
:1022A0008038F57E6469765F6E756D3A25640D0A37
:1022B0000000000076636F5F65786163743A25649F
:1022C0000D0A00006E696E743A25640D0A00000064
:1022D00076636F5F667261633A25640D0A000000E1
:1022E0006E693A25640D0A0073693A25640D0A0087
:1022F00073646D3A25640D0A000000006672657112
:102300003A25640D0A00000072383230745F696645
:102310005F667265713A25640D0A00006C6F5F6636
:102320007265713A25640D0A0000000074656D70D5
:102330003A307825780D0A00646174613A30782566
:10234000780D0A00E080600000C63E050024F4001D
:1023500080A4BF0710B5012186B0084600F0DBFB62
:102360000121480700F0F5FB1020049003208DF8B0
:10237000140002248DF8174004A9194800F0C8F988
:102380000020CDE9020400906946019002F0D8F8DF
:102390000121002002F0ECF80021084602F014F9B7
:1023A00006B010BD10B504F037FD9FED0E1B53ECC9
:1023B000112B04F065FB9FED0D1B53EC112B04F06A
:1023C0003FFD9FED0C1B53EC112B04F059FB04F067
:1023D000DFFC81B2BDE81040002002F0F5B800003B
:1023E000000002400000000000408F40000000009C
:1023F0000000B0406666666666660A4010B56FF01B
:10240000040000F007F910484FF47A710068B0FB3F
:10241000F1F0401EB0F1807F0AD24FF0E021486118
:102420000A4AF02082F8140D002088610720086114
:1024300010BD07494FF6FF720868401C08609042C3
:1024400001D3002008607047000000200FE000E08A
:102450000C010020704734490A885206FCD5C2B2EC
:102460008A807047F0B50646012187B0084600F023
:1024700052FB0121102000F076FB2C4D0722092190
:10248000284600F0B9F907220A21284600F0B4F9DD
:1024900002218DF814108DF815104FF4C06000243F
:1024A00004908DF8164001278DF8177004A928466E
:1024B00000F02EF9ADF80440ADF80640ADF8084044
:1024C000ADF80C400C20184CADF80A000096694697
:1024D000204600F07AFC0121204600F0E7FC0122B2
:1024E00040F22551204600F080FD25208DF818008F
:1024F00003208DF819008DF81A008DF81B7006A8BE
:1025000000F047F807B0F0BD10B5074C40F2255178
:10251000204600F08CFD002804D02046BDE8104085
:1025200000F0EEBC10BD00000010014000000240B1
:102530000F4880470F480047FEE7042071460842D5
:1025400002D0EFF3098001E0EFF308807146FDF758
:10255000AFFEFEE7FEE7FEE7FEE7FEE7FEE7FEE78B
:10256000FEE7000004480549054A064B7047000095
:102570006B04000889010008E8D30020E8D9002096
:10258000E8D50020E8D500202849084328490860FC
:10259000704730B50F23C27801780125FAB1244A7B
:1025A000126801F1E02102F4E062C2F5E062C2F3D8
:1025B0000722C2F10404D3404278A24084781C4030
:1025C0001443220181F80024007800F01F018D409F
:1025D0004009800000F1E020C0F8005130BD01F05A
:1025E0001F0085404809800000F1E020C0F88051BC
:1025F00030BD104A114001430D48001F0160704773
:102600000B4A121D0029116801D0014300E08143EB
:10261000116070474FF0E0210428086903D020F0D2
:1026200004000861704740F00400FAE70000FA0572
:102630000CED00E080FFFF1F774910B5884206D1FE
:102640000121084600F099FA002101205BE073495E
:10265000884206D10121022000F08FFA00210220D9
:1026600051E06F49884206D10121042000F085FA2B
:102670000021042047E06B49884206D1012108204F
:1026800000F07BFA002108203DE06749884206D12E
:102690000121102000F071FA0021102033E063497D
:1026A000884206D10121202000F067FA0021202075
:1026B00029E05F49884206D10121402000F05DFAFF
:1026C000002140201FE05B49884206D10121802083
:1026D00000F053FA0021802015E05749884202D1CA
:1026E000012184150AE05549884202D1012144158F
:1026F00004E0534988420AD101210415204600F024
:102700003CFA00212046BDE8104000F036BA10BD6A
:10271000F0B5002201274FF0030C0B6807FA02F511
:102720002B40AB422CD1066853000CFA03F4A643AD
:1027300006600E79D0F800E09E4046EA0E0606607C
:102740000E79012E01D0022E12D18668A643866032
:102750004E79D0F808E09E4046EA0E06866046684C
:10276000AE43466045688E799640B6B235434560C3
:10277000C568A543C560CC799C40C3681C43C46050
:10278000521C102AC9D3F0BD4FF6FF710160002121
:10279000017141718171C171704708B541F4803296
:1027A0000092C261C1610099C161C169C0690090B4
:1027B00008BD0246002012690A4200D0012070477D
:1027C000006980B270470246002052690A4200D078
:1027D00001207047406980B2704701837047418390
:1027E00070470AB101837047418370474161704768
:1027F00042694A40426170474B07DB0E9A40C90864
:1028000010B500EB8100016A0F249C40A1430162D6
:10281000016A1143016210BD000002400004024041
:1028200000080240000C0240001002400014024068
:1028300000180240001C0240002002400024024018
:1028400000280240F848016841F001010160F64AA1
:102850000021083211600268F44B1A400260031D27
:10286000F34A1A60F04BF34A84331A60F04A103A84
:102870001B1D1A60026822F480220260EA480C30B4
:102880000160181D01607047E7490022891C0A7029
:102890000870704702460020510901290CD0022916
:1028A0000CD0E1497431096802F01F020123934002
:1028B0000B4200D001207047DB49F4E7DA49703160
:1028C000F1E718B500204FF4A04400903120FFF745
:1028D000E1FF0099491C0091A14201D00028F5D0E8
:1028E0003120FFF7D7FF002800D0012018BDCE4AC5
:1028F000116821F0F80141EAC00010607047CE492C
:1029000008607047C849002270310A700A700128B7
:1029100002D0042801D1052008707047C74908601B
:10292000704741EA82115A0810B5C54B029C03EB6F
:1029300002421143014341EA0460BB49091D08609A
:1029400010BDBD4908667047800140EA0170B64974
:10295000843108607047B84988667047800140EA52
:102960000160B14940EA0270883108607047B2499D
:1029700008677047B049C8647047AB4B08331A68A2
:10298000084322F0EC62104318607047A64B0833EE
:102990001A68084322F07842104318607047A24A30
:1029A0000832116821F003010143116070479E480D
:1029B0000830006800F00C0070479B4A083211682C
:1029C00021F0F001014311607047974A0832116805
:1029D00021F4E051014311607047934A08321168B5
:1029E00021F4604141EAC0001060704770B58E4B21
:1029F00008331968934C11F00C0104D066100429B7
:102A000003D0082903D004601BE0066019E0864A61
:102A1000121D1168C1F38055116801F03F0115B115
:102A2000B6FBF1F101E0B4FBF1F114681268C4F3F4
:102A300088146143C2F30142521C5200B1FBF2F10F
:102A4000016019680F2202EA11117F4A545C016883
:102A5000E14041601C68072505EA9424145D21FAD1
:102A600004F484601B6805EA5333D25CD140C16032
:102A700070BDC0F30121032908D16B4B08331968DD
:102A8000724A21F4F81102400A431A606649703113
:102A90000A68C0F30B0002430A6070476749443973
:102AA0000860704765494039086070476249C1F85D
:102AB0005C0170475C4A8C321168401E21F01F0196
:102AC000014311607047584A8C3211686FF0FF0360
:102AD00021F4F85103EB0020084310607047524A7C
:102AE0008C32116821F440110143116070474E4A45
:102AF0008C32116821F440010143116070474A4A49
:102B00008C32116821F44031014311607047504903
:102B1000C1F8E0017047444A30320029116801D001
:102B2000014300E08143116070473F4A343200297D
:102B3000116801D0014300E08143116070473A4AB7
:102B400038320029116801D0014300E0814311604F
:102B50007047354A40320029116801D0014300E036
:102B6000814311607047304A44320029116801D016
:102B7000014300E08143116070472B4A1032002965
:102B8000116801D0014300E0814311607047264A7B
:102B900014320029116801D0014300E08143116023
:102BA0007047214A18320029116801D0014300E022
:102BB0008143116070471C4A20320029116801D0FE
:102BC000014300E0814311607047174A2432002915
:102BD000116801D0014300E0814311607047124A3F
:102BE00050320029116801D0014300E08143116097
:102BF00070470D4A54320029116801D0014300E0AA
:102C0000814311607047084A58320029116801D089
:102C1000014300E0814311607047034A603200299C
:102C2000116817D0014316E000380240FFFFF6EAB2
:102C3000103000240030002000004742800E474240
:102C40000000FFFF0024F40014010020FFFCFF0F30
:102C500000104742814311607047194A00291168EA
:102C600001D0014300E081431160704714490C31E9
:102C70000128086803D020F008000860704740F081
:102C80000800FAE70E4A573A0029117801D00143AB
:102C900000E081431170704709481030016841F02D
:102CA0008071016070470146054A0020583A126859
:102CB0000A4200D001207047014956390870704718
:102CC0006438024010B501218C032046FFF77DFFD8
:102CD0002046BDE810400021FFF777BF1449086087
:102CE000704714490862704710B58A0721F0030441
:102CF0001149120F21440F23D1F8084893409C43F7
:102D0000C1F80848D1F8083890400343C1F80838A2
:102D100010BD0849C1F8DC007047084908607047D9
:102D20000349002020310968C90500D501207047FA
:102D300000380140000027420030014000042742D3
:102D4000CD4910B5884206D101211020FFF73DFF83
:102D50000021102020E0C949884202D101214C0401
:102D600029E0C749884202D101218C0423E0C549EA
:102D7000884202D10121CC041DE0C349884202D11E
:102D800001210C0517E0C149884209D10121202009
:102D9000FFF71BFF00212020BDE81040FFF715BF03
:102DA000BB49884202D101218C0704E0B94988421D
:102DB0000AD1012144052046FFF7FDFE2046BDE86B
:102DC00010400021FFF7F7BE10BD7FB50446008A12
:102DD0000D46C98820F4405001432182A08941F268
:102DE0000C618843A9882A8911436A8902431143E7
:102DF000A181A08A20F44071A8890843A082684676
:102E0000FFF7F4FD9C48844202D0A048844201D1DF
:102E1000039800E00298A189090400EBC00101EBCE
:102E20000010296801D5490000E08900B0FBF1F0ED
:102E30006422B0FBF2F109010B096FF018056B4336
:102E400000EB8300A3891D044FF0320306D503EB8A
:102E5000C000B0FBF2F000F0070005E003EB00104B
:102E6000B0FBF2F000F00F00084320817FBD4FF46B
:102E70001651016000218180C18001810C224281B4
:102E80008181704710B5028A4C8822F470630A88E9
:102E900022438C88C9880C4322431A43028210BD06
:102EA0000021018041808180C18070470029818993
:102EB00002D041F4005101E021F4005181817047BA
:102EC000028B02F47F420283028B0A430283704723
:102ED0000029818902D041F4004101E0C1F30E01D3
:102EE000818170470029818A02D041F4006101E0AC
:102EF00021F4006181827047C1F30801818070472D
:102F00008088C0F308007047028A22F00F02028214
:102F1000028A0A43028270470029818902D041F067
:102F2000020101E021F0020181817047828922F4CF
:102F30000062828182890A4382817047028A22F07C
:102F400020020282028A0A43028270470029018A13
:102F500002D041F4804101E021F4804101827047B8
:102F6000818941F00101818170470029818A02D065
:102F700041F0080101E021F0080181827047028BD5
:102F8000D2B20283028B42EA0121018370470029F9
:102F9000818A02D041F0200101E021F020018182EC
:102FA00070470029818A02D041F0100101E021F030
:102FB000100181827047828A22F004028282828A12
:102FC0000A43828270470029818A02D041F00201BF
:102FD00001E021F0020181827047002A828A01D03B
:102FE0000A4300E08A438282704710B5C1F342135E
:102FF00001F01F040121A140012B07D0022B07D0B3
:103000001430002A026805D00A4304E00C30F8E7C7
:103010001030F6E78A43026010BD02460020128895
:103020000A4200D001207047C9430180704770B543
:1030300001F01F0501260024C1F3421306FA05F230
:10304000012B0FD0022B0FD0838A4FEA1121008869
:10305000134206FA01F600EA060001D000B101248D
:10306000204670BD8389F0E7038AEEE70A0A012152
:103070009140C94301807047001001400044004066
:1030800000480040004C0040005000400014014047
:1030900000780040007C0040FE4910B5884206D10F
:1030A00001210846FFF791FD002101205BE0B0F10E
:1030B000804F09D0F84988420DD101210220FFF745
:1030C0007AFD0021022070E001210846FFF773FD20
:1030D0000021012069E0F149884206D10121042044
:1030E000FFF769FD002104205FE0ED49884206D129
:1030F00001210820FFF75FFD0021082055E0E94984
:10310000884206D101211020FFF755FD0021102033
:103110004BE0E549884206D101212020FFF74BFD15
:103120000021202041E0E149884206D1012102200E
:10313000FFF74BFD0021022015E0DD49884202D156
:1031400001210C040AE0DB49884202D101214C0430
:1031500004E0D94988420AD101218C042046FFF7B6
:1031600034FD00212046BDE81040FFF72EBDD349B5
:10317000884206D101214020FFF71DFD002140209B
:1031800013E0CF49884206D101218020FFF713FDCB
:103190000021802009E0CB4988420AD18415012111
:1031A0002046FFF708FD00212046BDE81040FFF74C
:1031B00002BD10BD30B50288B64CBC4DA0420DD04A
:1031C000A8420BD0B0F1804F08D0B34B984205D045
:1031D000B24B984202D0B24B984203D122F0700316
:1031E0004A881A43AF4B984206D0AF4B984203D05F
:1031F00022F440730A891A4302804A68C2620A882C
:103200000285A04201D0A84201D1897A018601211C
:10321000818230BD4FF0FF3141600021018001818A
:10322000418081727047018582827047028822F056
:1032300070020A430280704741627047C162704762
:10324000406A7047008D70470029018802D041F024
:10325000020101E021F0020101807047002901888C
:1032600002D041F0040101E021F004010180704727
:103270000029018802D041F0800101E021F08001A5
:1032800001807047028822F00802028002880A4307
:1032900002807047028822F44072028002880A434A
:1032A000028070470029018802D041F0010101E04D
:1032B00021F001010180704730B5028C22F001023B
:1032C0000284028C8388048B22F0020224F07305AE
:1032D0000C882C438D8915434A882A436D4DA8429A
:1032E00002D0724DA8420DD122F00805CA8923F4FC
:1032F00040732A4322F004058A882A430D8A1D431D
:103300004B8A2B438380048389684163028430BDE8
:1033100070B5028C22F010020284028C8388048B28
:103320000D8824F4E6464FF6FF7404EA052535437C
:103330008E8922F0200204EA061616434A8804EA1F
:1033400002123243534EB04202D0584EB04215D111
:1033500022F08006CA8923F4406304EA0212324351
:1033600022F040068A8804EA021232430E8A04EAF6
:1033700086061E434B8A04EA830333438380058316
:1033800089688163028470BD70B5028C22F48072FA
:103390000284028C8388848B0D8824F07304254377
:1033A0008E894FF6FF7422F4007204EA0626164353
:1033B0004A8804EA02223243364EB04202D03B4EE3
:1033C000B04215D122F40066CA8923F4405304EABE
:1033D0000222324322F480668A8804EA02223243BF
:1033E0000E8A04EA06161E434B8A04EA031333438B
:1033F000838085838968C163028470BD70B5028C47
:1034000022F480520284058C8288838B0C8823F4FA
:10341000E6464FF6FF7303EA0424344325F40056CE
:103420008D8903EA053535434E8803EA06362E4377
:10343000184DA84202D01D4DA84205D122F4804566
:103440000A8A03EA82122A4382808483896801649B
:10345000068470BD0021018041808180816081816E
:10346000C18101824182704730B50124058C00F191
:1034700018038C40A543058431B308292CD0091FBB
:10348000C1F34E001844016848F6FF73194001600B
:1034900001681AE0000001400004004000080040FC
:1034A000000C0040001000400014004000040140E7
:1034B0000040014000440140004801400018004025
:1034C000001C00400020004006E04FF6FF7303EAB6
:1034D00002221143016030BD03EB510001684FF639
:1034E0008F73194001600168F3E74163704781639E
:1034F0007047C163704701647047028B22F070020D
:103500000A4302837047028B4FF6FF7322F4E042B6
:1035100003EA0121114301837047828B22F070027C
:103520000A4382837047828B4FF6FF7322F4E04296
:1035300003EA0121114381837047028B22F00802C4
:103540000A4302837047028B4FF6FF7322F4006236
:1035500003EA0121114301837047828B22F00802A4
:103560000A4382837047828B4FF6FF7322F4006216
:1035700003EA0121114381837047028B22F0040288
:103580000A4302837047028B4FF6FF7322F4806276
:1035900003EA0121114301837047828B22F0040268
:1035A0000A4382837047828B4FF6FF7322F4806256
:1035B00003EA0121114381837047028B22F08002CC
:1035C0000A4302837047028B4FF6FF73C2F30E0269
:1035D00003EA0121114301837047828B22F08002AC
:1035E0000A4382837047828B4FF6FF73C2F30E0249
:1035F00003EA0121114381837047028C22F0020209
:103600000A4302847047028C22F008020A430284B3
:103610007047028C4FF6FF7322F0200203EA01117B
:10362000114301847047028C4FF6FF7322F0800231
:1036300003EA0111114301847047028C4FF6FF73B6
:1036400022F4007203EA0121114301847047028CC5
:103650004FF6FF7322F4006203EA01211143018453
:103660007047028C4FF6FF7322F4005203EA0131D7
:1036700011430184704710B50123048C8B409C4397
:103680000484038C8A401343038410BD10B50423C3
:10369000048C8B409C430484038C8A401343038432
:1036A00010BD828B22F440628283828B4FF6FF73BF
:1036B00003EA01210A4382837047828B22F00C02C5
:1036C0008283828B0A4382837047028B22F440629A
:1036D0000283028B4FF6FF7303EA01210A43028340
:1036E0007047F0B5048C24F010040484078B068C1A
:1036F0004FF6FF7404EA011527F4734704EA033117
:10370000394304EA02220A4326F0A001294341F08A
:10371000100102830184F0BD028B22F00C020283AF
:10372000028B0A43028370472DE9F0410C460E8854
:103730004988A288238905460EB3042E26D0082E78
:103740002E8C4FF6FF7028D026F480562E84AF8B37
:103750002E8C00EA022200EA013127F473473A4333
:1037600000EA0330104326F420420A4342F4805119
:10377000A8832984E1882846BDE8F04191E700F05C
:1037800062F9E1882846BDE8F041C5E7FFF7A9FFE7
:10379000E1882846BDE8F04197E726F480762E843C
:1037A000AF8B2E8C00EA012100EA0310104327F0B2
:1037B000F307384326F420620A4342F48071A88359
:1037C0002984E1882846BDE8F04176E700210180A0
:1037D000418001228280C180018170472DE9F04142
:1037E0000C46002649880746012501B90226A28811
:1037F000012A00D10225208823890028384610D0CC
:10380000FFF76FFFE1883846FFF75FFF23892A46FD
:103810003146384600F017F9E1883846BDE8F041F6
:103820007AE700F010F9E1883846FFF775FF238941
:103830002A4631463846FFF754FFE1883846BDE84E
:10384000F04142E7406B7047806B7047C06B704738
:10385000006C704710B50A884B88CC881A438B8857
:1038600023431A430B891A434B8989891A430A4314
:10387000A0F8442010BD0021018041808180C180DA
:103880000181418181817047002930F8441F02D0B5
:1038900041F4004101E0C1F30E01018070470029AD
:1038A000818802D041F0040101E021F0040181800F
:1038B00070470029818802D041F0010101E021F028
:1038C000010181807047002A828901D00A4300E00B
:1038D0008A43828170478182704702460020128AA3
:1038E0000A4200D001207047C94301827047024656
:1038F0000020138A92890B4202EA010202D0002AB8
:1039000000D001207047C943018270471143A0F8DD
:1039100048107047002A828901D00A4300E08A4398
:10392000828170470029818802D041F0080101E0BE
:1039300021F0080181807047018921F00701018190
:103940007047028922F070020A430281704700B575
:103950000346FFF7F6FF188940F00700188100BD05
:1039600070B516460D46602904464FF001023146F7
:103970000AD000F068F829462046FFF7E2FF2089C8
:1039800040F00700208170BDFFF7ABFEF3E730B5D4
:1039900004894FF6FF7505EA03231343E4B20B4392
:1039A0002343038130BD10B50446FFF7F0FF2089A3
:1039B00040F07700208110BD10B50446FFF7E7FF07
:1039C000208940F48040208110BD828822F070025E
:1039D000828082880A4382807047028922F007022F
:1039E000028102890A4302817047028922F0800223
:1039F000028102890A430281704770B50589048BF0
:103A0000068C25F007050D434FF6FC410C4040F2B3
:103A100001110C434FF6FF7101EA031126F0220653
:103A20001143314305810483018470BD00298188DD
:103A300002D041F0800101E021F0800181807047D7
:103A4000A0F85010704770B5048C24F00104048471
:103A5000058B048C4FF6FF7606EA0313134325F01B
:103A6000F3052B4324F00A020A4342F001010383C9
:103A7000018470BD10B501210C022046FFF7A5F8A6
:103A80002046BDE810400021FFF79FB830B54268DE
:103A9000C84B0C791A400B6842EA04221343436076
:103AA0008268C54B4D791A40D1E9034323438C68A2
:103AB00044EA4504234313438360C26A097D22F428
:103AC0007002491EC9B242EA0151C16230BD0021F3
:103AD0000160017141718160C16001610121017565
:103AE0007047B64B10B5D3F80423B5490A40D0E966
:103AF00000142143D0E90240044321431143C3F899
:103B0000041310BD0021016041608160C1607047F5
:103B10000029816802D041F0010101E021F001019A
:103B2000816070474268A74B1A400A434260704761
:103B3000416282627047426822F01F020A4342607B
:103B400070479E490028D1F8040302D040F40000D9
:103B500001E020F40000C1F80403704797490028F1
:103B6000D1F8040302D040F4800001E020F480008A
:103B7000C1F80403704770B5072609290AD9C5683A
:103B8000A1F10A0404EB4404A640B543A3401D433D
:103B9000C56007E0056901EB4104A640B543A340B9
:103BA0001D4305611F23072A09D2446B521E02EBF5
:103BB000820293409C4391400C43446370BD0D2AA4
:103BC00009D2046BD21F02EB820293409C439140C6
:103BD0000C43046370BDC46A0D3A02EB8202934049
:103BE0009C4391400C43C46270BD816841F08041A8
:103BF00081607047014600208968490000D5012096
:103C000070470029816802D041F4806101E021F40D
:103C10008061816070470029816802D041F0020113
:103C200001E021F00201816070474268491E22F4E0
:103C3000604242EA4131416070470029416802D048
:103C400041F4006101E021F4006141607047C06C03
:103C500080B270475948D0F808037047002981683E
:103C600002D041F4807101E021F4807181607047DD
:103C70000029816802D041F4007101E021F4007153
:103C8000816070474D490028D1F8040302D040F408
:103C9000005001E020F40050C1F80403704770B5F3
:103CA000072609290AD9C568A1F10A0404EB4404CE
:103CB000A640B543A3401D43C56007E0056901EB7D
:103CC0004104A640B543A3401D430561836BC3F384
:103CD0000154121B921C02EB82021F249440A34346
:103CE00091400B43836370BD826B491E22F44012E6
:103CF00042EA01518163704708B5084400900260B0
:103D000008BD826822F470220A438260704782688C
:103D100022F440120A4382607047816841F48001B6
:103D200081607047014600208968490200D5012062
:103D300070470029416802D041F4806101E021F41C
:103D40008061416070470029416802D041F4805190
:103D500001E021F480514160704708B508442830E3
:103D60000090006880B208BD01238B4041680AB111
:103D7000194300E0994341607047024600201268F1
:103D80000A4200D001207047C9430160704730B536
:103D90000246002053680C0A01258D4011682B4013
:103DA000214202D0002B00D0012030BD6FEA11214A
:103DB00001607047FFFEFFFCFDF7FFC000200140DF
:103DC000E030FCFFFFFD3FFF2DE9F043016821F0EB
:103DD000010101600021016041608160C1600161F9
:103DE00021214161B849B84A3D251039904202D19C
:103DF0008D60BDE8F083B44A4FF474661832904287
:103E000001D18E60F5E7B04A4FF47417303290421A
:103E100001D18F60EDE7AC4A4FF0746C48329042AC
:103E200002D1C1F808C0E4E7A74BA84A6033984222
:103E300001D1CA60DDE7A44CA54B7834A04201D182
:103E4000CB60D6E7DFF88082A24C08F190084045AD
:103E500001D1CC60CDE7DFF870824FF03D5908F119
:103E6000A808404502D1C1F80C90C2E79A49DFF892
:103E700068820839404501D10D60BAE7964D183582
:103E8000A84201D10E60B4E7934D3035A84201D16C
:103E90000F60AEE7904D4835A84202D1C1F800C08E
:103EA000A7E78D4D8C496035091FA84201D10A60F2
:103EB0009FE7894A7832904201D10B6099E7864AA0
:103EC0009032904201D10C6093E7834AA83290422D
:103ED0008FD1C1F800908CE730B503687F4ACC6879
:103EE00013400A682243D1E905452C432243CC699B
:103EF00022430C6A22434C6A22438C6A22434C6B55
:103F000022438C6B22431A430260426922F007036A
:103F1000D1E90B2422431A4342610A6942604A688C
:103F200082608968C16030BD0021016041608160AC
:103F3000C160016141618161C1610162416281626F
:103F4000C16201634163816370470029016802D047
:103F500041F0010101E021F00101016070470029F9
:103F6000016802D041F4004101E021F40041016008
:103F700070470029016802D041F0200101E021F0E2
:103F800020010160704741607047406880B270470F
:103F9000002A026802D042F4002201E022F400224A
:103FA0000260016170470029016802D041F480215C
:103FB00001E021F48021016070470AB1016170477E
:103FC000C1607047014600200968090300D501203F
:103FD0007047014600200968C90700D001207047DA
:103FE000406900F03800704702463B4B00209A427F
:103FF00002D2354A103A01E0374A103A8B0001D517
:10400000526800E01268364B1A400A4200D0012084
:104010007047314A904202D22B48103801E02E48B6
:1040200010382F4A8B0001EA020101D5C1607047A8
:10403000816070470B0607D5436912B143F08003D6
:1040400001E023F080034361802908D0002A026840
:1040500001F01E0101D00A4300E08A43026070476C
:1040600030B51D4A0024904202D2174A103A01E0AE
:10407000194A103A1B4B194205D01E2303EAD125D9
:1040800003682B4002E0406900F08003880001D5FE
:10409000506800E01068124A1040084201D003B195
:1040A0000124204630BD0C4A904202D20648103806
:1040B00001E0094810380A4A8B0001EA020101D5E3
:1040C000C160704781607047106002403D00002071
:1040D000400F002000003D20106402403F801CF093
:1040E0007D0F7D0F3C0F3C0F354900200860091DF6
:1040F0000860091D0860091D086031493148143104
:104100000860704730B52E4A8379016853B313684D
:104110008B431360111D0B680468A3430B60017986
:1041200011440B68046823430B60254B083319685E
:104130000468A14319601C1D21680568A94321601A
:104140004179102905D011440A68006802430A60C9
:1041500030BD196802681143196021680068014385
:10416000216030BD0079104402688A43026030BD8E
:104170000021016001710C22427181717047104968
:1041800010310A6802430A60704701460C4A002059
:10419000143212680A4200D00120704708491431D5
:1041A000086070470146064A0020143212680A422D
:1041B00000D00120704702491431086070470000A8
:1041C000003C0140FFFF7F00D24910B5884202D178
:1041D00001214C050AE0D049884202D101218C0519
:1041E00004E0CE4988420AD10121CC052046FEF7E1
:1041F000E2FC2046BDE810400021FEF7DCBC10BD0B
:104200007FB5044680880D4620F03F066846FEF7DD
:10421000EDFBC3490298B0FBF1F189B20E43A680D1
:10422000228822F001022280BE4B2A689A421BD8C3
:104230005200B0FBF2F080B2042800D20420491CE6
:104240002184A083208840F00100208020884FF640
:10425000F5310840A9886A89114301432180A88962
:104260002989084320817FBDEB88A3F53F46FF3EA7
:104270000BD002EBC20303EB0212B0FBF2F080B2F0
:1042800040F48040020506D007E002EB4202B0FB9A
:10429000F2F080B2F6E740F001004FF4967251431D
:1042A0004FF47A72B1FBF2F140F40040C7E741F2FB
:1042B00088310160002181804BF6FF72C28001814C
:1042C00041814FF48041818170470029018802D0EB
:1042D00041F0010101E021F0010101807047002956
:1042E000818C02D021F0100101E041F010018184A5
:1042F0007047828C01F00F0122F00F02114381847C
:1043000070470029018802D041F4807101E021F456
:104310008071018070470029018802D041F400714A
:1043200001E021F400710180704712B141F00101F8
:1043300001E001F0FE01018270470029018802D0EE
:1043400041F4806101E021F480610180704782893D
:1043500001F0FE0122F0FE02114381817047002925
:10436000818902D041F0010101E021F00101818148
:1043700070470029018802D041F0400101E021F09E
:104380004001018070470029018802D041F40041BA
:1043900001E0C1F30E01018070470029018803D0BC
:1043A00021F080010180704741F08001FAE7B1F50A
:1043B000804F818B02D021F4804101E041F48041A3
:1043C00081837047B1F5006F018803D021F400614B
:1043D0000180704741F40061FAE7B1F5005F0188A0
:1043E00003D021F400510180704741F40051FAE7F5
:1043F0000029018802D041F0100101E021F01001F4
:104400000180704701827047008AC0B2704700295E
:10441000018802D041F4805101E021F480510180F3
:104420007047B1F5006F018803D021F4006101806D
:10443000704741F40061FAE70029018802D041F099
:10444000200101E021F0200101807047008B000A6B
:1044500070470029818802D041F4006101E021F415
:104460000061818070470029818802D041F4805129
:1044700001E021F480518180704708B50844009024
:10448000008808BD002A828801D00A4300E08A43E0
:1044900082807047034600209A8A1B8B42EA0342BF
:1044A00022F07F42914300D101207047818A008B26
:1044B00041EA004121F07F4070470CB502460020E0
:1044C00000920A0F21F07F41019202D0009A14322B
:1044D00002E0009A090C1832009212680A4200D0D9
:1044E00001200CBDC9438182704710B503460020EE
:1044F0009A884FF4E06404EA11449B8A224021F038
:104500007F410B4202D0002A00D0012010BDC943D8
:10451000818270470054004000580040005C004019
:1045200040420F00A086010010B501214C07204633
:10453000FEF741FB2046BDE810400021FEF73BBBE3
:1045400030B54D4C236840F6FE7282409343D1E96A
:1045500000252A43D1E902510D432A4382401A43E0
:10456000226030BD0021016041608160C160704700
:10457000414B01228240186809B1104300E090438A
:10458000186070473C4B1B1D020901209040002918
:10459000196801D0014300E0814319607047364932
:1045A000091D0028086802D040F0030001E020F057
:1045B000030008607047304B814018680AB1084317
:1045C00000E08843186070472B4A08B51044083053
:1045D0000090016008BD284A08B5104414300090CE
:1045E000016008BD082805D042EA0141224A104472
:1045F0000162704742EA0121F8E71F4908B501EB63
:1046000090002C300090006880B208BD1A4B9A14BC
:104610008240186809B1104300E090431860704769
:10462000154B814018680AB1084300E088431860C0
:1046300070470246104B002034331B6891400B42F8
:1046400000D00120704781400B4834300160704732
:10465000094A0346002012689940074B0A40343348
:104660001B680B4202D0002A00D001207047814015
:104670000148343001607047007400409FED3A0AF1
:104680005FEA920C53D000BFF0EC010A0B1DB0ECB6
:10469000011A60EEA00A41EE010AF5EEC00AF1EE41
:1046A00010FAC6BFB1EEE01A81ED001A81ED000AE2
:1046B000F0EC010A191DB0EC011A60EEA00A41EEFF
:1046C000010AF5EEC00AF1EE10FAC6BFB1EEE01A2B
:1046D00083ED001A83ED000AF0EC010A0B1DB0EC2B
:1046E000011A60EEA00A41EE010AF5EEC00AF1EEF1
:1046F00010FAC6BFB1EEE01A81ED001A81ED000A92
:10470000F0EC010A191DB0EC011A60EEA00A41EEAE
:10471000010AF5EEC00AF1EE10FAC6BFB1EEE01ADA
:1047200083ED001A83ED000ABCF1010CACD112F04C
:10473000030208BF704700BFF0EC010A0B46B0EC63
:10474000011A091D60EEA00A41EE010AF5EEC00A49
:10475000F1EE10FAC6BFB1EEE01A83ED001A83ED58
:10476000000A521EE8D17047000000002DE9F00F4A
:104770005FEA510C32D0044600EBCC051646674682
:10478000D4ED012A95ED012AD4ED001A95ED001A19
:1047900072EEC20A72EE222A31EEC10A96ED002AAA
:1047A00096ED014A31EE811A22EE003A64EE203A8B
:1047B00062EE200A24EE000A84ED001A33EE231A7A
:1047C000C4ED012A30EEC00A85ED001A083485EDEB
:1047D000010A083506EBC3067F1ED1D14FF6FF7ADA
:1047E0000AEA430BE146BCF1020F44D966464FF09A
:1047F00000084FEA5C0C444602EBC803D844D3EDF2
:10480000000A93ED010A234603EB0C0700EBC305F6
:1048100000EBC70795ED001AD7ED001AD5ED012A78
:1048200097ED013A31EE212A31EE611A72EEC31A88
:1048300073EE222A85ED002A21EE203A61EE803ABD
:1048400061EEA01A21EE001AC5ED012A33EE232AEB
:10485000334431EEC11A87ED002A8B4287ED011AED
:10486000D2D3641CA445C7D84FEA59090AEA4B0BB6
:10487000B9F1020FBAD8491C01298EBF4908BDE819
:10488000F00F704790ED002AD0ED021A90ED011A5A
:10489000D0ED032A32EE610A72EE211A71EE620A3D
:1048A00032EE811AC0ED001A80ED011A80ED020A85
:1048B000C0ED030A1030491EE4D1BDE8F00F704787
:1048C0002DE9F00F4FEA51095FEA090C32D0044696
:1048D00000EBCC0516464F4694ED002AD5ED001AA4
:1048E00094ED013AD5ED012A72EE610AD6ED004A47
:1048F00033EE621A96ED014A72EE832A24EEA03A54
:1049000064EE013A72EE211A24EE811A64EE200A56
:10491000C4ED001A73EE631AC4ED012A71EE200A89
:10492000C5ED001A0834C5ED010A083506EBC306CB
:104930007F1ED1D14FF6FF7A0AEA430BB9F1020F7D
:1049400045D967464FF000084FEA5C0C4FEA08056E
:1049500002EBC803D844D3ED000AD3ED011A2B466D
:1049600003EB0C0400EBC30600EBC40496ED002A35
:1049700094ED001A96ED013AD4ED012A72EE013A57
:1049800032EE411A33EE622A32EE834AC6ED003A25
:1049900061EE202A22EE213A22EE202A21EE211A6F
:1049A00086ED014A72EEC32A3B4432EE011AC4ED91
:1049B000002A8B4284ED011AD2D36D1CAC45C7D8B6
:1049C0004FEA59090AEA4B0BB9F1020FB9D8491C51
:1049D00001298EBF4908BDE8F00F7047D0ED002ACD
:1049E000D0ED021A90ED031A90ED013A72EEE10A51
:1049F00072EEA11A20EE802A71EE030A33EE411AFC
:104A000061EE801A60EE800A21EE001AC0ED001AF5
:104A1000C0ED010A80ED022A80ED031A1030491E14
:104A2000DCD1BDE8F00F704770B504460D468078C4
:104A30002188A389626801280ED02846FFF796FED8
:104A4000E078012818BF70BDE28921882846A36854
:104A5000BDE8704000F0FEB894ED040A2846FFF768
:104A60002FFFEDE710B40180384C446082704FF0A6
:104A7000000CC370B1F5807F3AD008DC102959D002
:104A800020294DD0402943D080290CD138E0B1F500
:104A9000007F25D0B1F5806F1AD0B1F5006F0FD02F
:104AA000B1F5805F04D04FF0FF3C10BC604670470A
:104AB00001218181C18126499FED260A816036E06E
:104AC00002218181C18124499FED240A81602EE069
:104AD00004218181C18122499FED220A816026E063
:104AE00008218181C18120499FED200A81601EE05B
:104AF00010218181C1811E499FED1E0A816016E04F
:104B000020218181C1811C499FED1C0A81600EE03A
:104B100040218181C1811A499FED1A0A816006E016
:104B200080218181C18118499FED180A816080ED43
:104B3000040ABAE74FF480718181C18114499FED65
:104B4000150A816080ED040AAFE70000C0990008F3
:104B5000C091000800008039C29100080000003AAE
:104B6000C69100080000803ACE9100080000003B8A
:104B7000DE9100080000803BFE9100080000003C30
:104B80003E9200080000803CBE9200080000003DFC
:104B9000BE9300080000803D4B0800220380018284
:104BA000B3F5807F2DD008DC102B3CD0202B35D0E6
:104BB000402B2FD0802B0CD128E0B3F5007F1BD0E9
:104BC000B3F5806F13D0B3F5006F0BD0B3F5805FF2
:104BD00003D04FF0FF32104670474FF47C61818163
:104BE00013491EE04FF46E618181124919E04FF4C0
:104BF000E1618181104914E04FF4E07181810F4936
:104C00000FE04FF4DC7181810D490AE0D0218181F0
:104C10000C4906E0382181810B4902E03021818175
:104C20000A498160D7E71421818109498160D2E76F
:104C3000184F01085831010848230108C81F01080E
:104C4000581C0108B81A0108481A0108E819010897
:104C5000C01901082DE9F0014E0801244FF0000CA5
:104C600004EB51076146A6F102082CE061452AD207
:104C700000EBCC0500EBC104D5ED000A94ED000A71
:104C8000C4ED000A85ED000AD5ED010A94ED010A94
:104C9000C4ED010A85ED010ACC1900EBC4050CEB4B
:104CA000070400EBC40495ED000AD4ED000AC5ED3D
:104CB000000A84ED000AD4ED010A95ED010AC5ED64
:104CC000010A84ED010A00EBC104B44400EBCC0CF2
:104CD00094ED020ADCED000A891CC4ED020A8CED99
:104CE000000ADCED010A94ED030AC4ED030A8CED21
:104CF000010AB3F800C089B203EB42034145B5D9BC
:104D0000BDE8F00170472DE9F00701254C0805EBDF
:104D100051064FF0000C651E6146002D88BFA84665
:104D20002ED8BDE8F0077047614529D250F83150C0
:104D300050F83C7040F8317040F83C5000EBC1072F
:104D400000EBCC097D68D9F804A0C7F804A0C9F825
:104D500004508D190CEB060750F8359050F837A029
:104D600040F835A040F8379000EBC50500EBC707C9
:104D7000D5F80490D7F804A0C5F804A0C7F80490AB
:104D800000EBC105A444AF6850F83C90C5F808900A
:104D900040F83C7000EBCC0CEF68DCF80490C5F8F0
:104DA0000C90CCF80470B3F800C0891C03EB4203EC
:104DB0004145B9D3BDE8F00770472DE9F00F012454
:104DC0004D084FF0000C04EB5107012D9CBFBDE8CE
:104DD000F00F7047014600EB870400264FEA5508A4
:104DE00015E000BFBCEB460F11D950F82CA0D1F84C
:104DF0000090C1F800A040F82C900CEB0709D4F803
:104E000000A050F829B0C4F800B040F829A0AC4484
:104E1000D1F8049050F82CA0C1F804A040F82C90D0
:104E2000B3F800C008310834761C03EB4203B8F134
:104E30000108D7D1BDE8F00F704770470FB404499F
:104E400010B503AA029800F019FB10BC5DF814FB22
:104E5000100100202DE9F0410E460446002020629A
:104E60002046E168884730B3252805D0D4E90121E0
:104E70009047206A401CF2E7E168204600278847F7
:104E8000050018D0A5F14100192802D820354FF4AB
:104E900000673246294620462760FBF7AFF940B14C
:104EA000012804D0F61D26F007060836D8E7361D7F
:104EB000D6E72846DAE7206ABDE8F0812DE9F0411F
:104EC0000646002410687529314616A510D0AFF3A8
:104ED0000080002802DA404213A507E031688A0703
:104EE00001D512A502E0490704D511A5012401E06E
:104EF000AFF3008000210A2206F1240709E0B0FB8D
:104F0000F2FCB0FBF2F302FB1C0030307854184680
:104F1000491C0028F3D123462A463046BDE8F0411B
:104F200000F043B8000000002D0000002B0000003E
:104F30002000000070B504460D4621461068AFF30E
:104F400000802188090502D50F4A7A4402E00E4A02
:104F50007A440E32002104F1240305E000F00F062C
:104F60000009965D5E54491C0028F7D12078002383
:104F7000000704D5702D02D009B10223113220465A
:104F8000BDE8704000F011B84A1F0100704770473B
:104F90007047704710B500F087FA006810BD10B573
:104FA000044600F081FA046010BD2DE9F0470D467B
:104FB00099469246044600F124080168880604D503
:104FC000E06921F01001216000E00120A84201DD2C
:104FD000471B00E00027A1697A1902EB0900081AB3
:104FE000A0612078C00602D42046AFF300800026DE
:104FF00008E0D4E901211AF806009047206A401C15
:10500000761C20624E45F4DB2078C0060AD5204687
:10501000AFF3008006E0D4E9012130209047206AF8
:10502000401C2062381EA7F10107F4DC07E0D4E938
:10503000012118F805009047206A401C2062281EB4
:10504000A5F10105F3DC2046AFF3008020780006CF
:1050500002D50220BDE8F0870120FBE770472DE96B
:10506000FF4F0C461E464FF0FF378BB0D2E90001D0
:10507000DDF860800A908A46C1F30A5505B93D46BD
:10508000002108464FF00000BAF1000F00F4400084
:1050900005DA00EB80004FF4400101EA50004FEACE
:1050A0009059B9F1010F00DDB9460A9850EA4A005B
:1050B0000ED044F61050A5F2FF3545432F14B8F139
:1050C000000F1ED07542291E1EDDC9F100021CE032
:1050D000B8F1010F4FF0000001D0302103E0F2439E
:1050E00005E02154401CB042FBDB30460022002189
:1050F00021540B99C1F80880C1E900200FB0BDE828
:10510000F08FBD1B6D1CDEE74A4600DA694206A837
:1051100000F06CFA06AB93E8070003AB83E80700E6
:1051200050460A9900F04AFB8DE80700A0F50050B0
:105130001F3800900398002D0ADD42F21F014A46F5
:105140000844002303A90390684600F0B3FD09E07A
:10515000A0F500504A461F38002303A90390684673
:1051600000F0BDFD8DE807000004000C03D04FF0F7
:10517000FF30410800E01046B8F1000F03D00022D4
:10518000009215461EE0751E05D400F091F93032EC
:1051900062556D1EF9D5B3460122084302D00022A4
:1051A0007F1C04E02078302801D100227F1E002AD5
:1051B000099784D01DE0112D07DA00F079F930321B
:1051C00062556D1C50EA0102F5D1084302D00098E7
:1051D000C8B10EE00021681E05E0235C625C6354E8
:1051E0002254401E491C8142F7DBAB46A81B401EDF
:1051F0000990002004F80B000B98099AC0F8088069
:10520000C0E9002B7AE711264FF0000857E72DE997
:10521000F04F88460446D21D22F0070191B0D1E933
:105220000001CDE90A0100F091FE02460B98C00F83
:1052300001D02D2007E02068810701D52B2002E056
:10524000202101EAC000032A099001D0072A05DBCA
:1052500003464146204600F089F90BE1207880069C
:1052600001D5E06900E00620B8F1650F814606D05F
:10527000B8F1660F18D0B8F1670F70D131E0002097
:10528000B9F1110F009001DB112301E009F10103D5
:105290000AAA01A90CA8FFF7E2FEDDE90C700026BE
:1052A00009F10105834647E001204B4600904FF08D
:1052B00000470AAA01A90CA8FFF7D1FEDDE90DB04D
:1052C0000C995D46002610B909F101000D18B9EBE3
:1052D000050003D4C0F1FF3609F10105A5EB090073
:1052E0002BE0B9F1010F01DA4FF001090020B9F10B
:1052F000110F0090484601DD112300E003460AAA81
:1053000001A90CA8FFF7ABFEDDE90C704D460026A5
:105310008346207800070AD4AB4500DA5D4601A831
:10532000012D04DD411911F8011C302907D04F452A
:1053300002DA17F1040F04DA012082460FE06D1E35
:10534000EEE7002F02DCED1B3E4403E0781CA84290
:1053500000DD7D1CB81B00F1010A4FF000472078EA
:10536000000703D4AA4501DB4FF0FF3A0021B7F153
:10537000004F0DF143088DF8431024D002202B2359
:10538000002F01DA7F422D230A21021EA0F1010025
:1053900000DC5FB197FBF1FC97FBF1F201FB1C7C99
:1053A00017460CF1300C08F801CDEEE7A8F101002A
:1053B00003702188090501D5452100E06521A0F190
:1053C000010800F8011C09980FA9A1EB0807FF1DAF
:1053D00000B10120411901EBEA70A1693844081AB3
:1053E000401EA0612078C00602D42046AFF30080A2
:1053F000099828B1D4E901219047206A401C206215
:105400002078C00622D52046AFF300801EE0002E93
:1054100004DBB34502DD01A8805D00E03020D4E963
:1054200001219047206A401C2062761CAAF10100ED
:105430005FEA000A0AD100F033F8C0680168405CF6
:10544000D4E901219047206A401C2062281EA5F162
:105450000105DCDC07E0D4E9012118F8010B9047D5
:10546000206A401C2062381EA7F10107F3DC2046A9
:10547000AFF30080032011B041E60000074B70B588
:105480000D467B4400F05FF80446284600F020F902
:1054900010B14FF0FF3070BD204670BDD1CFFFFF7F
:1054A00000487047A4D300200048704784D30020F0
:1054B00030B5B0F10A024FEA900E71F100034EEAE6
:1054C000817EB0EB0E0061EB91014FEA101E4EEAB7
:1054D000017E10EB0E0041EB11114FEA102E4EEA47
:1054E000016E10EB0E0041EB11214FEA104E4EEA17
:1054F000014E10EB0E0041EB1141401841F100014B
:105500004FEAD00040EA41704FEAD10110EB80052C
:105510004FEA810444EA907444EB01046D1944EBB2
:105520000404521BA3414FF0000348BF0A3200D5C8
:1055300030BD401C41F1000130BD000001694A1C32
:1055400002610878704700B58FB0CDE901310021C4
:10555000059105497944CDE9031011466846FFF7E6
:1055600079FC0FB000BD0000E5FFFFFF2DE9F04121
:105570001F46044603260168072A01F4006004DB85
:1055800008B116A505E016A503E008B115A500E0D1
:1055900015A521F010002060A069C01EA0610FB108
:1055A000401EA0612046AFF300804FB1D4E9012135
:1055B00038469047206A401C2062C01C206206E0EA
:1055C000206AFAE7D4E9012115F8010B9047761E0D
:1055D000F8D22046AFF30080BDE8F0814E414E0086
:1055E0006E616E00494E4600696E66002DE9F04717
:1055F000814616468AB0354878440DC88DE80D00BE
:1056000032487844801C03AC0DC884E80D0041F694
:105610009B300844372190FBF1F290FBF1F5A5F1A6
:10562000800501FB12041B3C02D56442012000E00E
:105630000020DFF898A080460027FA44AAF1BE0AAD
:105640000EE0E0070AD03246684607EB4701012327
:105650000AEB810100F043FB8DE8070064107F1C1A
:10566000002CEED1194F7F44AE3F19E0E80715D06A
:1056700007EB04100DF1180A90E80E008AE80E00FE
:10568000C068F04201D1981908903246012306A95A
:1056900003A800F024FB03AB83E807006D10641C33
:1056A000002DE3D14FF0010332466946B8F1000FF7
:1056B00003A802D000F0FEFA01E000F010FBC9E9F7
:1056C0000001C9F808200AB0BDE8F087601A01009F
:1056D000007B00F0800070470048704784D30020B2
:1056E0007546FFF7F9FFAE4605006946534620F0C0
:1056F0000700854618B020B5FCF734FFBDE8204010
:105700004FF000064FF000074FF000084FF0000B7D
:1057100021F00701AC46ACE8C009ACE8C009ACE830
:10572000C009ACE8C0098D46704710B50446AFF318
:1057300000802046BDE81040FAF782BD4FF0013CE2
:1057400050F8042B51F8043B9A4221D1A2EB0C03F0
:10575000934313EACC1317D150F8042B51F8043BB0
:105760009A4215D1A2EB0C03934313EACC130BD14D
:1057700050F8042B51F8043B9A4209D1A2EB0C03D8
:10578000934313EACC13DBD04FF00000704700BF07
:10579000D01A01BAB1FA81F101F0180122FA01F030
:1057A000CB40C1F12001DBB2C0B2C01A2CFA01F328
:1057B000D11A914311EAC311E6D170475FEA400C58
:1057C00008BF91F0000F4FEA8C234FEAC12243EA51
:1057D00051514FEA1C5018BF00F5F0404FEA30001D
:1057E00018BF41F000415FEA6C5C00F02980BCF119
:1057F000FF3F08BF40F080407047130C06BF120403
:105800004FF0100C4FF0000C130E04BF12020CF1FD
:10581000080C130F04BF12010CF1040C930F04BF0A
:1058200092000CF1020CD30F04BF52000CF1010CDA
:1058300011464FF00002A0F11F00A0EB0C007047D2
:1058400011F0004F08BF704731F000413FF4D5AF71
:105850000B0C06BF09044FF0100C4FF0000C0B0EA0
:1058600004BF09020CF1080C0B0F04BF09010CF175
:10587000040C8B0F04BF89000CF1020CCB0F04BF8A
:1058800049000CF1010CCCF12003A0EB0C0022FA32
:1058900003F302FA0CF241EA030100F10100704740
:1058A00020F07F4C80EA030023F07F47ACEB070336
:1058B00003F57C5300F0004003F1FF032DE980491C
:1058C0004FEA154B09B44FEA144325EA0B4E24EA7C
:1058D00003480FF2042606EB132749083E785FEAD7
:1058E000320203FB0667C7F5000707FB06F64FEA1F
:1058F00054374FEAD64606F1020607FB066CCCF198
:10590000005C4FEA1C472CEA074C07FB06F40CFB33
:1059100006F504EB15464FEA961634BF00204FF00B
:1059200000404FEAD13706FB07FC4FEA1C4C0CFB4A
:105930000BF7D21B03FB0CF761EB07010CFB0EF717
:10594000B0EB074072EB17420CFB08F734BFA2EB39
:105950000742B2EB074261EB17414FEA0C444FEAB2
:10596000910706FB07FC4FEA1C4C0CFB0BF7B0EB56
:10597000C74072EB573203FB0CF734BFA2EBC742B0
:10598000B2EBC74261EB57310CFB0EF7B0EBC7002F
:1059900072EB57720CFB08F734BFA2EBC702B2EBF5
:1059A000C70261EB5771039F4FEA816141EA92118F
:1059B00004EBCC044FEAD1374FEA826206FB07FCC6
:1059C00042EA90124FEA80604FEA1C4C0CFB0BF746
:1059D000D21B03FB0CF761EB07010CFB0EF7B0EBDE
:1059E000074072EB17420CFB08F734BFA2EB0742EB
:1059F000B2EB074261EB17414FEA8C554FEA910732
:105A000004EB9C2406FB07FC4FEA1C4C0CFB0BF739
:105A1000B0EBC74072EB573203FB0CF734BFA2EB7D
:105A2000C742B2EBC74261EB57310CFB0EF7B0EB4C
:105A3000C70072EB57720CFB08F734BFA2EBC7022A
:105A4000B2EBC70261EB577115EB4C254FEA816150
:105A500041EA92114FEA82624FEAD13742EA90124C
:105A600006FB07FC44F100044FEA80604FEA1C4C3F
:105A70000CFB0BF7D21B03FB0CF761EB07010CFBD4
:105A80000EF7B0EB074072EB17420CFB08F734BF80
:105A9000A2EB0742B2EB074261EB174115EB1C1575
:105AA0004FEA813141EA92414FEA823242EA904222
:105AB0004FEA80304FEA0C7644F1000448EA034391
:105AC0004EEA0B484FF0000EB2EB080C71EB0307E7
:105AD00024BF624639464EEB0E0E4FF0000B001805
:105AE000524149414BEB0B0BB2EB080C71EB030736
:105AF0007BF1000B24BF624639464EEB0E0E4FF091
:105B0000000B0018524149414BEB0B0BB2EB080C58
:105B100071EB03077BF1000B24BF624639464EEB65
:105B20000E0E51EA020718BF46F0010616EB0E767C
:105B300055F1000254F1000103D5BDE88901BDE82B
:105B40000088BDE88901BDE80048B619524141EB23
:105B50000101A3F10103704780807F7E7D7C7B7A09
:105B60007978777676757473727171706F6E6E6D09
:105B70006C6C6B6A6A6968686766666564646363AF
:105B800062616160605F5F5E5E5D5D5C5C5B5B5A35
:105B90005A595958585757565655555554545353A2
:105BA00052525251515050504F4F4F4E4E4D4D4DFD
:105BB0004C4C4C4B4B4B4A4A4A4949494848484748
:105BC0004747474646464545454444444443434386
:105BD0004342424242414141002B9C4630D477002F
:105BE0002BD01CB54FEA370703B44FF010004FF02D
:105BF0001001BAF1000F06D0BCF1000FDCBF40F07D
:105C0000080040F008014FF000000FBCBDE8104054
:105C10000BF1010BBBF1010F08BF5FEA170722BFB1
:105C200012F1010211F101014FF0004143F10003B3
:105C300000F0004043EA00007047F9D35708D0E76E
:105C400046EA064613F1400F4FEA16461FDD13F1F0
:105C5000200FDFBF16430A46002120335B42BED02F
:105C6000C3F1200746EA064602FA07F74FEA16464E
:105C700046EA0706C3F1200722FA03F201FA07F702
:105C800021FA03F14FF0000342EA0702A7E746EAD0
:105C9000020646EA06464FEA164646EA0106BCBF39
:105CA00046EA0646360C4FF000034FF000024FF074
:105CB000000194E72DE9804C9A46934670B491E830
:105CC000380007C831EA400C48BF34EA430C03D51A
:105CD000FFF7E6FDFFF780FFF0BCBDE8008C2DE983
:105CE000804C9A46934670B491E8380007C810F08B
:105CF000804F08BF13F0804F03D100F005F8FFF785
:105D00006BFFF0BCBDE8008C20F07F4780EA030009
:105D100023F07F4C07EB0C03A3F57C5300F000400D
:105D2000A3F1FE0392F0000F00F0B38095F0000F96
:105D300000F077802DE901494FEA11404FEA1446FF
:105D400021EA004800FB06FC24EA064708FB06F6A9
:105D500007FB08F800FB07F718EB06484CEB164C5E
:105D60004FEA124B18EB07484FEA15464CEB174029
:105D700022EA0B4E0BFB06FC25EA06470EFB06F655
:105D800007FB0EFE0BFB07F71EEB064E4CEB164C0B
:105D90004FF000061EEB074E4CEB174B18EB0B08B1
:105DA00040F1000018EB0E0B58EB000840F100002A
:105DB0008F1A4FF000013CBFC943661B14BFB5EBFF
:105DC000040C00213CBFC943F61B4FEA17444EEABE
:105DD0008E0E27EA04454FEA1C4704FB07622CEAB3
:105DE000074C05FB07F70CFB05F604FB0CFC16EB58
:105DF000074642EB174216EB0C4642EB1C421BEBEC
:105E0000060658EB0202414146EA9E0601D5BDE86E
:105E10000189B619524141EB0101A3F10103BDE82B
:105E200001894FEA14454FEA114724EA054621EA61
:105E3000074C05FB07F406FB07F70CFB06F105FB17
:105E40000CFC11EB074144EB17444FEA124711EBEE
:105E50000C4144EB1C4422EA074C05FB07F206FB0D
:105E600007F70CFB06F605FB0CFC16EB074642EBAE
:105E7000174216EB0C4642EB1C456A1854F1000120
:105E800048BF7047B619524141EB0101A3F101032C
:105E9000704795F0000F37D04FEA11424FEA144790
:105EA00021EA024624EA074C02FB07F106FB07F74A
:105EB0000CFB06F402FB0CFC14EB074441EB17410E
:105EC0004FEA154714EB0C4441EB1C4125EA074C03
:105ED00002FB07F506FB07F70CFB06F602FB0CFCC2
:105EE00016EB074645EB174516EB0C4645EB1C42F7
:105EF000121951F1000148BF7047B619524141EBE8
:105F00000101A3F1010370474FEA14454FEA11471D
:105F100024EA054621EA074C05FB07F106FB07F7D3
:105F20000CFB06F24FF0000605FB0CFC12EB0742DF
:105F300041EB174112EB0C4251EB1C4148BF70473B
:105F4000921841EB0101A3F10103704703B40198DA
:105F50004100009850EAC12018BF04204A0D18BF24
:105F600040F0010040F2FF72B2EB515F08BF40F019
:105F70000200012808BF052002B0704700000000A1
:105F800010B52F499FED2C1B2DED020B84B0059809
:105F900020F000408842D8BF9DED040B2DDD29493B
:105FA000884209D1049840B94FF00100FEF7F7FF8D
:105FB00000F03EFC06B010BD05DB9DED040B00F0CB
:105FC0002BFC06B010BD68469DED040B00F03CF8BC
:105FD00010F0030004BF9DED021B9DED000B0CD0E3
:105FE00001280ED09DED021B9DED000B022817D05D
:105FF000012000F079FB06B010BD00F041FA06B0B8
:1060000010BD9DED021B9DED000B012000F06CFB0F
:1060100051EC100B00F04EFC06B041EC100B10BD23
:1060200000F02EFA51EC100B00F044FC06B041ECED
:10603000100B10BD00000000000000000000000078
:10604000FB21E93F0000F07F2DE9F14F04462DEDE3
:10605000020B2DED088B8AB09FEDE70B80ED020B54
:10606000139EE74826F0004585420ADC9DED120BA1
:10607000002084ED000B0AB0BDEC088B03B0BDE836
:10608000F08FE0489FEDE0AB9FEDE1BBA84247DD1C
:10609000E14F9FEDE39B9FEDE48B9DED120B53ECE5
:1060A0001A2B51EC100B002E1CDD00F0D3FF41EC3D
:1060B000100BBD4208D053EC1B2B51EC100B00F021
:1060C000C9FFC4E900010BE053EC192B51EC100B94
:1060D00000F0C0FF53EC182B00F0BCFFC4E9000136
:1060E0000120C8E700F024FC41EC100BBD4208D0B1
:1060F00053EC1B2B51EC100B00F01AFCC4E900010F
:106100000BE053EC192B51EC100B00F011FC53EC8D
:10611000182B00F00DFCC4E900014FF0FF30AAE796
:10612000C348A84279DB9DED120B51EC100B00F037
:106130009FFB41EC180B9FEDC00B53EC102B00F0B4
:106140007FFE9FEDBF1B53EC112B00F0F1FB00F025
:10615000EFFD074600F049FE41EC190B53EC1A2BFA
:1061600000F06EFE53EC182B00F068FF41EC180BAA
:1061700053EC1B2B51EC190B00F062FEDFF8C8A2A8
:1061800041EC100B4FEA15580125FA4453EC102B43
:1061900051EC180B00F05EFF032DC4E900013DD067
:1061A000C1F30A5005EB4511A8EB000011398142FB
:1061B00034DA0AEB051BB0EE48AA9BED000BF0EEBB
:1061C00068AA53EC102B51EC190B00F039FE41EC8E
:1061D0001B0B51EC1A0B53EC1B2B00F03BFF41EC5B
:1061E000180B51EC1A0B53EC182B00F033FF53EC47
:1061F0001B2B00F02FFF9BED020B41EC1A0B53EC15
:10620000102B51EC190B00F01BFE53EC1A2B00F075
:1062100021FF41EC100B6D1CB8E70EE0002EA8BF6B
:106220003846BFF628AF94ED000B51EC100B00F090
:1062300041FBC4E9000178421DE7C6F3130040F4B6
:10624000801EC6F30A50A0F2F530471100F01F057A
:10625000C5F12000DDF848B00890002006900790B6
:106260000520EC467949002D07EB0002794408BF70
:1062700051F8221009D051F8223001EB8201AB40D5
:106280004A68089922FA01F11943A1FB0E26A1FBE5
:106290000B131A449A4234BF0123002303EB060870
:1062A0000CEB8003D3E901A60E448E4234BF0121DA
:1062B000002192448A4411B1924502D903E09245EB
:1062C00001D2012100E00021C3E901A641444CF8BC
:1062D0002010011EA0F10100C4DC029800F1005062
:1062E000850F0298DDE903678000DDF8148000F077
:1062F0007CFD41EC1A0B304600F08EFD9FED541BE7
:1063000053EC112B00F09CFD41EC1B0B384600F0C8
:1063100083FD9FED511B53EC112B00F091FD41ECDF
:10632000180B404600F078FD9FED4D1B53EC112BF0
:1063300000F086FD41EC190B51EC180B53EC192BB6
:1063400000F0F6FA53EC1B2B00F0F2FA53EC1A2B88
:1063500000F0EEFACDE90801002008909DED080B51
:1063600053EC1A2B51EC100B00F074FE53EC1B2B6A
:1063700000F070FE53EC182B00F06CFE53EC192B60
:1063800000F05CFE9FED381B53EC112B00F058FD24
:106390009FED370B41EC180B53EC102B9DED080BC8
:1063A00051EC100B00F04CFD53EC182B00F0C0FA30
:1063B0009FED310B41EC180B53EC102B9DED080BAE
:1063C00051EC100B00F03CFD53EC182B00F0B0FA30
:1063D00041EC100B139810F0004F06D06D4251ECB9
:1063E000100B00F067FA41EC100B284684ED000B0F
:1063F00041E6000000000000000000000000000076
:10640000FB21E93F7CD9024000004054FB21F93FC9
:106410003163621A61B4D03DFB21F93F00000000F6
:106420000000601A61B4D03D7370032E8A19A33B3B
:10643000FB2139410000000083C8C96D305FE43F93
:10644000000000000000E03F620D0100B00C010000
:10645000000000000000103E000000000000103CA2
:10646000000000000000103A182D4454FB21F93DB3
:106470003326A611460B113C00000054FB21F93DC8
:1064800010B52DED040B2DED088B82B0B0EE419AC6
:10649000F0EE619A0B9820F000449FED4BABB4F105
:1064A000795F11DA9DED0A0B51EC100B00F040FC06
:1064B000002801BFB0EE4A0AF0EE6A0A02B0BDEC55
:1064C000088B04BF04B010BD9DED0A0B53EC102BDC
:1064D00051EC100B00F0B4FC41EC180B3C480621C9
:1064E000B0EE480AF0EE680A784400F081F853EC08
:1064F000182B51EC100B00F0A3FC9DED0A0B41ECA6
:106500001B0B53EC192B51EC100B00F099FC41ECD8
:10651000190B53EC1B2B51EC180B00F091FC53ECB6
:10652000192B00F097FD9FED2C0B41EC190B53EC50
:10653000102B51EC180B00F083FC41EC100B284899
:10654000844210DA53EC192B51EC100B00F082FD51
:1065500053EC1A2B00F072FD41EC100B02B0BDECB5
:10656000088B04B010BD1F48A042BCBF9FED1E1B8E
:106570008DED001B06DBA4F50010019000200090BB
:106580009DED001B51EC100B53EC112B00F062FD44
:106590009DED000B41EC180B53EC102B51EC1A0B3A
:1065A00000F058FD41EC1A0B53EC192B51EC180B71
:1065B00000F050FD53EC1A2B00F040FD41EC100BA5
:1065C000CCE7000000000000000000000000F03FE9
:1065D000D409010000000000000000000000E03FBE
:1065E0003333D33F0000E93F000000000000D23FFA
:1065F00070B504462DED028B4D1E00EBC500B0EECC
:10660000408AF0EE608A90ED000B35F0060017D05E
:1066100053EC182B51EC100B00F012FC41EC100B5A
:106620006D1E04EBC50090ED001B51EC100B53ECFC
:10663000112B00F07DF941EC100B35F00600E7D18D
:10664000022D36D0042D1CD0062D1CBFBDEC028BB4
:1066500070BD53EC182B51EC100B00F0F1FB94EDD6
:106660000A1B53EC112B00F063F953EC182B00F0CC
:10667000E7FB94ED081B53EC112B00F059F941ECAA
:10668000100B53EC182B51EC100B00F0D9FB94EDD0
:10669000061B53EC112B00F04BF953EC182B00F0B8
:1066A000CFFB94ED040B53EC102B00F041F941ECBF
:1066B000100B53EC182B51EC100B00F0C1FB94EDB8
:1066C000021B53EC112B00F033F953EC182B00F0A4
:1066D000B7FB94ED001B53EC112B00F029F9BDEC36
:1066E000028B41EC100B70BD31B504462DED040B4F
:1066F0002DED0A8BB0EE41BAF0EE61BA0B989DED2C
:106700000A0B20F00040B0F1795F0DDA51EC100B6C
:10671000FFF71CFC042808BF00F09AF89DED0A0B57
:10672000BDEC0A8B05B030BD53EC102B51EC100BB7
:1067300000F086FB41EC180B9DED0A0B53EC182B77
:1067400051EC100B00F07CFB41EC190B2C48B0EE27
:10675000480AF0EE680A05217844FFF749FF9FEDEB
:106760002ACBB0EE40AAF0EE60AA9CB353EC1C2BEF
:1067700051EC190B00F064FB41EC1C0B53EC1A2B91
:1067800051EC190B00F05CFB9FED210B41EC190B58
:1067900053EC102B51EC1B0B00F052FB53EC192B5C
:1067A00000F058FC53EC182B00F04AFB53EC1B2B69
:1067B00000F050FC53EC1C2B00F04CFC9DED0A1B30
:1067C00053EC112B00F03AFCBDEC0A8B05B041EC08
:1067D000100B30BDFFE753EC1A2B51EC180B00F0F7
:1067E0002FFB53EC1C2B00F0A3F853EC192B00F0FB
:1067F00027FB9DED0A1B53EC112B00F099F8E3E702
:106800005C08010000000000495555555555C5BFAD
:10681000000000000000E03F10B553EC102B51ECDD
:10682000100B00F085F841EC100B10BD00000000CB
:106830009FED050B10B553EC102B51EC100B00F035
:106840001FF941EC100B10BD00000000000000001B
:106850009FED050B10B553EC102B51EC100B00F015
:10686000EFFA41EC100B10BD00000000000000101A
:1068700082B0CDE9000121F0004001909DED000BB8
:1068800002B051EC100B704710B500290AD00878FF
:10689000002807D005487844FEF750FF002801D0B3
:1068A000002010BD0248784410BD0000FE07010022
:1068B000F607010081F00041704780F0004070470A
:1068C00021F00041704720F00040704721F0004265
:1068D000A2F16052B2F5801F01F0004328BFD2F14F
:1068E0007F6C0BD95FEA001C43EAC20242EB507096
:1068F00018BF704728BF20F001007047B2F5801F15
:10690000BCBF184670474FEA410C1CF5001F02D26D
:10691000084600F0FFBC70B500F03CFB00000089A9
:10692000FFF7F6BF4FF00040A0F580007047000071
:1069300010B591EA030F48BF83F0004300F1928342
:10694000841A71EB030C05D2121943EB0C03001BE4
:1069500061EB0C01DFF824E14FEA1154A4EB135C66
:106960001EEA430F18BF9EEA445F73D023EA0E036A
:10697000DCF1200E21EA045143F4801332D322FAD1
:106980000CFE10EB0E0023FA0CFE41EB0E01CCF1D5
:10699000200E03FA0EFE10EB0E0051F10001B1F5CE
:1069A000801FCCF1200E32D201EB045112FA0EF20C
:1069B000BDE8104058BF7047401C38BF5FEA420234
:1069C00018BF7047002814BF20F0010041F10001FA
:1069D0004FEA410313F5001F38BF7047A1F1C041D2
:1069E00000F026BB012A43EB0302ACF1200CDCF1E2
:1069F0001F0E32BF4FF0000E23FA0CF310EB030012
:106A000041EB0451B4EB115FD0D0A1EB045101F57F
:106A1000801149085FEA300001EB04510ED350F1B8
:106A2000000038BF12FA0EFE08D1BDE81040C9E7D9
:106A3000401C38BF5FEA4202CAD1C3E7BDE810403C
:106A40004FEA410313F5001F38BF7047A1F1C04161
:106A500000F0EEBA9EEA445F08D011EA5E0FBDE88E
:106A6000104004BF01F0004100207047BDE8104015
:106A700070B500F08FFA00BF64FBBE3E0000E0FF7F
:106A80002DE9C04130B4DFF8A0C23CEA111418BFB0
:106A90003CEA131400F0EC8081EA03051CEA1114AF
:106AA00044EAD57418BF1CEA131500F0C780A4EBA4
:106AB00005044FF0004545EAC12145EAC32341EAF8
:106AC000505143EA525304F17F74994204F5003463
:106AD0004FEAC0204FEAC22208BF904200F09C80DB
:106AE0004FEA13650FF24016765D4FEA134506FB39
:106AF00005F7C7F1807706FB07F74FEAD737A7FB03
:106B000003687642C8F58038A7FB06CE38BFA8F1E7
:106B1000010807FB08E64FF0000EA6FB028CE6FB1F
:106B200003CEDCF1000CCEF1004E38BFAEF1010E09
:106B3000A6FB0C584FF000074FF00005E6FB0E8750
:106B4000A1FB08C6A0FB07CE16EB0E0645F100051B
:106B5000E1FB076515F1E04E7EBFA4F580345FEAE6
:106B600046066D4116F1800745F100054FEA1727EB
:106B70004FEA066647EA0567A6F1DE46B6F1805F92
:106B80004FEA15251FD9384624F0010C05EBC471D6
:106B9000BCF1FE6F01EB0C1102D8F0BCBDE8008126
:106BA00024425CBF01F5801E9EEAC47F02D4F0BC83
:106BB000BDE80081244238D4F0BCA1F1C041BDE859
:106BC000004100F035BA4FEAD22242EA43524FEA7E
:106BD000D323A7FB02864FEAD02040EA415007FBAF
:106BE00003661EEA0E0F4FEAD12105FB026658BF6D
:106BF000A6EB0056B6EB00564FEA520E4EEAC37EA5
:106C000018EB0E0E56EB530EBDD518EB02085E4185
:106C10007F1C55F10005B6E74FF480154FF00007D3
:106C20004FF000064FF00008ADE7F0BC4FF0000059
:106C300001F1C04101F00041BDE8008111EA0C1FE3
:106C40000CEA131500D00CE013EA0C1F00F02580AD
:106C50004FF00000F0BC81EA030101F00041BDE803
:106C60000081F0BCBDE8004181EA030100F0E0B919
:106C7000F0BCBDE8004170B500F08CF9097EFC3E27
:106C800000F007B881EA03014FF0000001F0004175
:106C9000704781EA030100F0CBB9F0BCBDE80041C8
:106CA0004FF0000021497047FFFDFBF9F7F5F4F2C2
:106CB000F0EEEDEBE9E8E6E4E3E1E0DEDDDBDAD897
:106CC000D7D5D4D3D1D0CFCDCCCBCAC8C7C6C5C4F5
:106CD000C2C1C0BFBEBDBCBBBAB9B8B7B6B5B4B30C
:106CE000B2B1B0AFAEADACABAAA9A8A8A7A6A5A4F7
:106CF000A3A3A2A1A09F9F9E9D9C9C9B9A999998BB
:106D00009797969595949393929191908F8F8E8E5D
:106D10008D8C8C8B8B8A89898888878786858584EA
:106D200084838382828181800000FF070000F87FD6
:106D30004FEA41034FEA5353A3F58063D3F11E0397
:106D4000C8BFD3F1210C0CDD4FF0004242EAC12252
:106D500042EA505232FA03FC8CEAE17CACEBE1707F
:106D60007047102BC4BF0020704703F5787CBCF13E
:106D7000FF3F04D06FF0004282EA2100704770B5F7
:106D800000F008F94992248000207047F2E70000E3
:106D90004FEA1153A3F58063D3F11E03A8BFD3F1CB
:106DA000200C08DB4FF0004242EAC12252EA505266
:106DB00032FA03F0704709420BD4102BC4BF0020F5
:106DC000704703F5787CBCF1FF3F05D04FF0FF30F2
:106DD00070474FF00000704770B500F0DBF800BF5F
:106DE0004992248000207047F0E710F0004248BF2D
:106DF0004042B0FA80F310FA03F10AD0C3F11D0348
:106E000003F580634FEA415002EB035202EBD121BC
:106E100070474FF000007047B0FA80F310FA03F1AA
:106E20000AD0C3F11D0303F580634FEA41504FEAD6
:106E3000035202EBD12170474FF000007047000071
:106E4000DFF848C170B51CEA111E1EBF1CEA1315FD
:106E50009EEA0C0F95EA0C0F00F06F8081EA0304A4
:106E600023EA4C134EEAD47E21EA4C1141F48011FE
:106E700043F48013AE44A1FB024CA0FB0365AEF1CA
:106E80007F7E361955EB0C05A1FB034C4CF100033A
:106E9000A0FB021C16EB0C06654153F100030942EE
:106EA00018BF46F0010613F4007F0BD14FEA0331FF
:106EB0004FEA0530340341EA155140EA16506FF0AD
:106EC00003020AE04FEAC3214FEAC520F40241EA77
:106ED000555140EA56506FF0020202EB2E4201EB90
:106EE000025585EACE710AD05FEA440C18BF24F03F
:106EF000004450F1000041F1000120EAD47040F25A
:106F0000FE7C624500D270BDA84214BF4FF08044A1
:106F10004FF04044002E08BF0024BEF1806FA8BF90
:106F2000A1F1C041BDE8704080F282804FF00000C6
:106F300001F1C04101F0004170479EEA0C0F0CEADC
:106F4000131518BF95EA0C0F06D04FF0000081EA28
:106F5000030E0EF0004170BD00F01CF88900013EE8
:106F600000F007B800F009B84FEA430C5FEA5C5C38
:106F700008D081EA030100F05BB84FEA410C5FEAF8
:106F80005C5CF6D14FF00000014970470000FF073C
:106F90000000F87F0EF1020E2EF0030E5EF8046B77
:106FA000364205D4012A43EB030515F5001F12D81C
:106FB000012841EB010C1CF5001F0CD80ED14FEA43
:106FC000D17C15F5001F0CEB4C0C0CF1020C08BF2A
:106FD0004CEBD37C04E04FF0080C01E04FEAD37C8B
:106FE0000CEB4C0526FA05F606F00706B6F1040C84
:106FF00006D20EEB860CBDE870404CF0010C6047E9
:10700000DFE80CF0090B02024FF000414FF00000E6
:10701000A1F5002170BD19461046012851EB01046D
:1070200018BFD4F5001484BF002001F0004170BDEA
:107030000808A0F500114FEA3101704791EA030FEB
:1070400010B581F000413FF57BAC83F0004300F0C8
:1070500009B8000010B591EA030F48BF83F0004360
:107060003FF56EAC841A71EB030C07D212198CF049
:10707000004C43EB0C03001B61EB0C01DFF8A4E1B7
:107080004FEA1154A4EB135C1EEA430F18BF9EEAAB
:10709000445F00F0B08023EA6E03524221EA0451BB
:1070A000C3EB6E0338BF5B1EDCF1200E25D322FA42
:1070B0000CFE10EB0E0043FA0CFE41EB0E01CCF17E
:1070C000200E03FA0EFE10EB0E0051F10001CCF180
:1070D000200E29D412FA0EF201EB0451BDE8104043
:1070E00058BF7047401C1CBFB2F1004F70470028CA
:1070F0000CBF491C20F00100704712EB020E43EB5D
:10710000030218BF4FF0010E4EEA4202ACF1200C10
:10711000DCF11E0E54D943FA0CFE10EB0E0051F1B7
:10712000FF31CCF11E0ED5D50EF1010E12FA0EFE76
:10713000404141EB010101EB445C5FEA5C5C10D92A
:1071400010EBDE7001EB045138BFBEF1004FBDE81B
:10715000104018BF704700280CBF491C20F00100E8
:10716000704730D24FEAD42C11F5001124F400649A
:107170001BD0B1FA81F20B3AA41AA41ED2F120035B
:10718000914030FA03F31943904001EBCC71002C8D
:1071900001EB0451BDE81040A8BF704701F1C041A8
:1071A0004FF0000001F000417047B0FA80F310FA90
:1071B00003F100D110BDE41A173C4805C90AE4E701
:1071C00001EB045110BD491001EB0451BDE8104022
:1071D0004FEA300002E04FF0000170474A0008BF5C
:1071E0000042F8D0B2F5001F28BF704701F00041FF
:1071F0004FF0000070479EEA445F07D011EA5E0F2F
:10720000BDE8104004BF002100207047BDE81040D9
:1072100070B5FFF7BFFE00BF40DFF63E83F00041D0
:10722000104670470000E0FF43004FEAD30C4FEADE
:107230003C0C43401FBF40070CF1605113F0FE4F60
:1072400070471CF0006F03D100200CF00041704724
:107250000CF0004343EA507010B540EACC0000F057
:107260000EF800BF000000924FEA0001FFF7E0BEF9
:107270004FF000414FF00000A1F5002170470EF1E2
:10728000020E2EF0030E5EF8044B244204D44FEAA3
:107290004102B2F17F4F11D84FEA4003B3F17F4F63
:1072A0000CD80ED14FEAD07CB2F17F4F0CEB4C0CD6
:1072B0000CF1020C08BF4CEBD17C04E04FF0080C41
:1072C00001E04FEAD17C0CEB4C0324FA03F404F008
:1072D0000704B4F1040C06D20EEB840CBDE8104098
:1072E0004CF0010C6047DFE80CF0070802024FF099
:1072F0000040A0F5800010BD0846420018BFD2F142
:10730000807288BF00F0004010BD4FF04070E1EE89
:10731000100A7047FF2141EAD050C0057047FDF7C1
:1073200076BF0000000000000000002F00000000F9
:107330000700070000147F147F1400242A7F2A12FC
:1073400000626408132300364955225000000503EB
:10735000000000001C224100000041221C0000141B
:10736000083E08140008083E0808000000A060005D
:1073700000080808080800006060000000201008ED
:107380000402003E5149453E0000427F4000004259
:1073900061514946002141454B31001814127F10BC
:1073A000002745454539003C4A49493000017109EB
:1073B000050300364949493600064949291E00009F
:1073C0003636000000005636000000081422410046
:1073D0000014141414140000412214080002015176
:1073E000090600324959513E007C1211127C007F7F
:1073F00049494936003E41414122007F4141221C1A
:10740000007F49494941007F09090901003E41497E
:10741000497A007F0808087F0000417F4100002072
:1074200040413F01007F08142241007F404040401E
:10743000007F020C027F007F0408107F003E414164
:10744000413E007F09090906003E4151215E007F4F
:10745000091929460046494949310001017F0101C6
:10746000003F4040403F001F2040201F003F403869
:10747000403F0063140814630007087008070061A8
:107480005149454300007F41410000552A552A5586
:10749000000041417F00000402010204004040401E
:1074A0004040000001020400002054545478007F42
:1074B0004844443800384444442000384444487F19
:1074C00000385454541800087E0901020018A4A47E
:1074D000A47C007F080404780000447D4000004044
:1074E00080847D00007F102844000000417F400020
:1074F000007C04180478007C0804047800384444B4
:10750000443800FC242424180018242418FC007C8F
:107510000804040800485454542000043F44402008
:10752000003C4040207C001C2040201C003C40309F
:10753000403C004428102844001CA0A0A07C00442B
:1075400064544C441414141414140000000000007B
:107550000000000000000000FC000000000002002D
:107560000000000C020C020000000000000090D09F
:10757000BCD0BC900003000300001824FE448C0023
:107580000302070201001824D8B04C800003000158
:107590000201C038E438E0000102020102020806DC
:1075A00000000000000000000000000000F80402DD
:1075B000000000010204000204F8000000040201BF
:1075C00000009060F86090000000010000002020A2
:1075D000FC2020000000010000000000000000006E
:1075E00008060000000020202020200000000000ED
:1075F0000000000000000000000200000000008009
:10760000601C0200040300000000F8040404F800F9
:107610000102020201000008FC0000000002030257
:107620000000188444241800030202020200080427
:107630002424D80001020202010040B088FC80002E
:107640000000000302003C242424C40001020202C2
:107650000100F824242CC0000102020201000C04E5
:10766000E41C0400000003000000D8242424D800F7
:1076700001020202010038444444F80000030202FF
:1076800001000000100000000000020000000000E7
:1076900020000000000006000000002050880402C6
:1076A0000000000001029090909090000000000007
:1076B00000000002048850200002010000001804AD
:1076C000C4241800000002000000F804E494F8004C
:1076D00001020202020000E09CF0800002030000B0
:1076E000030204FC2424D800020302020100F8046F
:1076F00004040C0001020202010004FC0404F8006E
:1077000002030202010004FC24740C0002030202C2
:10771000030004FC24740C00020302000000F008C3
:107720000444CC4000010202010004FC2020FC04BF
:107730000203000003020404FC040400020203022A
:107740000200000404FC040406040403000004FC1A
:1077500024D00C0402030200030204FC0400000015
:10776000020302020203FC3CC03CFC0003000300D5
:10777000030004FC30C4FC04020302000300F8040C
:107780000404F80001020202010004FC2424180091
:10779000020302000000F8848404F80001020207DA
:1077A000050004FC2464980002030200030218246C
:1077B00024448C000302020201000C04FC040C00AF
:1077C00000020302000004FC0000FC0400010202AD
:1077D0000100047C80E01C040000030000001CE0A9
:1077E0003CE01C00000300030000049C609C0400BB
:1077F000020300030200041CE01C04000002030258
:1078000000000C84641C0400020302020300000058
:10781000FE020200000007040400000E30C0000059
:10782000000000010200000202FE00000004040744
:10783000000000040204000000000000000000003E
:107840000000000008080808080800000200000006
:107850000000000000000040A0A0C00000010202E3
:10786000030204FC2020C00000030202010000C04B
:107870002020600000010202020000C02024FC0061
:1078800000010202030200C0A0A0C0000001020229
:1078900002000020F8242404000203020200004039
:1078A000A0A0602000070A0A0A0404FC2020C000EF
:1078B0000203020003020020E400000000020302B1
:1078C0000000000020E4000008080807000004FC95
:1078D00080E020200203020003020404FC000000F8
:1078E000020203020200E020E020C00003000300C7
:1078F000030020E02020C00002030200030200C0B9
:107900002020C00000010202010020E02020C00071
:10791000080F0A02010000C02020E0000001020A56
:107920000F0820E040202000020302000000006059
:10793000A0A020000002020203000020F8200000A6
:1079400000000102020020E00020E000000102022D
:10795000030220E02080602000000301000060801E
:10796000E0806000000300030000206080602000D1
:1079700002030003020020E02080602008080701C5
:1079800000000020A06020000002030202000000AE
:1079900020DE0200000000070400000000FF0000DD
:1079A0000000000F00000002DE20000000040700BD
:1079B00000000201020404020000000000000000B8
:1079C00000000000000000000000000000000000B7
:1079D00000F800000000000000333000000000103C
:1079E0000C06100C0600000000000000000040C063
:1079F0007840C0784000043F04043F040400007055
:107A000088FC08300000001820FF211E0000F0084C
:107A1000F000E018000000211C031E211E0000F0F1
:107A20000888700000001E21232419272110101639
:107A30000E00000000000000000000000000000038
:107A400000E01804020000000007182040000002B7
:107A50000418E0000000004020180700000040402B
:107A600080F0804040000202010F0102020000008D
:107A700000F0000000000101011F010101000000F1
:107A800000000000000080B0700000000000000056
:107A900000000000000000010101010101010000DF
:107AA0000000000000000030300000000000000076
:107AB000000080601804006018060100000000E06B
:107AC00010080810E000000F102020100F00001018
:107AD00010F8000000000020203F2020000000706F
:107AE0000808088870000030282422213000003067
:107AF0000888884830000018202020110E0000005F
:107B0000C02010F8000000070424243F240000F8DF
:107B10000888880808000019212020110E0000E0C4
:107B2000108888180000000F112020110E00003866
:107B30000808C83808000000003F0000000000707E
:107B4000880808887000001C222121221C0000E007
:107B500010080810E0000000312222110F00000080
:107B600000C0C00000000000003030000000000035
:107B700000800000000000008060000000000000A5
:107B8000804020100800000102040810200040403E
:107B90004040404040000404040404040400000881
:107BA0001020408000000020100804020100007036
:107BB00048080808F0000000003036010000C0301E
:107BC000C828E810E0000718272423140B00000041
:107BD000C038E0000000203C23020227382008F8CB
:107BE000888888700000203F202020110E00C030BF
:107BF000080808083800071820202010080008F896
:107C000008080810E000203F202020100F0008F88E
:107C10008888E8081000203F20202320180008F85A
:107C20008888E8081000203F200003000000C030D2
:107C300008080838000007182020221E020008F853
:107C400008000008F808203F210101213F2000081A
:107C500008F8080800000020203F20200000000055
:107C60000808F8080800C08080807F00000008F83D
:107C700088C028180800203F20012638200008F876
:107C8000080000000000203F20202020300008F8DD
:107C9000F800F8F80800203F003F003F200008F8F7
:107CA00030C00008F808203F200007183F00E0100F
:107CB00008080810E0000F10202020100F0008F81E
:107CC00008080808F000203F210101010000E01031
:107CD00008080810E0000F18242438504F0008F856
:107CE000888888887000203F2000030C30200070B6
:107CF0008808080838000038202121221C001808B4
:107D000008F8080818000000203F2000000008F8CC
:107D100008000008F808001F202020201F00087815
:107D2000880000C83808000007380E010000F80875
:107D300000F80008F800033C0700073C030008189F
:107D400068808068180820302C03032C3020083805
:107D5000C800C83808000000203F200000001008BC
:107D60000808C83808002038262120201800000004
:107D700000FE020202000000007F40404000000CB4
:107D800030C000000000000000010638C000000202
:107D90000202FE000000004040407F0000000000A2
:107DA00004020202040000000000000000000000C5
:107DB00000000000000080808080808080800002C1
:107DC00002040000000000000000000000000000AD
:107DD0008080808000000019242222223F2008F8A1
:107DE000008080000000003F112020110E000000E4
:107DF000008080800000000E112020201100000073
:107E000000808088F800000E112020103F20000024
:107E1000808080800000001F222222221300008028
:107E200080F0888888180020203F20200000000073
:107E3000808080808000006B94949493600008F8A8
:107E4000008080800000203F210000203F20008033
:107E50009898000000000020203F20200000000033
:107E600000809898000000C08080807F000008F8A3
:107E7000000080808000203F24022D302000000878
:107E800008F8000000000020203F20200000808033
:107E9000808080808000203F20003F20003F808045
:107EA000008080800000203F210000203F20000053
:107EB000808080800000001F202020201F00808004
:107EC00000808000000080FFA12020110E00000033
:107ED000008080808000000E112020A0FF80808024
:107EE00080008080800020203F21200001000000D1
:107EF00080808080800000332424242419000080A6
:107F000080E0808000000000001F202000008080B2
:107F1000000000808000001F202020103F20808073
:107F200080000080808000010E3008060100808003
:107F30000080008080800F300C030C300F00008028
:107F40008000808080000020312E0E312000808053
:107F500080000080808080818E7018060100008083
:107F60008080808080000021302C222130000000A1
:107F70000000807C020200000000003F4040000042
:107F80000000FF00000000000000FF0000000002F1
:107F9000027C800000000040403F0000000000061E
:107FA00001010202040400000000000000000000C3
:107FB00000000000000000000000000000000000C1
:107FC00000000000000000000000000000000000B1
:107FD00000000000000000F0F0F0000000000000D1
:107FE000000000017F010000000000000000001CF4
:107FF0001C1C0000000000008060301C8C60301CE5
:108000000C00000000000000000000000000000064
:1080100000000000000000000000000000E0000080
:10802000000000E000000086E69F86868686E69FC8
:10803000860000011F01010101011F010100000074
:1080400080C06020F820E0C00000000003070C188A
:10805000FF70E18100000000070F10107F100F0774
:1080600000008060206080000000E02000000F30F1
:1080700020309F70DC371030C0000000100E03006D
:108080000718101807000000C02020E0C000000002
:10809000000080E01F38E88703C43C040000070F9D
:1080A0001810100B070D1010080000808C4C3800C1
:1080B00000000000000000000000000000000000C0
:1080C00000000000000000000000000000000000B0
:1080D0000000000080E0300804000000000000FE06
:1080E000FF0100000000000000000000030F182046
:1080F000400000040830E0800000000000000000A4
:10810000000001FFFE0000000000004020180F03E7
:10811000000000000000000000000000C00000009F
:108120000000004266663C18FF183C66664200008C
:10813000000000000300000000000000000000003C
:10814000800000000000001010101010FF10101030
:1081500010100000000000000300000000000000FC
:10816000000000000000000000000000000000000F
:1081700000000000000000808C4C3800000000006F
:1081800000000000000000000000000000000010DF
:10819000101010101010101010000000000000004F
:1081A00000000000000000000000000000000000CF
:1081B00000000000000000000000000000000000BF
:1081C0001C1C1C000000000000000000000000005B
:1081D0000000E0380C000000000080701C0300006C
:1081E00000000060380E01000000000000000000E8
:1081F00080C060202060C080000000FEFF01000001
:10820000000001FFFE000001070E181010180E07F5
:1082100001000000808080C0E0000000000000003D
:10822000000000FFFF000000000000001010101F01
:108230001F10101000000080402020202060C0800F
:10824000000000030300804020381F070000001CCE
:108250001A1918181818181F00000080C0202020B4
:1082600060C080000000000303001010182FE7809A
:10827000000000070F10101010180F07000000007A
:1082800000000000C0E0F000000000C0B08886815F
:1082900080FFFF808000000000000010101F1F10F2
:1082A00010000000E060606060606060000000003E
:1082B0003F1008080818F0E0000000070B1010102D
:1082C000101C0F030000000080C040202020E0C0F0
:1082D000000000FCFF211008080818F0E000000171
:1082E000070C18101010080F03000000C0E06060B9
:1082F000606060E06000000003000000E01807001C
:10830000000000000000001F1F00000000000080AF
:10831000C0602020202060C080000087EF2C18184B
:10832000303068CF830000070F0810101010180FAE
:1083300007000000C0C020202020C0800000001FD7
:108340003F604040402010FFFE0000000C1C101059
:1083500010080F03000000000000000000000000F3
:10836000000000000000000E0E0E000000000000E3
:108370000000001C1C1C00000000000000000000A9
:1083800000000000000000000000000C0C000000D5
:10839000000000000000005838000000000000004D
:1083A00000000000008040201000000010284482DF
:1083B00001000000000000000000000001020408AD
:1083C0001000000000000000000000000000008419
:1083D00084848484848484848400000000000000F9
:1083E000000000000000000010204080000000009D
:1083F000000000000000000001824428100000007E
:108400001008040201000000000000C0202010102D
:10841000101030E0C0000003030000F010080C074B
:108420000300000000001C1C1C00000000000000F5
:1084300000C0406020202040C00000FCFF01F00E82
:1084400003C1FE03807F0001070E081111101109FE
:1084500004020000000080E0E000000000000000D6
:10846000807C4340477FF880000010181F100000F8
:108470000000131F1C1020E0E02020202060C0809E
:10848000000000FFFF10101010182FE78000101FD1
:108490001F1010101010180F0700000080C040209F
:1084A00020202060E00000FCFF0100000000000030
:1084B00001000001070E181010100804030020E04E
:1084C000E02020202040C080000000FFFF000000CE
:1084D000000001FFFE00101F1F10101018080E07EB
:1084E000010020E0E020202020202060800000FF0C
:1084F000FF101010107C00000000101F1F10101043
:1085000010101018060020E0E020202020206060DD
:10851000800000FFFF101010107C00000100101FF1
:108520001F100000000000000000000080C060205C
:10853000202040E0000000FCFF0100004040C0C1DE
:1085400040400001070E181010100F0F000020E02F
:10855000E0200000000020E0E02000FFFF101010ED
:10856000101010FFFF00101F1F1000000000101F50
:108570001F100000202020E0E0202020000000004C
:10858000000000FFFF000000000000001010101F9E
:108590001F101010000000000000202020E0E0204C
:1085A000202000000000000000FFFF00000000602D
:1085B000E0808080C07F3F00000020E0E0200000DD
:1085C00020A06020200000FFFF30187CE3C00000E6
:1085D0000000101F1F10000001131F1C181020E0C6
:1085E000E020000000000000000000FFFF0000008D
:1085F000000000000000101F1F10101010101018B5
:10860000060020E0E0E000000000E0E0E02000FFE5
:10861000013FFEC0E01E01FFFF00101F1000031FFE
:108620000300101F1F1020E0E0C000000000002029
:10863000E02000FF0003071C78E08000FF00101F0F
:10864000100000000000030F1F00000080C0602029
:108650002060C080000000FEFF010000000000FF5D
:10866000FE000001070E181010180C07010020E092
:10867000E0202020202060C0800000FFFF2020207C
:108680002020301F0F00101F1F10000000000000EE
:108690000000000080C060202060C080000000FE5C
:1086A000FF010000000000FFFE000001070E111195
:1086B000133C7C67210020E0E0202020202060C0C7
:1086C000800000FFFF101030F0D0080F0700101FCF
:1086D0001F10000000030F1C10100080C06020203D
:1086E00020204040E00000070F0C1818303060E0F8
:1086F0008100001F0C0810101010180F0700806078
:10870000202020E0E020202060800100000000FF09
:10871000FF000000000100000000101F1F100000FB
:10872000000020E0E020000000000020E02000FF2A
:10873000FF00000000000000FF0000070F181010ED
:108740001010100807002060E0E02000000020E08A
:1087500060200000077FF88000807C03000000009C
:108760000000071F1C070000000020E0E02000E0E0
:10877000E0200020E0200007FFF8E01FFFFCE01FE2
:1087800000000000031F0300011F03000000002081
:1087900060E0A0000020E0602000000000038F7C6B
:1087A000F8C6010000000010181E130001171F1862
:1087B00010002060E0E02000000020E060200000C9
:1087C00001073EF8E0180700000000000010101F2D
:1087D0001F101000000000806020202020A0E0E09A
:1087E000200000000000C0F03E0F03000000001059
:1087F0001C1F17101010101806000000000000FCCD
:108800000404040404000000000000FF0000000055
:10881000000000000000007F404040404000000099
:1088200010E0000000000000000000000000031C39
:1088300060800000000000000000000000030C70D9
:10884000800000000404040404FC00000000000098
:108850000000000000FF0000000000004040404019
:10886000407F0000000000000010080C040C0810FD
:1088700000000000000000000000000000000000F8
:1088800000000000000000000000000000000000E8
:1088900000000000000000000000000000000000D8
:1088A00000008080808080808080808080800000C8
:1088B00000040408080000000000000000000000A0
:1088C00000000000000000000000000000000000A8
:1088D0000000000000000000000000000000000098
:1088E00098D844642424FCF80000000F1F181010CE
:1088F00010081F1F10180020E0F00000000000000A
:1089000000000000FFFF180804040CF8F00000004D
:108910001F0F18101010180F0300000000000000B7
:1089200000000000000000E0F8180404043C3800D7
:10893000000000030F0C10101010080600000000CB
:10894000000000000020E0F0000000E0F81C04043B
:108950000408FFFF000000030F18101010081F0F7D
:1089600008000000000000000000000000000000FF
:10897000E0F8484444444C7870000000030F0C18A1
:108980001010100804000000000080C0602020E0EB
:10899000C00000040404FFFF0404040400000000FD
:1089A00010101F1F10101000000000000000000039
:1089B000000000000000000070F88C04048CF874C3
:1089C000040C007076CF8D8D8D89C87870000020E2
:1089D000E0F000000000000000000000FFFF0804BD
:1089E0000404FCF8000000101F1F100000101F1FDF
:1089F00010000000000000606000000000000000A7
:108A0000040404FCFC000000000000001010101F13
:108A10001F10101000000000000000000060600047
:108A2000000000000000040404FCFC000000000042
:108A3000C0C08080C07F3F0000000020E0F0000048
:108A40000000000000000000FFFF80C0F41C0404D0
:108A5000000000101F1F1100031F1C101000000059
:108A6000202020E0F000000000000000000000FFD7
:108A7000FF000000000000001010101F1F10101059
:108A8000000000000000000000000000000004FCE6
:108A9000FC0804FCFC0804FCFC00101F1F10001F55
:108AA0001F10001F1F100000000000000000000049
:108AB00000000004FCFC08080404FCF8000000109E
:108AC0001F1F100000101F1F1000000000000000FA
:108AD00000000000000000E0F0180C04040C18F086
:108AE000E00000030F0C101010100C0F030000002A
:108AF000000000000000000000000004FCFC08046E
:108B000004040CF8F0000080FFFF889010101C0F88
:108B1000030000000000000000000000000000E072
:108B2000F81C04040408F8FC000000030F181010DF
:108B30009088FFFF8000000000000000000000009F
:108B40000000040404FCFC100804040C0C001010C9
:108B5000101F1F1010100000000000000000000097
:108B600000000000000000003078CCC48484840C35
:108B70001C0000001E1810101011190F0600000034
:108B8000000000C000000000000000040404FFFF1B
:108B9000040404000000000000000F1F1010100C5F
:108BA00000000000000000000000000000000004C1
:108BB000FCFE00000004FCFE000000000F1F181067
:108BC00010081F0F08000000000000000000000057
:108BD000000000040C3CFCC40000C43C0C04000079
:108BE0000000010F1E0E0100000000000000000048
:108BF000000000000000043CFCC400E47CFC848015
:108C00007C040000071F070000071F07000000008A
:108C1000000000000000000000000004041C7CE4D0
:108C2000C0341C0404000010101C1601131F1C1873
:108C30001000000000000000000000000000000420
:108C40000C3CFCC400C43C0404000000C080C137DC
:108C50000E01000000000000000000000000000005
:108C6000000000001C0404C4F47C1C04000000008C
:108C7000101C1F17111010180E000000000000003B
:108C800000F80C04000000000000001028EF0000B5
:108C90000000000000000000003F604000000000F5
:108CA00000000000FF0000000000000000000000C5
:108CB000FF0000000000000000000000FF000000B6
:108CC00000000000040CF80000000000000000009C
:108CD0000000EF28100000000000000040603F008E
:108CE0000000000000000018060202040810202006
:108CF000300800000000000000000000000000003C
:108D0000000000000000000000000000F010101043
:108D100010FF10101010F000000000000F040404F9
:108D200004FF040404040F0000004040405F555558
:108D300055755555555F404040000040200F09498A
:108D400089790909090F2040000000FE02424ACA41
:108D50004A4ACA4A4A4202FE000000FF40504C43C1
:108D600040404F50505C40FF00000000F888888869
:108D700088FF88888888F800000000001F0808081D
:108D8000087F888888889F80F00080828282828223
:108D900082E2A2928A868280800000000000004069
:108DA000807F0000000000000000101010FF1090F5
:108DB00008888888FF88888808000444827F0180AA
:108DC0008040432C1028468180000010101010D0E5
:108DD00030FF30D0121C10100000100804020100F7
:108DE00000FF000001020408100004040484E43CB5
:108DF0002724242424E40404040004020100FF09BD
:108E000009090949897F0000000000FE225A8600F6
:108E1000FE9292929292FE00000000FF040807006A
:108E2000FF4020030C14224140000080402018061F
:108E300080000718204080000000010020702826D4
:108E4000212020243860000101000010129292922B
:108E5000929292121202FE0000000000003F1010D9
:108E600010103F0040807F000000000000C08080A4
:108E70008080808080FC84808080808080C0C00072
:108E80000000000000FF7F404040404040FF404065
:108E90004040404040FF7F00000000000000000014
:108EA00000000000007F70000000000000000000D3
:108EB00000000000000000000000000000000000B2
:108EC00000FCF800000000000000000000000000AE
:108ED000000000000000FFFE020202020202020285
:108EE00002FFFF020202020202020202FF0300006E
:108EF0000000000000001F1F040404040404040414
:108F000004FFFF0404040404040404041F0000001C
:108F10000000000000000000000000000000000051
:108F2000007F3F0000000000000000000000000083
:108F30000000000000000000000000000000000031
:108F4000000000000000000000000000000000F829
:108F5000F8F0F070200000000000000000000000A9
:108F60000000000000000000000000000000000001
:108F70000000000000000000000080000000000071
:108F8000000000000000000000000000000000FFE2
:108F9000FFFFFF00000000000000000000000000D4
:108FA00000000000000080800000000000000000C1
:108FB0000000000000000000000000FFFFFE0606A9
:108FC000060606060606060606060606060606FF48
:108FD000FFFFFF0606060606060606060606060646
:108FE0000606060606FFFFFFFF070200000000005E
:108FF0000000000000000000000000FFFFFF000074
:10900000000000000000000000000000000000FF61
:10901000FFFFFF0000000000000000000000000053
:109020000000000000FFFFFFFF0000000000000044
:109030000000000000000000000000FFFFFF181803
:10904000181818181818181818181818181818FFB9
:10905000FFFFFF18181818181818181818181818DB
:109060001818181818FFFFFFFF000000000000008C
:1090700000000000000000000000020101000000EC
:10908000000000000000000000000000000000FFE1
:10909000FFFFFF00000000000000000000000000D3
:1090A00000000000000101000000000000000000BE
:1090B00000000000000000000000000000000000B0
:1090C000000000000000000000000000000000FFA1
:1090D000FFFFFF0000000000000000000000000093
:1090E0000000000000000000000000000000000080
:1090F0000000000000000000000000000000000070
:109100000000000000000000000000000000001F40
:109110001F0F0F0000000000000000000000000012
:10912000000000000000000000000000000000003F
:1091300000000008040C020A060E0109050D030BCD
:10914000070F00000802DF0032000802BE003700EF
:1091500008028B003C0008027B0041000802690005
:109160004600080258004B00000244005000000274
:1091700044005A00000234006400000234006E0013
:10918000000224007800000224008C000002140079
:10919000B40000021300DC0000021300FA00000219
:1091A0001100180100020000360100410000C20158
:1091B000004100004C02004000008A020040000014
:1091C0000004000200060001000500030007800003
:1091D00080048002800680018005800380074000B3
:1091E0004004400240064001400540034007C000E3
:1091F000C004C002C006C001C005C003C0072000F3
:109200002004200220062001200520032007A000C2
:10921000A004A002A006A001A005A003A007600072
:109220006004600260066001600560036007E000A2
:10923000E004E002E006E001E005E003E0071000E2
:109240001004100210061001100510031007900002
:1092500090049002900690019005900390075000B2
:109260005004500250065001500550035007D000E2
:10927000D004D002D006D001D005D003D0073000F2
:109280003004300230063001300530033007B000C2
:10929000B004B002B006B001B005B003B007700072
:1092A0007004700270067001700570037007F000A2
:1092B000F004F002F006F001F005F003F0070800FA
:1092C00008040802080608010805080308078800C2
:1092D0008804880288068801880588038807480072
:1092E0004804480248064801480548034807C800A2
:1092F000C804C802C806C801C805C803C8072800B2
:109300002804280228062801280528032807A80081
:10931000A804A802A806A801A805A803A807680031
:109320006804680268066801680568036807E80061
:10933000E804E802E806E801E805E803E8071800A1
:1093400018041802180618011805180318079800C1
:109350009804980298069801980598039807580071
:109360005804580258065801580558035807D800A1
:10937000D804D802D806D801D805D803D8073800B1
:109380003804380238063801380538033807B80081
:10939000B804B802B806B801B805B803B807780031
:1093A0007804780278067801780578037807F80061
:1093B000F804F802F806F801F805F803F8070400C5
:1093C00004040402040604010405040304078400E1
:1093D0008404840284068401840584038407440091
:1093E0004404440244064401440544034407C400C1
:1093F000C404C402C406C401C405C403C4072400D1
:109400002404240224062401240524032407A400A0
:10941000A404A402A406A401A405A403A407640050
:109420006404640264066401640564036407E40080
:10943000E404E402E406E401E405E403E4071400C0
:1094400014041402140614011405140314079400E0
:109450009404940294069401940594039407540090
:109460005404540254065401540554035407D400C0
:10947000D404D402D406D401D405D403D4073400D0
:109480003404340234063401340534033407B400A0
:10949000B404B402B406B401B405B403B407740050
:1094A0007404740274067401740574037407F40080
:1094B000F404F402F406F401F405F403F4070C00D8
:1094C0000C040C020C060C010C050C030C078C00A0
:1094D0008C048C028C068C018C058C038C074C0050
:1094E0004C044C024C064C014C054C034C07CC0080
:1094F000CC04CC02CC06CC01CC05CC03CC072C0090
:109500002C042C022C062C012C052C032C07AC005F
:10951000AC04AC02AC06AC01AC05AC03AC076C000F
:109520006C046C026C066C016C056C036C07EC003F
:10953000EC04EC02EC06EC01EC05EC03EC071C007F
:109540001C041C021C061C011C051C031C079C009F
:109550009C049C029C069C019C059C039C075C004F
:109560005C045C025C065C015C055C035C07DC007F
:10957000DC04DC02DC06DC01DC05DC03DC073C008F
:109580003C043C023C063C013C053C033C07BC005F
:10959000BC04BC02BC06BC01BC05BC03BC077C000F
:1095A0007C047C027C067C017C057C037C07FC003F
:1095B000FC04FC02FC06FC01FC05FC03FC070200A9
:1095C00002040202020602010205020302078200EF
:1095D000820482028206820182058203820742009F
:1095E0004204420242064201420542034207C200CF
:1095F000C204C202C206C201C205C203C2072200DF
:109600002204220222062201220522032207A200AE
:10961000A204A202A206A201A205A203A20762005E
:109620006204620262066201620562036207E2008E
:10963000E204E202E206E201E205E203E2071200CE
:1096400012041202120612011205120312079200EE
:10965000920492029206920192059203920752009E
:109660005204520252065201520552035207D200CE
:10967000D204D202D206D201D205D203D2073200DE
:109680003204320232063201320532033207B200AE
:10969000B204B202B206B201B205B203B20772005E
:1096A0007204720272067201720572037207F2008E
:1096B000F204F202F206F201F205F203F2070A00E6
:1096C0000A040A020A060A010A050A030A078A00AE
:1096D0008A048A028A068A018A058A038A074A005E
:1096E0004A044A024A064A014A054A034A07CA008E
:1096F000CA04CA02CA06CA01CA05CA03CA072A009E
:109700002A042A022A062A012A052A032A07AA006D
:10971000AA04AA02AA06AA01AA05AA03AA076A001D
:109720006A046A026A066A016A056A036A07EA004D
:10973000EA04EA02EA06EA01EA05EA03EA071A008D
:109740001A041A021A061A011A051A031A079A00AD
:109750009A049A029A069A019A059A039A075A005D
:109760005A045A025A065A015A055A035A07DA008D
:10977000DA04DA02DA06DA01DA05DA03DA073A009D
:109780003A043A023A063A013A053A033A07BA006D
:10979000BA04BA02BA06BA01BA05BA03BA077A001D
:1097A0007A047A027A067A017A057A037A07FA004D
:1097B000FA04FA02FA06FA01FA05FA03FA070600B1
:1097C00006040602060606010605060306078600CD
:1097D000860486028606860186058603860746007D
:1097E0004604460246064601460546034607C600AD
:1097F000C604C602C606C601C605C603C6072600BD
:109800002604260226062601260526032607A6008C
:10981000A604A602A606A601A605A603A60766003C
:109820006604660266066601660566036607E6006C
:10983000E604E602E606E601E605E603E6071600AC
:1098400016041602160616011605160316079600CC
:10985000960496029606960196059603960756007C
:109860005604560256065601560556035607D600AC
:10987000D604D602D606D601D605D603D6073600BC
:109880003604360236063601360536033607B6008C
:10989000B604B602B606B601B605B603B60776003C
:1098A0007604760276067601760576037607F6006C
:1098B000F604F602F606F601F605F603F6070E00C4
:1098C0000E040E020E060E010E050E030E078E008C
:1098D0008E048E028E068E018E058E038E074E003C
:1098E0004E044E024E064E014E054E034E07CE006C
:1098F000CE04CE02CE06CE01CE05CE03CE072E007C
:109900002E042E022E062E012E052E032E07AE004B
:10991000AE04AE02AE06AE01AE05AE03AE076E00FB
:109920006E046E026E066E016E056E036E07EE002B
:10993000EE04EE02EE06EE01EE05EE03EE071E006B
:109940001E041E021E061E011E051E031E079E008B
:109950009E049E029E069E019E059E039E075E003B
:109960005E045E025E065E015E055E035E07DE006B
:10997000DE04DE02DE06DE01DE05DE03DE073E007B
:109980003E043E023E063E013E053E033E07BE004B
:10999000BE04BE02BE06BE01BE05BE03BE077E00FB
:1099A0007E047E027E067E017E057E037E07FE002B
:1099B000FE04FE02FE06FE01FE05FE03FE07010098
:1099C0000000803F00000000ECFF7F3FD40FC93A49
:1099D000B1FF7F3FC70F493B4EFF7F3FC1CB963B57
:1099E000C4FE7F3F890FC93B13FE7F3F3053FB3BD3
:1099F00039FD7F3F59CB163C39FC7F3F02ED2F3CB0
:109A000011FB7F3F900E493CC1F97F3F0030623C23
:109A10004AF87F3F4B517B3CACF67F3F38398A3C5C
:109A2000E6F47F3FB6C9963CF8F27F3F1C5AA33C50
:109A3000E3F07F3F69EAAF3CA7EE7F3F9B7ABC3CF7
:109A400043EC7F3FB00AC93CB8E97F3FA69AD53CBA
:109A500005E77F3F7B2AE23C2BE47F3F2DBAEE3CBB
:109A600029E17F3FB949FB3C00DE7F3F90EC033D9D
:109A7000AFDA7F3F2F340A3D37D77F3FB87B103DA9
:109A800098D37F3F2CC3163DD1CF7F3F880A1D3D21
:109A9000E2CB7F3FCC51233DCCC77F3FF698293D99
:109AA0008FC37F3F07E02F3D2ABF7F3FFC26363D17
:109AB0009EBA7F3FD56D3C3DEAB57F3F91B4423DB4
:109AC0000FB17F3F2FFB483D0DAC7F3FAF414F3D76
:109AD000E3A67F3F0E88553D91A17F3F4CCE5B3D75
:109AE000189C7F3F6814623D78967F3F625A683DBC
:109AF000B1907F3F38A06E3DC28A7F3FE9E5743D5B
:109B0000AB847F3F742B7B3D6D7E7F3F6CB8803D87
:109B100008787F3F0ADB833D7B717F3F94FD863D64
:109B2000C76A7F3F0A208A3DEC637F3F6A428D3DD2
:109B3000E95C7F3FB464903DBF557F3FE786933D2E
:109B40006D4E7F3F05A9963DF4467F3F0ACB993D78
:109B5000543F7F3FF9EC9C3D8D377F3FCF0EA03DBA
:109B60009D2F7F3F8C30A33D87277F3F3052A63DFE
:109B7000491F7F3FBA73A93DE4167F3F2B95AC3D4B
:109B8000580E7F3F80B6AF3DA4057F3FBBD7B23DA7
:109B9000C9FC7E3FDAF8B53DC7F37E3FDD19B93D1C
:109BA0009DEA7E3FC33ABC3D4CE17E3F8D5BBF3DAD
:109BB000D4D77E3F397CC23D34CE7E3FC69CC53D66
:109BC0006DC47E3F36BDC83D7FBA7E3F86DDCB3D4E
:109BD00069B07E3FB7FDCE3D2DA67E3FC81DD23D6C
:109BE000C99B7E3FB93DD53D3D917E3F895DD83DC6
:109BF0008B867E3F377DDB3DB17B7E3FC49CDE3D67
:109C0000B0707E3F2EBCE13D88657E3F76DBE43D53
:109C1000385A7E3F9AFAE73DC14E7E3F9A19EB3D96
:109C200023437E3F7638EE3D5E377E3F2E57F13D33
:109C3000722B7E3FC075F43D5E1F7E3F2C94F73D36
:109C400024137E3F73B2FA3DC2067E3F92D0FD3DA3
:109C500038FA7D3F4577003E88ED7D3F2E06023E77
:109C6000B1E07D3F0295033EB2D37D3FC223053E66
:109C70008CC67D3F6EB2063E40B97D3F0541083E31
:109C8000CCAB7D3F86CF093E309E7D3FF35D0B3EE2
:109C90006E907D3F4AEC0C3E85827D3F8B7A0E3E76
:109CA00074747D3FB708103E3D667D3FCC96113EF3
:109CB000DE577D3FCA24133E59497D3FB2B2143E60
:109CC000AC3A7D3F8340163ED82B7D3F3DCE173EBC
:109CD000DD1C7D3FE05B193EBC0D7D3F6BE91A3E0C
:109CE00073FE7C3FDE761C3E03EF7C3F38041E3E55
:109CF0006CDF7C3F7B911F3EAECF7C3FA51E213E9B
:109D0000C9BF7C3FB6AB223EBDAF7C3FAD38243EE1
:109D10008A9F7C3F8CC5253E318F7C3F5152273E28
:109D2000B07E7C3FFCDE283E086E7C3F8D6B2A3E79
:109D30003A5D7C3F04F82B3E444C7C3F61842D3ED1
:109D4000283B7C3FA2102F3EE5297C3FC99C303E3A
:109D50007A187C3FD428323EE9067C3FC4B4333EB7
:109D600031F57B3F9840353E53E37B3F50CC363E48
:109D70004DD17B3FEC57383E20BF7B3F6CE3393EF3
:109D8000CDAC7B3FCF6E3B3E539A7B3F15FA3C3EBA
:109D9000B2877B3F3E853E3EEA747B3F4910403EA2
:109DA000FC617B3F379B413EE74E7B3F0726433EAE
:109DB000AB3B7B3FB9B0443E48287B3F4D3B463EE2
:109DC000BE147B3FC2C5473E0E017B3F1850493E43
:109DD00037ED7A3F4FDA4A3E3AD97A3F67644C3ED4
:109DE00016C57A3F60EE4D3ECBB07A3F38784F3E95
:109DF000599C7A3FF101513EC1877A3F898B523E8F
:109E000002737A3F0115543E1C5E7A3F589E553EC0
:109E100010497A3F8F27573EDD337A3FA4B0583E32
:109E2000841E7A3F97395A3E04097A3F6AC25B3EE4
:109E30005EF3793F1A4B5D3E91DD793FA8D35E3EDC
:109E40009DC7793F135C603E83B1793F5CE4613E1E
:109E5000439B793F836C633EDC84793F86F4643EA8
:109E60004E6E793F667C663E9A57793F2204683E83
:109E7000C040793FBA8B693EBF29793F2F136B3EB3
:109E80009812793F7F9A6C3E4AFB783FAB216E3E39
:109E9000D6E3783FB2A86F3E3BCC783F942F713E1B
:109EA0007BB4783F51B6723E939C783FE83C743E59
:109EB0008684783F5AC3753E526C783FA649773EF8
:109EC000F853783FCCCF783E773B783FCB557A3EFE
:109ED000D122783FA4DB7B3E040A783F56617D3E69
:109EE00010F1773FE1E67E3EF7D7773F2236803E9E
:109EF000B7BE773FC0F8803E51A5773F4ABB813E51
:109F0000C58B773FC07D823E1372773F2240833EF0
:109F10003A58773F7002843E3C3E773FAAC4843E65
:109F20001724773FCE86853ECC09773FDF48863EB3
:109F30005BEF763FDA0A873EC4D4763FC1CC873EDA
:109F400007BA763F938E883E249F763F5050893ED5
:109F50001B84763FF8118A3EEC68763F8AD38A3EAE
:109F6000974D763F07958B3E1B32763F6E568C3E63
:109F70007A16763FC0178D3EB3FA753FFCD88D3EFA
:109F8000C6DE753F229A8E3EB3C2753F325B8F3E6E
:109F90007BA6753F2C1C903E1C8A753F10DD903EC1
:109FA000976D753FDD9D913EED50753F945E923EFD
:109FB0001D34753F351F933E2717753FBFDF933E16
:109FC0000BFA743F31A0943EC9DC743F8D60953E1E
:109FD00062BF743FD220963ED5A1743F00E1963E09
:109FE0002284743F17A1973E4966743F1661983EDC
:109FF0004B48743FFE20993E272A743FCEE0993E9D
:10A00000DD0B743F86A09A3E6EED733F27609B3E4A
:10A01000D9CE733FAF1F9C3E1FB0733F20DF9C3EE5
:10A020003F91733F789E9D3E3972733FB85D9E3E6F
:10A030000E53733FDF1C9F3EBE33733FEEDB9F3EEC
:10A040004714733FE59AA03EACF4723FC259A13E5B
:10A05000EBD4723F8718A23E04B5723F33D7A23EBD
:10A06000F894723FC595A33EC774723F3F54A43E17
:10A070007054723F9F12A53EF433723FE5D0A53E67
:10A080005213723F128FA63E8CF2713F254DA73EB0
:10A090009FD1713F1F0BA83E8EB0713FFEC8A83EF6
:10A0A000578F713FC486A93EFB6D713F6F44AA3E36
:10A0B0007A4C713F0102AB3ED42A713F77BFAB3E71
:10A0C0000809713FD47CAC3E17E7703F153AAD3EAE
:10A0D00002C5703F3CF7AD3EC6A2703F49B4AE3EEC
:10A0E0006680703F3A71AF3EE15D703F102EB03E2A
:10A0F000373B703FCBEAB03E6718703F6BA7B13E6D
:10A1000073F56F3FEF63B23E5AD26F3F5820B33EB4
:10A110001BAF6F3FA5DCB33EB88B6F3FD698B43E04
:10A1200030686F3FEC54B53E83446F3FE610B63E57
:10A13000B0206F3FC3CCB63EBAFC6E3F8488B73EBA
:10A140009ED86E3F2A44B83E5DB46E3FB2FFB83E23
:10A15000F88F6E3F1EBBB93E6D6B6E3F6E76BA3E9A
:10A16000BE466E3FA031BB3EEB216E3FB6ECBB3E20
:10A17000F2FC6D3FAFA7BC3ED5D76D3F8B62BD3EB5
:10A1800093B26D3F4A1DBE3E2D8D6D3FEBD7BE3E57
:10A19000A1676D3F6F92BF3EF2416D3FD54CC03E0F
:10A1A0001D1C6D3F1E07C13E24F66C3F48C1C13ED9
:10A1B00007D06C3F557BC23EC5A96C3F4435C33EBA
:10A1C0005E836C3F15EFC33ED45C6C3FC8A8C43EB1
:10A1D00024366C3F5C62C53E500F6C3FD21BC63EBE
:10A1E00058E86B3F29D5C63E3BC16B3F628EC73EE8
:10A1F000FB996B3F7C47C83E95726B3F7700C93E29
:10A200000C4B6B3F53B9C93E5E236B3F1072CA3E85
:10A210008CFB6A3FAE2ACB3E95D36A3F2CE3CB3E04
:10A220007BAB6A3F8B9BCC3E3C836A3FCA53CD3E9F
:10A23000D95A6A3FEA0BCE3E52326A3FEAC3CE3E5B
:10A24000A7096A3FCA7BCF3ED7E0693F8A33D03E39
:10A25000E4B7693F2AEBD03ECC8E693FAAA2D13E3B
:10A260009165693F095AD23E323C693F4811D33E5D
:10A27000AE12693F67C8D33E07E9683F647FD43EAA
:10A280003CBF683F4136D53E4C95683FFDECD53E1E
:10A29000396B683F99A3D63E0341683F135AD73EB6
:10A2A000A816683F6B10D83E2AEC673FA3C6D83E7D
:10A2B00087C1673FB97CD93EC196673FAD32DA3E70
:10A2C000D86B673F80E8DA3ECA40673F319EDB3E8D
:10A2D0009915673FC153DC3E45EA663F2E09DD3ED6
:10A2E000CCBE663F79BEDD3E3093663FA273DE3E54
:10A2F0007167663FA928DF3E8E3B663F8DDDDF3EFE
:10A30000880F663F4F92E03E5EE3653FEE46E13EDA
:10A3100010B7653F6AFBE13EA08A653FC4AFE23EED
:10A320000B5E653FFA63E33E5431653F0E18E43E31
:10A330007904653FFECBE43E7BD7643FCB7FE53EAF
:10A3400059AA643F7533E63E147D643FFBE6E63E62
:10A35000AC4F643F5D9AE73E2122643F9C4DE83E4E
:10A3600073F4633FB700E93EA1C6633FAEB3E93E75
:10A37000AC98633F8166EA3E956A633F3019EB3ED5
:10A380005A3C633FBBCBEB3EFC0D633F217EEC3E72
:10A390007BDF623F6330ED3ED7B0623F80E2ED3E4F
:10A3A0001082623F7994EE3E2653623F4C46EF3E68
:10A3B0001A24623FFBF7EF3EEAF4613F85A9F03EC5
:10A3C00098C5613FEA5AF13E2296613F290CF23E60
:10A3D0008A66613F43BDF23ED036613F386EF33E40
:10A3E000F206613F071FF43EF2D6603FB1CFF43E64
:10A3F000CFA6603F3580F53E8976603F9330F63ECC
:10A400002146603FCBE0F63E9615603FDC90F73E7C
:10A41000E9E45F3FC840F83E19B45F3F8EF0F83E74
:10A4200027835F3F2DA0F93E12525F3FA54FFA3EB2
:10A43000DB205F3FF7FEFA3E81EF5E3F22AEFB3E40
:10A4400005BE5E3F275DFC3E678C5E3F040CFD3E13
:10A45000A65A5E3FBBBAFD3EC3285E3F4A69FE3E38
:10A46000BEF65D3FB217FF3E97C45D3FF3C5FF3EAA
:10A470004D925D3F063A003FE15F5D3FFF90003F38
:10A48000532D5D3FE4E7003FA3FA5C3FB53E013F3B
:10A49000D1C75C3F7395013FDD945C3F1CEC013FED
:10A4A000C7615C3FB142023F8E2E5C3F3299023F52
:10A4B00034FB5B3F9FEF023FB8C75B3FF845033F6C
:10A4C0001A945B3F3D9C033F5A605B3F6DF2033F34
:10A4D000792C5B3F8948043F75F85A3F919E043FB1
:10A4E00050C45A3F84F4043F09905A3F624A053FE2
:10A4F000A05B5A3F2CA0053F16275A3FE2F5053FC7
:10A500006AF2593F824B063F9CBD593F0EA1063F60
:10A51000AD88593F86F6063F9C53593FE84B073FAD
:10A520006A1E593F36A1073F17E9583F6FF6073FAC
:10A53000A1B3583F924B083F0B7E583FA1A0083F64
:10A540005348583F9BF5083F7912583F7F4A093FCF
:10A550007FDC573F4E9F093F63A6573F09F4093FF1
:10A560002670573FAD480A3FC739573F3D9D0A3FC8
:10A570004803573FB7F10A3FA7CC563F1C460B3F55
:10A58000E595563F6B9A0B3F025F563FA5EE0B3F9A
:10A59000FE27563FC9420C3FD9F0553FD7960C3F96
:10A5A00093B9553FD0EA0C3F2C82553FB33E0D3F47
:10A5B000A44A553F81920D3FFB12553F38E60D3FAF
:10A5C00031DB543FDA390E3F47A3543F658D0E3FD0
:10A5D0003B6B543FDBE00E3F0F33543F3B340F3FA8
:10A5E000C3FA533F84870F3F55C2533FB8DA0F3F3A
:10A5F000C789533FD52D103F1851533FDC80103F82
:10A600004918533FCDD3103F59DF523FA726113F82
:10A6100049A6523F6B79113F186D523F19CC113F3B
:10A62000C633523FB01E123F54FA513F3071123FB1
:10A63000C2C0513F9AC3123F1087513FEE15133FDE
:10A640003D4D513F2A68133F4A13513F50BA133FC3
:10A6500037D9503F5F0C143F039F503F585E143F63
:10A66000AF64503F39B0143F3B2A503F0402153FBE
:10A67000A8EF4F3FB753153FF4B44F3F54A5153FD4
:10A680001F7A4F3FD9F6153F2B3F4F3F4748163FA4
:10A6900017044F3F9F99163FE4C84E3FDFEA163F2D
:10A6A000908D4E3F073C173F1C524E3F188D173F71
:10A6B00089164E3F12DE173FD5DA4D3FF52E183F73
:10A6C000029F4D3FC07F183F10634D3F73D0183F2E
:10A6D000FD264D3F0F21193FCBEA4C3F9471193FA6
:10A6E00079AE4C3F00C2193F08724C3F55121A3FD9
:10A6F00078354C3F93621A3FC7F84B3FB8B21A3FC8
:10A70000F8BB4B3FC6021B3F097F4B3FBB521B3F71
:10A71000FA414B3F99A21B3FCC044B3F5FF21B3FDA
:10A720007FC74A3F0C421C3F138A4A3FA2911C3FFD
:10A73000874C4A3F1FE11C3FDC0E4A3F84301D3FDF
:10A7400012D1493FD17F1D3F2993493F06CF1D3F7D
:10A750002155493F221E1E3FFA16493F266D1E3FD6
:10A76000B3D8483F12BC1E3F4E9A483FE50A1F3FF0
:10A77000CA5B483F9F591F3F271D483F41A81F3FC5
:10A7800065DE473FCBF61F3F849F473F3B45203F59
:10A790008560473F9393203F6721473FD2E1203FA9
:10A7A0002AE2463FF92F213FCEA2463F067E213FB7
:10A7B0005463463FFBCB213FBB23463FD719223F83
:10A7C00003E4453F9967223F2DA4453F43B5223F0F
:10A7D0003964453FD302233F2624453F4B50233F56
:10A7E000F5E3443FA99D233FA5A3443FEEEA233F61
:10A7F0003763443F1A38243FAB22443F2C85243F23
:10A8000000E2433F25D2243F38A1433F041F253FA8
:10A810005160433FCB6B253F4C1F433F77B8253FEB
:10A8200029DE423F0A05263FE89C423F8451263FED
:10A83000895B423FE39D263F0B1A423F2AEA263FAF
:10A8400070D8413F5636273FB796413F6882273F31
:10A85000E154413F61CE273FEC12413F401A283F6F
:10A86000DAD0403F0566283FA98E403FB0B1283F6F
:10A870005C4C403F41FD283FF009403FB848293F2C
:10A8800067C73F3F1594293FC0843F3F57DF293FAB
:10A89000FC413F3F802A2A3F1BFF3E3F8E752A3FE7
:10A8A0001BBC3E3F82C02A3FFF783E3F5B0B2B3FE5
:10A8B000C5353E3F1B562B3F6EF23D3FBFA02B3FA1
:10A8C000F9AE3D3F4AEB2B3F676B3D3FB9352C3F1F
:10A8D000B8273D3F0F802C3FECE33C3F49CA2C3F5B
:10A8E00003A03C3F69142D3FFC5B3C3F6F5E2D3F56
:10A8F000D9173C3F59A82D3F98D33B3F29F22D3F14
:10A900003B8F3B3FDE3B2E3FC14A3B3F78852E3F8E
:10A9100029063B3FF7CE2E3F75C13A3F5B182F3FCC
:10A92000A47C3A3FA5612F3FB7373A3FD3AA2F3FC8
:10A93000ACF2393FE6F32F3F85AD393FDE3C303F87
:10A940004268393FBB85303FE122393F7CCE303F02
:10A9500065DD383F2217313FCB97383FAD5F313F40
:10A960001652383F1DA8313F430C383F71F0313F3C
:10A9700055C6373FAA38323F4A80373FC780323FFB
:10A98000233A373FC9C8323FDFF3363FAF10333F7A
:10A990007FAD363F7A58333F0467363F29A0333FB7
:10A9A0006C20363FBCE7333FB8D9353F342F343FB6
:10A9B000E792353F8F76343FFB4B353FCFBD343F79
:10A9C000F304353FF304353FCFBD343FFB4B353FF8
:10A9D0008F76343FE792353F342F343FB8D9353F37
:10A9E000BCE7333F6C20363F29A0333F0467363F36
:10A9F0007A58333F7FAD363FAF10333FDFF3363FFA
:10AA0000C9C8323F233A373FC780323F4A80373F79
:10AA1000AA38323F55C6373F71F0313F430C383FBB
:10AA20001DA8313F1652383FAD5F313FCB97383FBD
:10AA30002217313F65DD383F7CCE303FE122393F80
:10AA4000BB85303F4268393FDE3C303F85AD393F02
:10AA5000E6F32F3FACF2393FD3AA2F3FB7373A3F47
:10AA6000A5612F3FA47C3A3F5B182F3F75C13A3F49
:10AA7000F7CE2E3F29063B3F78852E3FC14A3B3F0C
:10AA8000DE3B2E3F3B8F3B3F29F22D3F98D33B3F90
:10AA900059A82D3FD9173C3F6F5E2D3FFC5B3C3FD3
:10AAA00069142D3F03A03C3F49CA2C3FECE33C3FD7
:10AAB0000F802C3FB8273D3FB9352C3F676B3D3F9A
:10AAC0004AEB2B3FF9AE3D3FBFA02B3F6EF23D3F1F
:10AAD0001B562B3FC5353E3F5B0B2B3FFF783E3F60
:10AAE00082C02A3F1BBC3E3F8E752A3F1BFF3E3F64
:10AAF000802A2A3FFC413F3F57DF293FC0843F3F28
:10AB00001594293F67C73F3FB848293FF009403FA8
:10AB100041FD283F5C4C403FB0B1283FA98E403FEB
:10AB20000566283FDAD0403F401A283FEC12413FEB
:10AB300061CE273FE154413F6882273FB796413FAE
:10AB40005636273F70D8413F2AEA263F0B1A423F2C
:10AB5000E39D263F895B423F8451263FE89C423F6C
:10AB60000A05263F29DE423F77B8253F4C1F433F69
:10AB7000CB6B253F5160433F041F253F38A1433F26
:10AB800025D2243F00E2433F2C85243FAB22443FA3
:10AB90001A38243F3763443FEEEA233FA5A3443FDE
:10ABA000A99D233FF5E3443F4B50233F2624453FD7
:10ABB000D302233F3964453F43B5223F2DA4453F8F
:10ABC0009967223F03E4453FD719223FBB23463F05
:10ABD000FBCB213F5463463F067E213FCEA2463F3A
:10ABE000F92F213F2AE2463FD2E1203F6721473F2C
:10ABF0009393203F8560473F3B45203F849F473FDD
:10AC0000CBF61F3F65DE473F41A81F3F271D483F4A
:10AC10009F591F3FCA5B483FE50A1F3F4E9A483F76
:10AC200012BC1E3FB3D8483F266D1E3FFA16493F5F
:10AC3000221E1E3F2155493F06CF1D3F2993493F04
:10AC4000D17F1D3F12D1493F84301D3FDC0E4A3F6A
:10AC50001FE11C3F874C4A3FA2911C3F138A4A3F89
:10AC60000C421C3F7FC74A3F5FF21B3FCC044B3F67
:10AC700099A21B3FFA414B3FBB521B3F097F4B3F01
:10AC8000C6021B3FF8BB4B3FB8B21A3FC7F84B3F59
:10AC900093621A3F78354C3F55121A3F08724C3F69
:10ACA00000C2193F79AE4C3F9471193FCBEA4C3F3B
:10ACB0000F21193FFD264D3F73D0183F10634D3FC4
:10ACC000C07F183F029F4D3FF52E183FD5DA4D3F0C
:10ACD00012DE173F89164E3F188D173F1C524E3F0C
:10ACE000073C173F908D4E3FDFEA163FE4C84E3FCA
:10ACF0009F99163F17044F3F4748163F2B3F4F3F42
:10AD0000D9F6153F1F7A4F3F54A5153FF4B44F3F76
:10AD1000B753153FA8EF4F3F0402153F3B2A503F62
:10AD200039B0143FAF64503F585E143F039F503F0B
:10AD30005F0C143F37D9503F50BA133F4A13513F6D
:10AD40002A68133F3D4D513FEE15133F1087513F89
:10AD50009AC3123FC2C0513F3071123F54FA513F63
:10AD6000B01E123FC633523F19CC113F186D523FEF
:10AD70006B79113F49A6523FA726113F59DF523F39
:10AD8000CDD3103F4918533FDC80103F1851533F3B
:10AD9000D52D103FC789533FB8DA0F3F55C2533FF7
:10ADA00084870F3FC3FA533F3B340F3F0F33543F69
:10ADB000DBE00E3F3B6B543F658D0E3F47A3543F96
:10ADC000DA390E3F31DB543F38E60D3FFB12553F79
:10ADD00081920D3FA44A553FB33E0D3F2C82553F13
:10ADE000D0EA0C3F93B9553FD7960C3FD9F0553F69
:10ADF000C9420C3FFE27563FA5EE0B3F025F563F70
:10AE00006B9A0B3FE595563F1C460B3FA7CC563F30
:10AE1000B7F10A3F4803573F3D9D0A3FC739573FA7
:10AE2000AD480A3F2670573F09F4093F63A6573FD4
:10AE30004E9F093F7FDC573F7F4A093F7912583FB9
:10AE40009BF5083F5348583FA1A0083F0B7E583F51
:10AE5000924B083FA1B3583F6FF6073F17E9583FA1
:10AE600036A1073F6A1E593FE84B073F9C53593FA5
:10AE700086F6063FAD88593F0EA1063F9CBD593F5F
:10AE8000824B063F6AF2593FE2F5053F16275A3FCB
:10AE90002CA0053FA05B5A3F624A053F09905A3FEC
:10AEA00084F4043F50C45A3F919E043F75F85A3FC2
:10AEB0008948043F792C5B3F6DF2033F5A605B3F4A
:10AEC0003D9C033F1A945B3FF845033FB8C75B3F87
:10AED0009FEF023F34FB5B3F3299023F8E2E5C3F77
:10AEE000B142023FC7615C3F1CEC013FDD945C3F17
:10AEF0007395013FD1C75C3FB53E013FA3FA5C3F6C
:10AF0000E4E7003F532D5D3FFF90003FE15F5D3F71
:10AF1000063A003F4D925D3FF3C5FF3E97C45D3F4B
:10AF2000B217FF3EBEF65D3F4A69FE3EC3285E3F54
:10AF3000BBBAFD3EA65A5E3F040CFD3E678C5E3FE9
:10AF4000275DFC3E05BE5E3F22AEFB3E81EF5E3FCD
:10AF5000F7FEFA3EDB205F3FA54FFA3E12525F3FFD
:10AF60002DA0F93E27835F3F8EF0F83E19B45F3F76
:10AF7000C840F83EE9E45F3FDC90F73E9615603F3D
:10AF8000CBE0F63E2146603F9330F63E8976603F47
:10AF90003580F53ECFA6603FB1CFF43EF2D6603F9C
:10AFA000071FF43EF206613F386EF33ED036613F34
:10AFB00043BDF23E8A66613F290CF23E2296613F14
:10AFC000EA5AF13E98C5613F85A9F03EEAF4613F37
:10AFD000FBF7EF3E1A24623F4C46EF3E2653623F9A
:10AFE0007994EE3E1082623F80E2ED3ED7B0623F40
:10AFF0006330ED3E7BDF623F217EEC3EFC0D633F24
:10B00000BBCBEB3E5A3C633F3019EB3E956A633F46
:10B010008166EA3EAC98633FAEB3E93EA1C6633FAA
:10B02000B700E93E73F4633F9C4DE83E2122643F44
:10B030005D9AE73EAC4F643FFBE6E63E147D643F1D
:10B040007533E63E59AA643FCB7FE53E7BD7643F2C
:10B05000FECBE43E7904653F0E18E43E5431653F73
:10B06000FA63E33E0B5E653FC4AFE23EA08A653FF4
:10B070006AFBE13E10B7653FEE46E13E5EE3653FA9
:10B080004F92E03E880F663F8DDDDF3E8E3B663F90
:10B09000A928DF3E7167663FA273DE3E3093663FAC
:10B0A00079BEDD3ECCBE663F2E09DD3E45EA663FF9
:10B0B000C153DC3E9915673F319EDB3ECA40673F76
:10B0C00080E8DA3ED86B673FAD32DA3EC196673F23
:10B0D000B97CD93E87C1673FA3C6D83E2AEC673FFB
:10B0E0006B10D83EA816683F135AD73E0341683FFD
:10B0F00099A3D63E396B683FFDECD53E4C95683F31
:10B100004136D53E3CBF683F647FD43E07E9683F87
:10B1100067C8D33EAE12693F4811D33E323C693F07
:10B12000095AD23E9165693FAAA2D13ECC8E693FB1
:10B130002AEBD03EE4B7693F8A33D03ED7E0693F7F
:10B14000CA7BCF3EA7096A3FEAC3CE3E52326A3F6E
:10B15000EA0BCE3ED95A6A3FCA53CD3E3C836A3F82
:10B160008B9BCC3E7BAB6A3F2CE3CB3E95D36A3FB7
:10B17000AE2ACB3E8CFB6A3F1072CA3E5E236B3F09
:10B1800053B9C93E0C4B6B3F7700C93E95726B3F7C
:10B190007C47C83EFB996B3F628EC73E3BC16B3F0D
:10B1A00029D5C63E58E86B3FD21BC63E500F6C3FB8
:10B1B0005C62C53E24366C3FC8A8C43ED45C6C3F7C
:10B1C00015EFC33E5E836C3F4435C33EC5A96C3F5B
:10B1D000557BC23E07D06C3F48C1C13E24F66C3F50
:10B1E0001E07C13E1D1C6D3FD54CC03EF2416D3F58
:10B1F0006F92BF3EA1676D3FEBD7BE3E2D8D6D3F79
:10B200004A1DBE3E93B26D3F8B62BD3ED5D76D3FAA
:10B21000AFA7BC3EF2FC6D3FB6ECBB3EEB216E3FF0
:10B22000A031BB3EBE466E3F6E76BA3E6D6B6E3F42
:10B230001EBBB93EF88F6E3FB2FFB83E5DB46E3FA5
:10B240002A44B83E9ED86E3F8488B73EBAFC6E3F13
:10B25000C3CCB63EB0206F3FE610B63E83446F3F8E
:10B26000EC54B53E30686F3FD698B43EB88B6F3F14
:10B27000A5DCB33E1BAF6F3F5820B33E5AD26F3FA1
:10B28000EF63B23E73F56F3F6BA7B13E6718703F37
:10B29000CBEAB03E373B703F102EB03EE15D703FD1
:10B2A0003A71AF3E6680703F49B4AE3EC6A2703F71
:10B2B0003CF7AD3E02C5703F153AAD3E17E7703F13
:10B2C000D47CAC3E0809713F77BFAB3ED42A713FB6
:10B2D0000102AB3E7A4C713F6F44AA3EFB6D713F59
:10B2E000C486A93E578F713FFEC8A83E8EB0713FFD
:10B2F0001F0BA83E9FD1713F254DA73E8CF2713F99
:10B30000128FA63E5213723FE5D0A53EF433723F32
:10B310009F12A53E7054723F3F54A43EC774723FC3
:10B32000C595A33EF894723F33D7A23E04B5723F51
:10B330008718A23EEBD4723FC259A13EACF4723FD3
:10B34000E59AA03E4714733FEEDB9F3EBE33733F4A
:10B35000DF1C9F3E0E53733FB85D9E3E3972733FB4
:10B36000789E9D3E3F91733F20DF9C3E1FB0733F10
:10B37000AF1F9C3ED9CE733F27609B3E6EED733F5F
:10B3800086A09A3EDD0B743FCEE0993E272A743F9B
:10B39000FE20993E4B48743F1661983E4966743FC3
:10B3A00017A1973E2284743F00E1963ED5A1743FD9
:10B3B000D220963E62BF743F8D60953EC9DC743FDB
:10B3C00031A0943E0BFA743FBFDF933E2717753FC1
:10B3D000351F933E1D34753F945E923EED50753F90
:10B3E000DD9D913E976D753F10DD903E1C8A753F47
:10B3F0002C1C903E7BA6753F325B8F3EB3C2753FDF
:10B40000229A8E3EC6DE753FFCD88D3EB3FA753F5C
:10B41000C0178D3E7A16763F6E568C3E1B32763FB5
:10B4200007958B3E974D763F8AD38A3EEC68763FF0
:10B43000F8118A3E1B84763F5050893E249F763F08
:10B44000938E883E07BA763FC1CC873EC4D4763F00
:10B45000DA0A873E5BEF763FDF48863ECC09773FCE
:10B46000CE86853E1724773FAAC4843E3C3E773F74
:10B470007002843E3A58773F2240833E1372773FF2
:10B48000C07D823EC58B773F4ABB813E51A5773F49
:10B49000C0F8803EB7BE773F2236803EF7D7773F71
:10B4A000E1E67E3E10F1773F56617D3E040A783F2B
:10B4B000A4DB7B3ED122783FCB557A3E773B783F69
:10B4C000CCCF783EF853783FA649773E526C783F10
:10B4D0005AC3753E8684783FE83C743E939C783F1F
:10B4E00051B6723E7BB4783F942F713E3BCC783F8F
:10B4F000B2A86F3ED6E3783FAB216E3E4AFB783F61
:10B500007F9A6C3E9812793F2F136B3EBF29793F8B
:10B51000BA8B693EC040793F2204683E9A57793F12
:10B52000667C663E4E6E793F86F4643EDC84793FED
:10B53000836C633E439B793F5CE4613E83B1793F1A
:10B54000135C603E9DC7793FA8D35E3E91DD793F95
:10B550001A4B5D3E5EF3793F6AC25B3E04097A3F57
:10B5600097395A3E841E7A3FA4B0583EDD337A3F65
:10B570008F27573E10497A3F589E553E1C5E7A3FB2
:10B580000115543E02737A3F898B523EC1877A3F40
:10B59000F101513E599C7A3F38784F3ECBB07A3F0B
:10B5A00060EE4D3E16C57A3F67644C3E3AD97A3F0D
:10B5B0004FDA4A3E37ED7A3F1850493E0E017B3F45
:10B5C000C2C5473EBE147B3F4D3B463E48287B3FAD
:10B5D000B9B0443EAB3B7B3F0726433EE74E7B3F43
:10B5E000379B413EFC617B3F4910403EEA747B3F04
:10B5F0003E853E3EB2877B3F15FA3C3E539A7B3FE9
:10B60000CF6E3B3ECDAC7B3F6CE3393E20BF7B3FF2
:10B61000EC57383E4DD17B3F50CC363E53E37B3F19
:10B620009840353E31F57B3FC4B4333EE9067C3F5C
:10B63000D428323E7A187C3FC99C303EE5297C3FB5
:10B64000A2102F3E283B7C3F61842D3E444C7C3F22
:10B6500004F82B3E3A5D7C3F8D6B2A3E086E7C3FA2
:10B66000FCDE283EB07E7C3F5152273E318F7C3F2E
:10B670008CC5253E8A9F7C3FAD38243EBDAF7C3FC4
:10B68000B6AB223EC9BF7C3FA51E213EAECF7C3F5C
:10B690007B911F3E6CDF7C3F38041E3E03EF7C3FF6
:10B6A000DE761C3E73FE7C3F6BE91A3EBC0D7D3F8F
:10B6B000E05B193EDD1C7D3F3DCE173ED82B7D3F24
:10B6C0008340163EAC3A7D3FB2B2143E59497D3FAD
:10B6D000CA24133EDE577D3FCC96113E3D667D3F2A
:10B6E000B708103E74747D3F8B7A0E3E85827D3F95
:10B6F0004AEC0C3E6E907D3FF35D0B3E309E7D3FED
:10B7000086CF093ECCAB7D3F0541083E40B97D3F29
:10B710006EB2063E8CC67D3FC223053EB2D37D3F4E
:10B720000295033EB1E07D3F2E06023E88ED7D3F4F
:10B730004577003E38FA7D3F92D0FD3DC2067E3F00
:10B7400073B2FA3D24137E3F2C94F73D5E1F7E3F7B
:10B75000C075F43D722B7E3F2E57F13D5E377E3F24
:10B760007638EE3D23437E3F9A19EB3DC14E7E3F36
:10B770009AFAE73D385A7E3F76DBE43D88657E3FA6
:10B780002EBCE13DB0707E3FC49CDE3DB17B7E3F70
:10B79000377DDB3D8B867E3F895DD83D3D917E3F89
:10B7A000B93DD53DC99B7E3FC81DD23D2DA67E3FEC
:10B7B000B7FDCE3D69B07E3F86DDCB3D7FBA7E3F93
:10B7C00036BDC83D6DC47E3FC69CC53D34CE7E3F70
:10B7D000397CC23DD4D77E3F8D5BBF3D4CE17E3F7F
:10B7E000C33ABC3D9DEA7E3FDD19B93DC7F37E3FBC
:10B7F000DAF8B53DC9FC7E3FBBD7B23DA4057F3F1B
:10B8000080B6AF3D580E7F3F2B95AC3DE4167F3F91
:10B81000BA73A93D491F7F3F3052A63D87277F3F1E
:10B820008C30A33D9D2F7F3FCF0EA03D8D377F3FB6
:10B83000F9EC9C3D543F7F3F0ACB993DF4467F3F56
:10B8400005A9963D6D4E7F3FE786933DBF557F3FEF
:10B85000B464903DE95C7F3F6A428D3DEC637F3F7D
:10B860000A208A3DC76A7F3F94FD863D7B717F3FFA
:10B870000ADB833D08787F3F6CB8803D6D7E7F3F5B
:10B88000742B7B3DAB847F3FE9E5743DC28A7F3FEB
:10B8900038A06E3DB1907F3F625A683D78967F3FF9
:10B8A0006814623D189C7F3F4CCE5B3D91A17F3F69
:10B8B0000E88553DE3A67F3FAF414F3D0DAC7F3F26
:10B8C0002FFB483D0FB17F3F91B4423DEAB57F3F2A
:10B8D000D56D3C3D9EBA7F3FFC26363D2ABF7F3F5B
:10B8E00007E02F3D8FC37F3FF698293DCCC77F3FB0
:10B8F000CC51233DE2CB7F3F880A1D3DD1CF7F3F16
:10B900002CC3163D98D37F3FB87B103D37D77F3F80
:10B910002F340A3DAFDA7F3F90EC033D00DE7F3FDE
:10B92000B949FB3C29E17F3F2DBAEE3C2BE47F3F38
:10B930007B2AE23C05E77F3FA69AD53CB8E97F3FEA
:10B94000B00AC93C43EC7F3F9B7ABC3CA7EE7F3FEB
:10B9500069EAAF3CE3F07F3F1C5AA33CF8F27F3F1B
:10B96000B6C9963CE6F47F3F38398A3CACF67F3F57
:10B970004B517B3C4AF87F3F0030623CC1F97F3F2E
:10B98000900E493C11FB7F3F02ED2F3C39FC7F3F7D
:10B9900059CB163C39FD7F3F3053FB3B13FE7F3FB5
:10B9A000890FC93BC4FE7F3FC1CB963B4EFF7F3F13
:10B9B000C70F493BB1FF7F3FD40FC93AECFF7F3F30
:10B9C000000000000000803FD40FC9BAECFF7F3FA9
:10B9D000C70F49BBB1FF7F3FC1CB96BB4EFF7F3F37
:10B9E000890FC9BBC4FE7F3F3053FBBB13FE7F3FB3
:10B9F00059CB16BC39FD7F3F02ED2FBC39FC7F3F90
:10BA0000900E49BC11FB7F3F003062BCC1F97F3F03
:10BA10004B517BBC4AF87F3F38398ABCACF67F3F3C
:10BA2000B6C996BCE6F47F3F1C5AA3BCF8F27F3F30
:10BA300069EAAFBCE3F07F3F9B7ABCBCA7EE7F3FD7
:10BA4000B00AC9BC43EC7F3FA69AD5BCB8E97F3F9A
:10BA50007B2AE2BC05E77F3F2DBAEEBC2BE47F3F9B
:10BA6000B949FBBC29E17F3F90EC03BD00DE7F3F7D
:10BA70002F340ABDAFDA7F3FB87B10BD37D77F3F89
:10BA80002CC316BD98D37F3F880A1DBDD1CF7F3F01
:10BA9000CC5123BDE2CB7F3FF69829BDCCC77F3F79
:10BAA00007E02FBD8FC37F3FFC2636BD2ABF7F3FF7
:10BAB000D56D3CBD9EBA7F3F91B442BDEAB57F3F94
:10BAC0002FFB48BD0FB17F3FAF414FBD0DAC7F3F56
:10BAD0000E8855BDE3A67F3F4CCE5BBD91A17F3F55
:10BAE000681462BD189C7F3F625A68BD78967F3F9C
:10BAF00038A06EBDB1907F3FE9E574BDC28A7F3F3B
:10BB0000742B7BBDAB847F3F6CB880BD6D7E7F3F67
:10BB10000ADB83BD08787F3F94FD86BD7B717F3F44
:10BB20000A208ABDC76A7F3F6A428DBDEC637F3FB2
:10BB3000B46490BDE95C7F3FE78693BDBF557F3F0E
:10BB400005A996BD6D4E7F3F0ACB99BDF4467F3F58
:10BB5000F9EC9CBD543F7F3FCF0EA0BD8D377F3F9A
:10BB60008C30A3BD9D2F7F3F3052A6BD87277F3FDE
:10BB7000BA73A9BD491F7F3F2B95ACBDE4167F3F2B
:10BB800080B6AFBD580E7F3FBBD7B2BDA4057F3F87
:10BB9000DAF8B5BDC9FC7E3FDD19B9BDC7F37E3FFC
:10BBA000C33ABCBD9DEA7E3F8D5BBFBD4CE17E3F8D
:10BBB000397CC2BDD4D77E3FC69CC5BD34CE7E3F46
:10BBC00036BDC8BD6DC47E3F86DDCBBD7FBA7E3F2E
:10BBD000B7FDCEBD69B07E3FC81DD2BD2DA67E3F4C
:10BBE000B93DD5BDC99B7E3F895DD8BD3D917E3FA6
:10BBF000377DDBBD8B867E3FC49CDEBDB17B7E3F47
:10BC00002EBCE1BDB0707E3F76DBE4BD88657E3F33
:10BC10009AFAE7BD385A7E3F9A19EBBDC14E7E3F76
:10BC20007638EEBD23437E3F2E57F1BD5E377E3F13
:10BC3000C075F4BD722B7E3F2C94F7BD5E1F7E3F16
:10BC400073B2FABD24137E3F92D0FDBDC2067E3F83
:10BC5000457700BE38FA7D3F2E0602BE88ED7D3F57
:10BC6000029503BEB1E07D3FC22305BEB2D37D3F46
:10BC70006EB206BE8CC67D3F054108BE40B97D3F11
:10BC800086CF09BECCAB7D3FF35D0BBE309E7D3FC2
:10BC90004AEC0CBE6E907D3F8B7A0EBE85827D3F56
:10BCA000B70810BE74747D3FCC9611BE3D667D3FD3
:10BCB000CA2413BEDE577D3FB2B214BE59497D3F40
:10BCC000834016BEAC3A7D3F3DCE17BED82B7D3F9C
:10BCD000E05B19BEDD1C7D3F6BE91ABEBC0D7D3FEC
:10BCE000DE761CBE73FE7C3F38041EBE03EF7C3F35
:10BCF0007B911FBE6CDF7C3FA51E21BEAECF7C3F7B
:10BD0000B6AB22BEC9BF7C3FAD3824BEBDAF7C3FC1
:10BD10008CC525BE8A9F7C3F515227BE318F7C3F08
:10BD2000FCDE28BEB07E7C3F8D6B2ABE086E7C3F59
:10BD300004F82BBE3A5D7C3F61842DBE444C7C3FB1
:10BD4000A2102FBE283B7C3FC99C30BEE5297C3F1A
:10BD5000D42832BE7A187C3FC4B433BEE9067C3F97
:10BD6000984035BE31F57B3F50CC36BE53E37B3F28
:10BD7000EC5738BE4DD17B3F6CE339BE20BF7B3FD3
:10BD8000CF6E3BBECDAC7B3F15FA3CBE539A7B3F9A
:10BD90003E853EBEB2877B3F491040BEEA747B3F82
:10BDA000379B41BEFC617B3F072643BEE74E7B3F8E
:10BDB000B9B044BEAB3B7B3F4D3B46BE48287B3FC2
:10BDC000C2C547BEBE147B3F185049BE0E017B3F23
:10BDD0004FDA4ABE37ED7A3F67644CBE3AD97A3FB4
:10BDE00060EE4DBE16C57A3F38784FBECBB07A3F75
:10BDF000F10151BE599C7A3F898B52BEC1877A3F6F
:10BE0000011554BE02737A3F589E55BE1C5E7A3FA0
:10BE10008F2757BE10497A3FA4B058BEDD337A3F12
:10BE200097395ABE841E7A3F6AC25BBE04097A3FC4
:10BE30001A4B5DBE5EF3793FA8D35EBE91DD793FBC
:10BE4000135C60BE9DC7793F5CE461BE83B1793FFE
:10BE5000836C63BE439B793F86F464BEDC84793F88
:10BE6000667C66BE4E6E793F220468BE9A57793F63
:10BE7000BA8B69BEC040793F2F136BBEBF29793F93
:10BE80007F9A6CBE9812793FAB216EBE4AFB783F19
:10BE9000B2A86FBED6E3783F942F71BE3BCC783FFB
:10BEA00051B672BE7BB4783FE83C74BE939C783F39
:10BEB0005AC375BE8684783FA64977BE526C783FD8
:10BEC000CCCF78BEF853783FCB557ABE773B783FDE
:10BED000A4DB7BBED122783F56617DBE040A783F49
:10BEE000E1E67EBE10F1773F223680BEF7D7773F7E
:10BEF000C0F880BEB7BE773F4ABB81BE51A5773F31
:10BF0000C07D82BEC58B773F224083BE1372773FD0
:10BF1000700284BE3A58773FAAC484BE3C3E773F45
:10BF2000CE8685BE1724773FDF4886BECC09773F93
:10BF3000DA0A87BE5BEF763FC1CC87BEC4D4763FBA
:10BF4000938E88BE07BA763F505089BE249F763FB5
:10BF5000F8118ABE1B84763F8AD38ABEEC68763F8E
:10BF600007958BBE974D763F6E568CBE1B32763F43
:10BF7000C0178DBE7A16763FFCD88DBEB3FA753FDA
:10BF8000229A8EBEC6DE753F325B8FBEB3C2753F4E
:10BF90002C1C90BE7BA6753F10DD90BE1C8A753FA1
:10BFA000DD9D91BE976D753F945E92BEED50753FDD
:10BFB000351F93BE1D34753FBFDF93BE2717753FF6
:10BFC00031A094BE0BFA743F8D6095BEC9DC743FFE
:10BFD000D22096BE62BF743F00E196BED5A1743FE9
:10BFE00017A197BE2284743F166198BE4966743FBC
:10BFF000FE2099BE4B48743FCEE099BE272A743F7D
:10C0000086A09ABEDD0B743F27609BBE6EED733F2A
:10C01000AF1F9CBED9CE733F20DF9CBE1FB0733FC5
:10C02000789E9DBE3F91733FB85D9EBE3972733F4F
:10C03000DF1C9FBE0E53733FEEDB9FBEBE33733FCC
:10C04000E59AA0BE4714733FC259A1BEACF4723F3B
:10C050008718A2BEEBD4723F33D7A2BE04B5723F9D
:10C06000C595A3BEF894723F3F54A4BEC774723FF7
:10C070009F12A5BE7054723FE5D0A5BEF433723F47
:10C08000128FA6BE5213723F254DA7BE8CF2713F90
:10C090001F0BA8BE9FD1713FFEC8A8BE8EB0713FD6
:10C0A000C486A9BE578F713F6F44AABEFB6D713F16
:10C0B0000102ABBE7A4C713F77BFABBED42A713F51
:10C0C000D47CACBE0809713F153AADBE17E7703F8E
:10C0D0003CF7ADBE02C5703F49B4AEBEC6A2703FCC
:10C0E0003A71AFBE6680703F102EB0BEE15D703F0A
:10C0F000CBEAB0BE373B703F6BA7B1BE6718703F4D
:10C10000EF63B2BE73F56F3F5820B3BE5AD26F3F94
:10C11000A5DCB3BE1BAF6F3FD698B4BEB88B6F3FE4
:10C12000EC54B5BE30686F3FE610B6BE83446F3F37
:10C13000C3CCB6BEB0206F3F8488B7BEBAFC6E3F9A
:10C140002A44B8BE9ED86E3FB2FFB8BE5DB46E3F03
:10C150001EBBB9BEF88F6E3F6E76BABE6D6B6E3F7A
:10C16000A031BBBEBE466E3FB6ECBBBEEB216E3F00
:10C17000AFA7BCBEF2FC6D3F8B62BDBED5D76D3F95
:10C180004A1DBEBE93B26D3FEBD7BEBE2D8D6D3F37
:10C190006F92BFBEA1676D3FD54CC0BEF2416D3FEF
:10C1A0001E07C1BE1D1C6D3F48C1C1BE24F66C3FB9
:10C1B000557BC2BE07D06C3F4435C3BEC5A96C3F9A
:10C1C00015EFC3BE5E836C3FC8A8C4BED45C6C3F91
:10C1D0005C62C5BE24366C3FD21BC6BE500F6C3F9E
:10C1E00029D5C6BE58E86B3F628EC7BE3BC16B3FC8
:10C1F0007C47C8BEFB996B3F7700C9BE95726B3F09
:10C2000053B9C9BE0C4B6B3F1072CABE5E236B3F65
:10C21000AE2ACBBE8CFB6A3F2CE3CBBE95D36A3FE4
:10C220008B9BCCBE7BAB6A3FCA53CDBE3C836A3F7F
:10C23000EA0BCEBED95A6A3FEAC3CEBE52326A3F3B
:10C24000CA7BCFBEA7096A3F8A33D0BED7E0693F19
:10C250002AEBD0BEE4B7693FAAA2D1BECC8E693F1B
:10C26000095AD2BE9165693F4811D3BE323C693F3D
:10C2700067C8D3BEAE12693F647FD4BE07E9683F8A
:10C280004136D5BE3CBF683FFDECD5BE4C95683FFE
:10C2900099A3D6BE396B683F135AD7BE0341683F96
:10C2A0006B10D8BEA816683FA3C6D8BE2AEC673F5D
:10C2B000B97CD9BE87C1673FAD32DABEC196673F50
:10C2C00080E8DABED86B673F319EDBBECA40673F6D
:10C2D000C153DCBE9915673F2E09DDBE45EA663FB6
:10C2E00079BEDDBECCBE663FA273DEBE3093663F34
:10C2F000A928DFBE7167663F8DDDDFBE8E3B663FDE
:10C300004F92E0BE880F663FEE46E1BE5EE3653FBA
:10C310006AFBE1BE10B7653FC4AFE2BEA08A653FCD
:10C32000FA63E3BE0B5E653F0E18E4BE5431653F11
:10C33000FECBE4BE7904653FCB7FE5BE7BD7643F8F
:10C340007533E6BE59AA643FFBE6E6BE147D643F42
:10C350005D9AE7BEAC4F643F9C4DE8BE2122643F2E
:10C36000B700E9BE73F4633FAEB3E9BEA1C6633F55
:10C370008166EABEAC98633F3019EBBE956A633FB5
:10C38000BBCBEBBE5A3C633F217EECBEFC0D633F52
:10C390006330EDBE7BDF623F80E2EDBED7B0623F2F
:10C3A0007994EEBE1082623F4C46EFBE2653623F48
:10C3B000FBF7EFBE1A24623F85A9F0BEEAF4613FA5
:10C3C000EA5AF1BE98C5613F290CF2BE2296613F40
:10C3D00043BDF2BE8A66613F386EF3BED036613F20
:10C3E000071FF4BEF206613FB1CFF4BEF2D6603F44
:10C3F0003580F5BECFA6603F9330F6BE8976603FAC
:10C40000CBE0F6BE2146603FDC90F7BE9615603F5C
:10C41000C840F8BEE9E45F3F8EF0F8BE19B45F3F54
:10C420002DA0F9BE27835F3FA54FFABE12525F3F92
:10C43000F7FEFABEDB205F3F22AEFBBE81EF5E3F20
:10C44000275DFCBE05BE5E3F040CFDBE678C5E3FF3
:10C45000BBBAFDBEA65A5E3F4A69FEBEC3285E3F18
:10C46000B217FFBEBEF65D3FF3C5FFBE97C45D3F8A
:10C47000063A00BF4D925D3FFF9000BFE15F5D3F18
:10C48000E4E700BF532D5D3FB53E01BFA3FA5C3F1B
:10C49000739501BFD1C75C3F1CEC01BFDD945C3FCD
:10C4A000B14202BFC7615C3F329902BF8E2E5C3F32
:10C4B0009FEF02BF34FB5B3FF84503BFB8C75B3F4C
:10C4C0003D9C03BF1A945B3F6DF203BF5A605B3F14
:10C4D000894804BF792C5B3F919E04BF75F85A3F91
:10C4E00084F404BF50C45A3F624A05BF09905A3FC2
:10C4F0002CA005BFA05B5A3FE2F505BF16275A3FA7
:10C50000824B06BF6AF2593F0EA106BF9CBD593F40
:10C5100086F606BFAD88593FE84B07BF9C53593F8D
:10C5200036A107BF6A1E593F6FF607BF17E9583F8C
:10C53000924B08BFA1B3583FA1A008BF0B7E583F44
:10C540009BF508BF5348583F7F4A09BF7912583FAF
:10C550004E9F09BF7FDC573F09F409BF63A6573FD1
:10C56000AD480ABF2670573F3D9D0ABFC739573FA8
:10C57000B7F10ABF4803573F1C460BBFA7CC563F35
:10C580006B9A0BBFE595563FA5EE0BBF025F563F7A
:10C59000C9420CBFFE27563FD7960CBFD9F0553F76
:10C5A000D0EA0CBF93B9553FB33E0DBF2C82553F27
:10C5B00081920DBFA44A553F38E60DBFFB12553F8F
:10C5C000DA390EBF31DB543F658D0EBF47A3543FB0
:10C5D000DBE00EBF3B6B543F3B340FBF0F33543F88
:10C5E00084870FBFC3FA533FB8DA0FBF55C2533F1A
:10C5F000D52D10BFC789533FDC8010BF1851533F62
:10C60000CDD310BF4918533FA72611BF59DF523F62
:10C610006B7911BF49A6523F19CC11BF186D523F1B
:10C62000B01E12BFC633523F307112BF54FA513F91
:10C630009AC312BFC2C0513FEE1513BF1087513FBE
:10C640002A6813BF3D4D513F50BA13BF4A13513FA3
:10C650005F0C14BF37D9503F585E14BF039F503F43
:10C6600039B014BFAF64503F040215BF3B2A503F9E
:10C67000B75315BFA8EF4F3F54A515BFF4B44F3FB4
:10C68000D9F615BF1F7A4F3F474816BF2B3F4F3F84
:10C690009F9916BF17044F3FDFEA16BFE4C84E3F0D
:10C6A000073C17BF908D4E3F188D17BF1C524E3F51
:10C6B00012DE17BF89164E3FF52E18BFD5DA4D3F53
:10C6C000C07F18BF029F4D3F73D018BF10634D3F0E
:10C6D0000F2119BFFD264D3F947119BFCBEA4C3F86
:10C6E00000C219BF79AE4C3F55121ABF08724C3FB9
:10C6F00093621ABF78354C3FB8B21ABFC7F84B3FA8
:10C70000C6021BBFF8BB4B3FBB521BBF097F4B3F51
:10C7100099A21BBFFA414B3F5FF21BBFCC044B3FBA
:10C720000C421CBF7FC74A3FA2911CBF138A4A3FDD
:10C730001FE11CBF874C4A3F84301DBFDC0E4A3FBF
:10C74000D17F1DBF12D1493F06CF1DBF2993493F5D
:10C75000221E1EBF2155493F266D1EBFFA16493FB6
:10C7600012BC1EBFB3D8483FE50A1FBF4E9A483FD0
:10C770009F591FBFCA5B483F41A81FBF271D483FA5
:10C78000CBF61FBF65DE473F3B4520BF849F473F39
:10C79000939320BF8560473FD2E120BF6721473F89
:10C7A000F92F21BF2AE2463F067E21BFCEA2463F97
:10C7B000FBCB21BF5463463FD71922BFBB23463F63
:10C7C000996722BF03E4453F43B522BF2DA4453FEF
:10C7D000D30223BF3964453F4B5023BF2624453F36
:10C7E000A99D23BFF5E3443FEEEA23BFA5A3443F41
:10C7F0001A3824BF3763443F2C8524BFAB22443F03
:10C8000025D224BF00E2433F041F25BF38A1433F88
:10C81000CB6B25BF5160433F77B825BF4C1F433FCB
:10C820000A0526BF29DE423F845126BFE89C423FCD
:10C83000E39D26BF895B423F2AEA26BF0B1A423F8F
:10C84000563627BF70D8413F688227BFB796413F11
:10C8500061CE27BFE154413F401A28BFEC12413F4F
:10C86000056628BFDAD0403FB0B128BFA98E403F4F
:10C8700041FD28BF5C4C403FB84829BFF009403F0C
:10C88000159429BF67C73F3F57DF29BFC0843F3F8B
:10C89000802A2ABFFC413F3F8E752ABF1BFF3E3FC7
:10C8A00082C02ABF1BBC3E3F5B0B2BBFFF783E3FC5
:10C8B0001B562BBFC5353E3FBFA02BBF6EF23D3F81
:10C8C0004AEB2BBFF9AE3D3FB9352CBF676B3D3FFF
:10C8D0000F802CBFB8273D3F49CA2CBFECE33C3F3B
:10C8E00069142DBF03A03C3F6F5E2DBFFC5B3C3F36
:10C8F00059A82DBFD9173C3F29F22DBF98D33B3FF4
:10C90000DE3B2EBF3B8F3B3F78852EBFC14A3B3F6E
:10C91000F7CE2EBF29063B3F5B182FBF75C13A3FAC
:10C92000A5612FBFA47C3A3FD3AA2FBFB7373A3FA8
:10C93000E6F32FBFACF2393FDE3C30BF85AD393F67
:10C94000BB8530BF4268393F7CCE30BFE122393FE2
:10C95000221731BF65DD383FAD5F31BFCB97383F20
:10C960001DA831BF1652383F71F031BF430C383F1C
:10C97000AA3832BF55C6373FC78032BF4A80373FDB
:10C98000C9C832BF233A373FAF1033BFDFF3363F5A
:10C990007A5833BF7FAD363F29A033BF0467363F97
:10C9A000BCE733BF6C20363F342F34BFB8D9353F96
:10C9B0008F7634BFE792353FCFBD34BFFB4B353F59
:10C9C000F30435BFF304353FFB4B35BFCFBD343FD8
:10C9D000E79235BF8F76343FB8D935BF342F343F17
:10C9E0006C2036BFBCE7333F046736BF29A0333F16
:10C9F0007FAD36BF7A58333FDFF336BFAF10333FDA
:10CA0000233A37BFC9C8323F4A8037BFC780323F59
:10CA100055C637BFAA38323F430C38BF71F0313F9B
:10CA2000165238BF1DA8313FCB9738BFAD5F313F9D
:10CA300065DD38BF2217313FE12239BF7CCE303F60
:10CA4000426839BFBB85303F85AD39BFDE3C303FE2
:10CA5000ACF239BFE6F32F3FB7373ABFD3AA2F3F27
:10CA6000A47C3ABFA5612F3F75C13ABF5B182F3F29
:10CA700029063BBFF7CE2E3FC14A3BBF78852E3FEC
:10CA80003B8F3BBFDE3B2E3F98D33BBF29F22D3F70
:10CA9000D9173CBF59A82D3FFC5B3CBF6F5E2D3FB3
:10CAA00003A03CBF69142D3FECE33CBF49CA2C3FB7
:10CAB000B8273DBF0F802C3F676B3DBFB9352C3F7A
:10CAC000F9AE3DBF4AEB2B3F6EF23DBFBFA02B3FFF
:10CAD000C5353EBF1B562B3FFF783EBF5B0B2B3F40
:10CAE0001BBC3EBF82C02A3F1BFF3EBF8E752A3F44
:10CAF000FC413FBF802A2A3FC0843FBF57DF293F08
:10CB000067C73FBF1594293FF00940BFB848293F88
:10CB10005C4C40BF41FD283FA98E40BFB0B1283FCB
:10CB2000DAD040BF0566283FEC1241BF401A283FCB
:10CB3000E15441BF61CE273FB79641BF6882273F8E
:10CB400070D841BF5636273F0B1A42BF2AEA263F0C
:10CB5000895B42BFE39D263FE89C42BF8451263F4C
:10CB600029DE42BF0A05263F4C1F43BF77B8253F49
:10CB7000516043BFCB6B253F38A143BF041F253F06
:10CB800000E243BF25D2243FAB2244BF2C85243F83
:10CB9000376344BF1A38243FA5A344BFEEEA233FBE
:10CBA000F5E344BFA99D233F262445BF4B50233FB7
:10CBB000396445BFD302233F2DA445BF43B5223F6F
:10CBC00003E445BF9967223FBB2346BFD719223FE5
:10CBD000546346BFFBCB213FCEA246BF067E213F1A
:10CBE0002AE246BFF92F213F672147BFD2E1203F0C
:10CBF000856047BF9393203F849F47BF3B45203FBD
:10CC000065DE47BFCBF61F3F271D48BF41A81F3F2A
:10CC1000CA5B48BF9F591F3F4E9A48BFE50A1F3F56
:10CC2000B3D848BF12BC1E3FFA1649BF266D1E3F3F
:10CC3000215549BF221E1E3F299349BF06CF1D3FE4
:10CC400012D149BFD17F1D3FDC0E4ABF84301D3F4A
:10CC5000874C4ABF1FE11C3F138A4ABFA2911C3F69
:10CC60007FC74ABF0C421C3FCC044BBF5FF21B3F47
:10CC7000FA414BBF99A21B3F097F4BBFBB521B3FE1
:10CC8000F8BB4BBFC6021B3FC7F84BBFB8B21A3F39
:10CC900078354CBF93621A3F08724CBF55121A3F49
:10CCA00079AE4CBF00C2193FCBEA4CBF9471193F1B
:10CCB000FD264DBF0F21193F10634DBF73D0183FA4
:10CCC000029F4DBFC07F183FD5DA4DBFF52E183FEC
:10CCD00089164EBF12DE173F1C524EBF188D173FEC
:10CCE000908D4EBF073C173FE4C84EBFDFEA163FAA
:10CCF00017044FBF9F99163F2B3F4FBF4748163F22
:10CD00001F7A4FBFD9F6153FF4B44FBF54A5153F56
:10CD1000A8EF4FBFB753153F3B2A50BF0402153F42
:10CD2000AF6450BF39B0143F039F50BF585E143FEB
:10CD300037D950BF5F0C143F4A1351BF50BA133F4D
:10CD40003D4D51BF2A68133F108751BFEE15133F69
:10CD5000C2C051BF9AC3123F54FA51BF3071123F43
:10CD6000C63352BFB01E123F186D52BF19CC113FCF
:10CD700049A652BF6B79113F59DF52BFA726113F19
:10CD8000491853BFCDD3103F185153BFDC80103F1B
:10CD9000C78953BFD52D103F55C253BFB8DA0F3FD7
:10CDA000C3FA53BF84870F3F0F3354BF3B340F3F49
:10CDB0003B6B54BFDBE00E3F47A354BF658D0E3F76
:10CDC00031DB54BFDA390E3FFB1255BF38E60D3F59
:10CDD000A44A55BF81920D3F2C8255BFB33E0D3FF3
:10CDE00093B955BFD0EA0C3FD9F055BFD7960C3F49
:10CDF000FE2756BFC9420C3F025F56BFA5EE0B3F50
:10CE0000E59556BF6B9A0B3FA7CC56BF1C460B3F10
:10CE1000480357BFB7F10A3FC73957BF3D9D0A3F87
:10CE2000267057BFAD480A3F63A657BF09F4093FB4
:10CE30007FDC57BF4E9F093F791258BF7F4A093F99
:10CE4000534858BF9BF5083F0B7E58BFA1A0083F31
:10CE5000A1B358BF924B083F17E958BF6FF6073F81
:10CE60006A1E59BF36A1073F9C5359BFE84B073F85
:10CE7000AD8859BF86F6063F9CBD59BF0EA1063F3F
:10CE80006AF259BF824B063F16275ABFE2F5053FAB
:10CE9000A05B5ABF2CA0053F09905ABF624A053FCC
:10CEA00050C45ABF84F4043F75F85ABF919E043FA2
:10CEB000792C5BBF8948043F5A605BBF6DF2033F2A
:10CEC0001A945BBF3D9C033FB8C75BBFF845033F67
:10CED00034FB5BBF9FEF023F8E2E5CBF3299023F57
:10CEE000C7615CBFB142023FDD945CBF1CEC013FF7
:10CEF000D1C75CBF7395013FA3FA5CBFB53E013F4C
:10CF0000532D5DBFE4E7003FE15F5DBFFF90003F51
:10CF10004D925DBF063A003F97C45DBFF3C5FF3E2B
:10CF2000BEF65DBFB217FF3EC3285EBF4A69FE3E34
:10CF3000A65A5EBFBBBAFD3E678C5EBF040CFD3EC9
:10CF400005BE5EBF275DFC3E81EF5EBF22AEFB3EAD
:10CF5000DB205FBFF7FEFA3E12525FBFA54FFA3EDD
:10CF600027835FBF2DA0F93E19B45FBF8EF0F83E56
:10CF7000E9E45FBFC840F83E961560BFDC90F73E1D
:10CF8000214660BFCBE0F63E897660BF9330F63E27
:10CF9000CFA660BF3580F53EF2D660BFB1CFF43E7C
:10CFA000F20661BF071FF43ED03661BF386EF33E14
:10CFB0008A6661BF43BDF23E229661BF290CF23EF4
:10CFC00098C561BFEA5AF13EEAF461BF85A9F03E17
:10CFD0001A2462BFFBF7EF3E265362BF4C46EF3E7A
:10CFE000108262BF7994EE3ED7B062BF80E2ED3E20
:10CFF0007BDF62BF6330ED3EFC0D63BF217EEC3E04
:10D000005A3C63BFBBCBEB3E956A63BF3019EB3E26
:10D01000AC9863BF8166EA3EA1C663BFAEB3E93E8A
:10D0200073F463BFB700E93E212264BF9C4DE83E24
:10D03000AC4F64BF5D9AE73E147D64BFFBE6E63EFD
:10D0400059AA64BF7533E63E7BD764BFCB7FE53E0C
:10D05000790465BFFECBE43E543165BF0E18E43E53
:10D060000B5E65BFFA63E33EA08A65BFC4AFE23ED4
:10D0700010B765BF6AFBE13E5EE365BFEE46E13E89
:10D08000880F66BF4F92E03E8E3B66BF8DDDDF3E70
:10D09000716766BFA928DF3E309366BFA273DE3E8C
:10D0A000CCBE66BF79BEDD3E45EA66BF2E09DD3ED9
:10D0B000991567BFC153DC3ECA4067BF319EDB3E56
:10D0C000D86B67BF80E8DA3EC19667BFAD32DA3E03
:10D0D00087C167BFB97CD93E2AEC67BFA3C6D83EDB
:10D0E000A81668BF6B10D83E034168BF135AD73EDD
:10D0F000396B68BF99A3D63E4C9568BFFDECD53E11
:10D100003CBF68BF4136D53E07E968BF647FD43E67
:10D11000AE1269BF67C8D33E323C69BF4811D33EE7
:10D12000916569BF095AD23ECC8E69BFAAA2D13E91
:10D13000E4B769BF2AEBD03ED7E069BF8A33D03E5F
:10D14000A7096ABFCA7BCF3E52326ABFEAC3CE3E4E
:10D15000D95A6ABFEA0BCE3E3C836ABFCA53CD3E62
:10D160007BAB6ABF8B9BCC3E95D36ABF2CE3CB3E97
:10D170008CFB6ABFAE2ACB3E5E236BBF1072CA3EE9
:10D180000C4B6BBF53B9C93E95726BBF7700C93E5C
:10D19000FB996BBF7C47C83E3BC16BBF628EC73EED
:10D1A00058E86BBF29D5C63E500F6CBFD21BC63E98
:10D1B00024366CBF5C62C53ED45C6CBFC8A8C43E5C
:10D1C0005E836CBF15EFC33EC5A96CBF4435C33E3B
:10D1D00007D06CBF557BC23E24F66CBF48C1C13E30
:10D1E0001D1C6DBF1E07C13EF2416DBFD54CC03E38
:10D1F000A1676DBF6F92BF3E2D8D6DBFEBD7BE3E59
:10D2000093B26DBF4A1DBE3ED5D76DBF8B62BD3E8A
:10D21000F2FC6DBFAFA7BC3EEB216EBFB6ECBB3ED0
:10D22000BE466EBFA031BB3E6D6B6EBF6E76BA3E22
:10D23000F88F6EBF1EBBB93E5DB46EBFB2FFB83E85
:10D240009ED86EBF2A44B83EBAFC6EBF8488B73EF3
:10D25000B0206FBFC3CCB63E83446FBFE610B63E6E
:10D2600030686FBFEC54B53EB88B6FBFD698B43EF4
:10D270001BAF6FBFA5DCB33E5AD26FBF5820B33E81
:10D2800073F56FBFEF63B23E671870BF6BA7B13E17
:10D29000373B70BFCBEAB03EE15D70BF102EB03EB1
:10D2A000668070BF3A71AF3EC6A270BF49B4AE3E51
:10D2B00002C570BF3CF7AD3E17E770BF153AAD3EF3
:10D2C000080971BFD47CAC3ED42A71BF77BFAB3E96
:10D2D0007A4C71BF0102AB3EFB6D71BF6F44AA3E39
:10D2E000578F71BFC486A93E8EB071BFFEC8A83EDD
:10D2F0009FD171BF1F0BA83E8CF271BF254DA73E79
:10D30000521372BF128FA63EF43372BFE5D0A53E12
:10D31000705472BF9F12A53EC77472BF3F54A43EA3
:10D32000F89472BFC595A33E04B572BF33D7A23E31
:10D33000EBD472BF8718A23EACF472BFC259A13EB3
:10D34000471473BFE59AA03EBE3373BFEEDB9F3E2A
:10D350000E5373BFDF1C9F3E397273BFB85D9E3E94
:10D360003F9173BF789E9D3E1FB073BF20DF9C3EF0
:10D37000D9CE73BFAF1F9C3E6EED73BF27609B3E3F
:10D38000DD0B74BF86A09A3E272A74BFCEE0993E7B
:10D390004B4874BFFE20993E496674BF1661983EA3
:10D3A000228474BF17A1973ED5A174BF00E1963EB9
:10D3B00062BF74BFD220963EC9DC74BF8D60953EBB
:10D3C0000BFA74BF31A0943E271775BFBFDF933EA1
:10D3D0001D3475BF351F933EED5075BF945E923E70
:10D3E000976D75BFDD9D913E1C8A75BF10DD903E27
:10D3F0007BA675BF2C1C903EB3C275BF325B8F3EBF
:10D40000C6DE75BF229A8E3EB3FA75BFFCD88D3E3C
:10D410007A1676BFC0178D3E1B3276BF6E568C3E95
:10D42000974D76BF07958B3EEC6876BF8AD38A3ED0
:10D430001B8476BFF8118A3E249F76BF5050893EE8
:10D4400007BA76BF938E883EC4D476BFC1CC873EE0
:10D450005BEF76BFDA0A873ECC0977BFDF48863EAE
:10D46000172477BFCE86853E3C3E77BFAAC4843E54
:10D470003A5877BF7002843E137277BF2240833ED2
:10D48000C58B77BFC07D823E51A577BF4ABB813E29
:10D49000B7BE77BFC0F8803EF7D777BF2236803E51
:10D4A00010F177BFE1E67E3E040A78BF56617D3E0B
:10D4B000D12278BFA4DB7B3E773B78BFCB557A3E49
:10D4C000F85378BFCCCF783E526C78BFA649773EF0
:10D4D000868478BF5AC3753E939C78BFE83C743EFF
:10D4E0007BB478BF51B6723E3BCC78BF942F713E6F
:10D4F000D6E378BFB2A86F3E4AFB78BFAB216E3E41
:10D50000981279BF7F9A6C3EBF2979BF2F136B3E6B
:10D51000C04079BFBA8B693E9A5779BF2204683EF2
:10D520004E6E79BF667C663EDC8479BF86F4643ECD
:10D53000439B79BF836C633E83B179BF5CE4613EFA
:10D540009DC779BF135C603E91DD79BFA8D35E3E75
:10D550005EF379BF1A4B5D3E04097ABF6AC25B3E37
:10D56000841E7ABF97395A3EDD337ABFA4B0583E45
:10D5700010497ABF8F27573E1C5E7ABF589E553E92
:10D5800002737ABF0115543EC1877ABF898B523E20
:10D59000599C7ABFF101513ECBB07ABF38784F3EEB
:10D5A00016C57ABF60EE4D3E3AD97ABF67644C3EED
:10D5B00037ED7ABF4FDA4A3E0E017BBF1850493E25
:10D5C000BE147BBFC2C5473E48287BBF4D3B463E8D
:10D5D000AB3B7BBFB9B0443EE74E7BBF0726433E23
:10D5E000FC617BBF379B413EEA747BBF4910403EE4
:10D5F000B2877BBF3E853E3E539A7BBF15FA3C3EC9
:10D60000CDAC7BBFCF6E3B3E20BF7BBF6CE3393ED2
:10D610004DD17BBFEC57383E53E37BBF50CC363EF9
:10D6200031F57BBF9840353EE9067CBFC4B4333E3C
:10D630007A187CBFD428323EE5297CBFC99C303E95
:10D64000283B7CBFA2102F3E444C7CBF61842D3E02
:10D650003A5D7CBF04F82B3E086E7CBF8D6B2A3E82
:10D66000B07E7CBFFCDE283E318F7CBF5152273E0E
:10D670008A9F7CBF8CC5253EBDAF7CBFAD38243EA4
:10D68000C9BF7CBFB6AB223EAECF7CBFA51E213E3C
:10D690006CDF7CBF7B911F3E03EF7CBF38041E3ED6
:10D6A00073FE7CBFDE761C3EBC0D7DBF6BE91A3E6F
:10D6B000DD1C7DBFE05B193ED82B7DBF3DCE173E04
:10D6C000AC3A7DBF8340163E59497DBFB2B2143E8D
:10D6D000DE577DBFCA24133E3D667DBFCC96113E0A
:10D6E00074747DBFB708103E85827DBF8B7A0E3E75
:10D6F0006E907DBF4AEC0C3E309E7DBFF35D0B3ECD
:10D70000CCAB7DBF86CF093E40B97DBF0541083E09
:10D710008CC67DBF6EB2063EB2D37DBFC223053E2E
:10D72000B1E07DBF0295033E88ED7DBF2E06023E2F
:10D7300038FA7DBF4577003EC2067EBF92D0FD3DE0
:10D7400024137EBF73B2FA3D5E1F7EBF2C94F73D5B
:10D75000722B7EBFC075F43D5E377EBF2E57F13D04
:10D7600023437EBF7638EE3DC14E7EBF9A19EB3D16
:10D77000385A7EBF9AFAE73D88657EBF76DBE43D86
:10D78000B0707EBF2EBCE13DB17B7EBFC49CDE3D50
:10D790008B867EBF377DDB3D3D917EBF895DD83D69
:10D7A000C99B7EBFB93DD53D2DA67EBFC81DD23DCC
:10D7B00069B07EBFB7FDCE3D7FBA7EBF86DDCB3D73
:10D7C0006DC47EBF36BDC83D34CE7EBFC69CC53D50
:10D7D000D4D77EBF397CC23D4CE17EBF8D5BBF3D5F
:10D7E0009DEA7EBFC33ABC3DC7F37EBFDD19B93D9C
:10D7F000C9FC7EBFDAF8B53DA4057FBFBBD7B23DFB
:10D80000580E7FBF80B6AF3DE4167FBF2B95AC3D71
:10D81000491F7FBFBA73A93D87277FBF3052A63DFE
:10D820009D2F7FBF8C30A33D8D377FBFCF0EA03D96
:10D83000543F7FBFF9EC9C3DF4467FBF0ACB993D36
:10D840006D4E7FBF05A9963DBF557FBFE786933DCF
:10D85000E95C7FBFB464903DEC637FBF6A428D3D5D
:10D86000C76A7FBF0A208A3D7B717FBF94FD863DDA
:10D8700008787FBF0ADB833D6D7E7FBF6CB8803D3B
:10D88000AB847FBF742B7B3DC28A7FBFE9E5743DCB
:10D89000B1907FBF38A06E3D78967FBF625A683DD9
:10D8A000189C7FBF6814623D91A17FBF4CCE5B3D49
:10D8B000E3A67FBF0E88553D0DAC7FBFAF414F3D06
:10D8C0000FB17FBF2FFB483DEAB57FBF91B4423D0A
:10D8D0009EBA7FBFD56D3C3D2ABF7FBFFC26363D3B
:10D8E0008FC37FBF07E02F3DCCC77FBFF698293D90
:10D8F000E2CB7FBFCC51233DD1CF7FBF880A1D3DF6
:10D9000098D37FBF2CC3163D37D77FBFB87B103D60
:10D91000AFDA7FBF2F340A3D00DE7FBF90EC033DBE
:10D9200029E17FBFB949FB3C2BE47FBF2DBAEE3C18
:10D9300005E77FBF7B2AE23CB8E97FBFA69AD53CCA
:10D9400043EC7FBFB00AC93CA7EE7FBF9B7ABC3CCB
:10D95000E3F07FBF69EAAF3CF8F27FBF1C5AA33CFB
:10D96000E6F47FBFB6C9963CACF67FBF38398A3C37
:10D970004AF87FBF4B517B3CC1F97FBF0030623C0E
:10D9800011FB7FBF900E493C39FC7FBF02ED2F3C5D
:10D9900039FD7FBF59CB163C13FE7FBF3053FB3B95
:10D9A000C4FE7FBF890FC93B4EFF7FBFC1CB963BF3
:10D9B000B1FF7FBFC70F493BECFF7FBFD40FC93A10
:10D9C000000080BF00000000ECFF7FBFD40FC9BA89
:10D9D000B1FF7FBFC70F49BB4EFF7FBFC1CB96BB17
:10D9E000C4FE7FBF890FC9BB13FE7FBF3053FBBB93
:10D9F00039FD7FBF59CB16BC39FC7FBF02ED2FBC70
:10DA000011FB7FBF900E49BCC1F97FBF003062BCE3
:10DA10004AF87FBF4B517BBCACF67FBF38398ABC1C
:10DA2000E6F47FBFB6C996BCF8F27FBF1C5AA3BC10
:10DA3000E3F07FBF69EAAFBCA7EE7FBF9B7ABCBCB7
:10DA400043EC7FBFB00AC9BCB8E97FBFA69AD5BC7A
:10DA500005E77FBF7B2AE2BC2BE47FBF2DBAEEBC7B
:10DA600029E17FBFB949FBBC00DE7FBF90EC03BD5D
:10DA7000AFDA7FBF2F340ABD37D77FBFB87B10BD69
:10DA800098D37FBF2CC316BDD1CF7FBF880A1DBDE1
:10DA9000E2CB7FBFCC5123BDCCC77FBFF69829BD59
:10DAA0008FC37FBF07E02FBD2ABF7FBFFC2636BDD7
:10DAB0009EBA7FBFD56D3CBDEAB57FBF91B442BD74
:10DAC0000FB17FBF2FFB48BD0DAC7FBFAF414FBD36
:10DAD000E3A67FBF0E8855BD91A17FBF4CCE5BBD35
:10DAE000189C7FBF681462BD78967FBF625A68BD7C
:10DAF000B1907FBF38A06EBDC28A7FBFE9E574BD1B
:10DB0000AB847FBF742B7BBD6D7E7FBF6CB880BD47
:10DB100008787FBF0ADB83BD7B717FBF94FD86BD24
:10DB2000C76A7FBF0A208ABDEC637FBF6A428DBD92
:10DB3000E95C7FBFB46490BDBF557FBFE78693BDEE
:10DB40006D4E7FBF05A996BDF4467FBF0ACB99BD38
:10DB5000543F7FBFF9EC9CBD8D377FBFCF0EA0BD7A
:10DB60009D2F7FBF8C30A3BD87277FBF3052A6BDBE
:10DB7000491F7FBFBA73A9BDE4167FBF2B95ACBD0B
:10DB8000580E7FBF80B6AFBDA4057FBFBBD7B2BD67
:10DB9000C9FC7EBFDAF8B5BDC7F37EBFDD19B9BDDC
:10DBA0009DEA7EBFC33ABCBD4CE17EBF8D5BBFBD6D
:10DBB000D4D77EBF397CC2BD34CE7EBFC69CC5BD26
:10DBC0006DC47EBF36BDC8BD7FBA7EBF86DDCBBD0E
:10DBD00069B07EBFB7FDCEBD2DA67EBFC81DD2BD2C
:10DBE000C99B7EBFB93DD5BD3D917EBF895DD8BD86
:10DBF0008B867EBF377DDBBDB17B7EBFC49CDEBD27
:10DC0000B0707EBF2EBCE1BD88657EBF76DBE4BD13
:10DC1000385A7EBF9AFAE7BDC14E7EBF9A19EBBD56
:10DC200023437EBF7638EEBD5E377EBF2E57F1BDF3
:10DC3000722B7EBFC075F4BD5E1F7EBF2C94F7BDF6
:10DC400024137EBF73B2FABDC2067EBF92D0FDBD63
:10DC500038FA7DBF457700BE88ED7DBF2E0602BE37
:10DC6000B1E07DBF029503BEB2D37DBFC22305BE26
:10DC70008CC67DBF6EB206BE40B97DBF054108BEF1
:10DC8000CCAB7DBF86CF09BE309E7DBFF35D0BBEA2
:10DC90006E907DBF4AEC0CBE85827DBF8B7A0EBE36
:10DCA00074747DBFB70810BE3D667DBFCC9611BEB3
:10DCB000DE577DBFCA2413BE59497DBFB2B214BE20
:10DCC000AC3A7DBF834016BED82B7DBF3DCE17BE7C
:10DCD000DD1C7DBFE05B19BEBC0D7DBF6BE91ABECC
:10DCE00073FE7CBFDE761CBE03EF7CBF38041EBE15
:10DCF0006CDF7CBF7B911FBEAECF7CBFA51E21BE5B
:10DD0000C9BF7CBFB6AB22BEBDAF7CBFAD3824BEA1
:10DD10008A9F7CBF8CC525BE318F7CBF515227BEE8
:10DD2000B07E7CBFFCDE28BE086E7CBF8D6B2ABE39
:10DD30003A5D7CBF04F82BBE444C7CBF61842DBE91
:10DD4000283B7CBFA2102FBEE5297CBFC99C30BEFA
:10DD50007A187CBFD42832BEE9067CBFC4B433BE77
:10DD600031F57BBF984035BE53E37BBF50CC36BE08
:10DD70004DD17BBFEC5738BE20BF7BBF6CE339BEB3
:10DD8000CDAC7BBFCF6E3BBE539A7BBF15FA3CBE7A
:10DD9000B2877BBF3E853EBEEA747BBF491040BE62
:10DDA000FC617BBF379B41BEE74E7BBF072643BE6E
:10DDB000AB3B7BBFB9B044BE48287BBF4D3B46BEA2
:10DDC000BE147BBFC2C547BE0E017BBF185049BE03
:10DDD00037ED7ABF4FDA4ABE3AD97ABF67644CBE94
:10DDE00016C57ABF60EE4DBECBB07ABF38784FBE55
:10DDF000599C7ABFF10151BEC1877ABF898B52BE4F
:10DE000002737ABF011554BE1C5E7ABF589E55BE80
:10DE100010497ABF8F2757BEDD337ABFA4B058BEF2
:10DE2000841E7ABF97395ABE04097ABF6AC25BBEA4
:10DE30005EF379BF1A4B5DBE91DD79BFA8D35EBE9C
:10DE40009DC779BF135C60BE83B179BF5CE461BEDE
:10DE5000439B79BF836C63BEDC8479BF86F464BE68
:10DE60004E6E79BF667C66BE9A5779BF220468BE43
:10DE7000C04079BFBA8B69BEBF2979BF2F136BBE73
:10DE8000981279BF7F9A6CBE4AFB78BFAB216EBEF9
:10DE9000D6E378BFB2A86FBE3BCC78BF942F71BEDB
:10DEA0007BB478BF51B672BE939C78BFE83C74BE19
:10DEB000868478BF5AC375BE526C78BFA64977BEB8
:10DEC000F85378BFCCCF78BE773B78BFCB557ABEBE
:10DED000D12278BFA4DB7BBE040A78BF56617DBE29
:10DEE00010F177BFE1E67EBEF7D777BF223680BE5E
:10DEF000B7BE77BFC0F880BE51A577BF4ABB81BE11
:10DF0000C58B77BFC07D82BE137277BF224083BEB0
:10DF10003A5877BF700284BE3C3E77BFAAC484BE25
:10DF2000172477BFCE8685BECC0977BFDF4886BE73
:10DF30005BEF76BFDA0A87BEC4D476BFC1CC87BE9A
:10DF400007BA76BF938E88BE249F76BF505089BE95
:10DF50001B8476BFF8118ABEEC6876BF8AD38ABE6E
:10DF6000974D76BF07958BBE1B3276BF6E568CBE23
:10DF70007A1676BFC0178DBEB3FA75BFFCD88DBEBA
:10DF8000C6DE75BF229A8EBEB3C275BF325B8FBE2E
:10DF90007BA675BF2C1C90BE1C8A75BF10DD90BE81
:10DFA000976D75BFDD9D91BEED5075BF945E92BEBD
:10DFB0001D3475BF351F93BE271775BFBFDF93BED6
:10DFC0000BFA74BF31A094BEC9DC74BF8D6095BEDE
:10DFD00062BF74BFD22096BED5A174BF00E196BEC9
:10DFE000228474BF17A197BE496674BF166198BE9C
:10DFF0004B4874BFFE2099BE272A74BFCEE099BE5D
:10E00000DD0B74BF86A09ABE6EED73BF27609BBE0A
:10E01000D9CE73BFAF1F9CBE1FB073BF20DF9CBEA5
:10E020003F9173BF789E9DBE397273BFB85D9EBE2F
:10E030000E5373BFDF1C9FBEBE3373BFEEDB9FBEAC
:10E04000471473BFE59AA0BEACF472BFC259A1BE1B
:10E05000EBD472BF8718A2BE04B572BF33D7A2BE7D
:10E06000F89472BFC595A3BEC77472BF3F54A4BED7
:10E07000705472BF9F12A5BEF43372BFE5D0A5BE27
:10E08000521372BF128FA6BE8CF271BF254DA7BE70
:10E090009FD171BF1F0BA8BE8EB071BFFEC8A8BEB6
:10E0A000578F71BFC486A9BEFB6D71BF6F44AABEF6
:10E0B0007A4C71BF0102ABBED42A71BF77BFABBE31
:10E0C000080971BFD47CACBE17E770BF153AADBE6E
:10E0D00002C570BF3CF7ADBEC6A270BF49B4AEBEAC
:10E0E000668070BF3A71AFBEE15D70BF102EB0BEEA
:10E0F000373B70BFCBEAB0BE671870BF6BA7B1BE2D
:10E1000073F56FBFEF63B2BE5AD26FBF5820B3BE74
:10E110001BAF6FBFA5DCB3BEB88B6FBFD698B4BEC4
:10E1200030686FBFEC54B5BE83446FBFE610B6BE17
:10E13000B0206FBFC3CCB6BEBAFC6EBF8488B7BE7A
:10E140009ED86EBF2A44B8BE5DB46EBFB2FFB8BEE3
:10E15000F88F6EBF1EBBB9BE6D6B6EBF6E76BABE5A
:10E16000BE466EBFA031BBBEEB216EBFB6ECBBBEE0
:10E17000F2FC6DBFAFA7BCBED5D76DBF8B62BDBE75
:10E1800093B26DBF4A1DBEBE2D8D6DBFEBD7BEBE17
:10E19000A1676DBF6F92BFBEF2416DBFD54CC0BECF
:10E1A0001D1C6DBF1E07C1BE24F66CBF48C1C1BE99
:10E1B00007D06CBF557BC2BEC5A96CBF4435C3BE7A
:10E1C0005E836CBF15EFC3BED45C6CBFC8A8C4BE71
:10E1D00024366CBF5C62C5BE500F6CBFD21BC6BE7E
:10E1E00058E86BBF29D5C6BE3BC16BBF628EC7BEA8
:10E1F000FB996BBF7C47C8BE95726BBF7700C9BEE9
:10E200000C4B6BBF53B9C9BE5E236BBF1072CABE45
:10E210008CFB6ABFAE2ACBBE95D36ABF2CE3CBBEC4
:10E220007BAB6ABF8B9BCCBE3C836ABFCA53CDBE5F
:10E23000D95A6ABFEA0BCEBE52326ABFEAC3CEBE1B
:10E24000A7096ABFCA7BCFBED7E069BF8A33D0BEF9
:10E25000E4B769BF2AEBD0BECC8E69BFAAA2D1BEFB
:10E26000916569BF095AD2BE323C69BF4811D3BE1D
:10E27000AE1269BF67C8D3BE07E968BF647FD4BE6A
:10E280003CBF68BF4136D5BE4C9568BFFDECD5BEDE
:10E29000396B68BF99A3D6BE034168BF135AD7BE76
:10E2A000A81668BF6B10D8BE2AEC67BFA3C6D8BE3D
:10E2B00087C167BFB97CD9BEC19667BFAD32DABE30
:10E2C000D86B67BF80E8DABECA4067BF319EDBBE4D
:10E2D000991567BFC153DCBE45EA66BF2E09DDBE96
:10E2E000CCBE66BF79BEDDBE309366BFA273DEBE14
:10E2F000716766BFA928DFBE8E3B66BF8DDDDFBEBE
:10E30000880F66BF4F92E0BE5EE365BFEE46E1BE9A
:10E3100010B765BF6AFBE1BEA08A65BFC4AFE2BEAD
:10E320000B5E65BFFA63E3BE543165BF0E18E4BEF1
:10E33000790465BFFECBE4BE7BD764BFCB7FE5BE6F
:10E3400059AA64BF7533E6BE147D64BFFBE6E6BE22
:10E35000AC4F64BF5D9AE7BE212264BF9C4DE8BE0E
:10E3600073F463BFB700E9BEA1C663BFAEB3E9BE35
:10E37000AC9863BF8166EABE956A63BF3019EBBE95
:10E380005A3C63BFBBCBEBBEFC0D63BF217EECBE32
:10E390007BDF62BF6330EDBED7B062BF80E2EDBE0F
:10E3A000108262BF7994EEBE265362BF4C46EFBE28
:10E3B0001A2462BFFBF7EFBEEAF461BF85A9F0BE85
:10E3C00098C561BFEA5AF1BE229661BF290CF2BE20
:10E3D0008A6661BF43BDF2BED03661BF386EF3BE00
:10E3E000F20661BF071FF4BEF2D660BFB1CFF4BE24
:10E3F000CFA660BF3580F5BE897660BF9330F6BE8C
:10E40000214660BFCBE0F6BE961560BFDC90F7BE3C
:10E41000E9E45FBFC840F8BE19B45FBF8EF0F8BE34
:10E4200027835FBF2DA0F9BE12525FBFA54FFABE72
:10E43000DB205FBFF7FEFABE81EF5EBF22AEFBBE00
:10E4400005BE5EBF275DFCBE678C5EBF040CFDBED3
:10E45000A65A5EBFBBBAFDBEC3285EBF4A69FEBEF8
:10E46000BEF65DBFB217FFBE97C45DBFF3C5FFBE6A
:10E470004D925DBF063A00BFE15F5DBFFF9000BFF8
:10E48000532D5DBFE4E700BFA3FA5CBFB53E01BFFB
:10E49000D1C75CBF739501BFDD945CBF1CEC01BFAD
:10E4A000C7615CBFB14202BF8E2E5CBF329902BF12
:10E4B00034FB5BBF9FEF02BFB8C75BBFF84503BF2C
:10E4C0001A945BBF3D9C03BF5A605BBF6DF203BFF4
:10E4D000792C5BBF894804BF75F85ABF919E04BF71
:10E4E00050C45ABF84F404BF09905ABF624A05BFA2
:10E4F000A05B5ABF2CA005BF16275ABFE2F505BF87
:10E500006AF259BF824B06BF9CBD59BF0EA106BF20
:10E51000AD8859BF86F606BF9C5359BFE84B07BF6D
:10E520006A1E59BF36A107BF17E958BF6FF607BF6C
:10E53000A1B358BF924B08BF0B7E58BFA1A008BF24
:10E54000534858BF9BF508BF791258BF7F4A09BF8F
:10E550007FDC57BF4E9F09BF63A657BF09F409BFB1
:10E56000267057BFAD480ABFC73957BF3D9D0ABF88
:10E57000480357BFB7F10ABFA7CC56BF1C460BBF15
:10E58000E59556BF6B9A0BBF025F56BFA5EE0BBF5A
:10E59000FE2756BFC9420CBFD9F055BFD7960CBF56
:10E5A00093B955BFD0EA0CBF2C8255BFB33E0DBF07
:10E5B000A44A55BF81920DBFFB1255BF38E60DBF6F
:10E5C00031DB54BFDA390EBF47A354BF658D0EBF90
:10E5D0003B6B54BFDBE00EBF0F3354BF3B340FBF68
:10E5E000C3FA53BF84870FBF55C253BFB8DA0FBFFA
:10E5F000C78953BFD52D10BF185153BFDC8010BF42
:10E60000491853BFCDD310BF59DF52BFA72611BF42
:10E6100049A652BF6B7911BF186D52BF19CC11BFFB
:10E62000C63352BFB01E12BF54FA51BF307112BF71
:10E63000C2C051BF9AC312BF108751BFEE1513BF9E
:10E640003D4D51BF2A6813BF4A1351BF50BA13BF83
:10E6500037D950BF5F0C14BF039F50BF585E14BF23
:10E66000AF6450BF39B014BF3B2A50BF040215BF7E
:10E67000A8EF4FBFB75315BFF4B44FBF54A515BF94
:10E680001F7A4FBFD9F615BF2B3F4FBF474816BF64
:10E6900017044FBF9F9916BFE4C84EBFDFEA16BFED
:10E6A000908D4EBF073C17BF1C524EBF188D17BF31
:10E6B00089164EBF12DE17BFD5DA4DBFF52E18BF33
:10E6C000029F4DBFC07F18BF10634DBF73D018BFEE
:10E6D000FD264DBF0F2119BFCBEA4CBF947119BF66
:10E6E00079AE4CBF00C219BF08724CBF55121ABF99
:10E6F00078354CBF93621ABFC7F84BBFB8B21ABF88
:10E70000F8BB4BBFC6021BBF097F4BBFBB521BBF31
:10E71000FA414BBF99A21BBFCC044BBF5FF21BBF9A
:10E720007FC74ABF0C421CBF138A4ABFA2911CBFBD
:10E73000874C4ABF1FE11CBFDC0E4ABF84301DBF9F
:10E7400012D149BFD17F1DBF299349BF06CF1DBF3D
:10E75000215549BF221E1EBFFA1649BF266D1EBF96
:10E76000B3D848BF12BC1EBF4E9A48BFE50A1FBFB0
:10E77000CA5B48BF9F591FBF271D48BF41A81FBF85
:10E7800065DE47BFCBF61FBF849F47BF3B4520BF19
:10E79000856047BF939320BF672147BFD2E120BF69
:10E7A0002AE246BFF92F21BFCEA246BF067E21BF77
:10E7B000546346BFFBCB21BFBB2346BFD71922BF43
:10E7C00003E445BF996722BF2DA445BF43B522BFCF
:10E7D000396445BFD30223BF262445BF4B5023BF16
:10E7E000F5E344BFA99D23BFA5A344BFEEEA23BF21
:10E7F000376344BF1A3824BFAB2244BF2C8524BFE3
:10E8000000E243BF25D224BF38A143BF041F25BF68
:10E81000516043BFCB6B25BF4C1F43BF77B825BFAB
:10E8200029DE42BF0A0526BFE89C42BF845126BFAD
:10E83000895B42BFE39D26BF0B1A42BF2AEA26BF6F
:10E8400070D841BF563627BFB79641BF688227BFF1
:10E85000E15441BF61CE27BFEC1241BF401A28BF2F
:10E86000DAD040BF056628BFA98E40BFB0B128BF2F
:10E870005C4C40BF41FD28BFF00940BFB84829BFEC
:10E8800067C73FBF159429BFC0843FBF57DF29BF6B
:10E89000FC413FBF802A2ABF1BFF3EBF8E752ABFA7
:10E8A0001BBC3EBF82C02ABFFF783EBF5B0B2BBFA5
:10E8B000C5353EBF1B562BBF6EF23DBFBFA02BBF61
:10E8C000F9AE3DBF4AEB2BBF676B3DBFB9352CBFDF
:10E8D000B8273DBF0F802CBFECE33CBF49CA2CBF1B
:10E8E00003A03CBF69142DBFFC5B3CBF6F5E2DBF16
:10E8F000D9173CBF59A82DBF98D33BBF29F22DBFD4
:10E900003B8F3BBFDE3B2EBFC14A3BBF78852EBF4E
:10E9100029063BBFF7CE2EBF75C13ABF5B182FBF8C
:10E92000A47C3ABFA5612FBFB7373ABFD3AA2FBF88
:10E93000ACF239BFE6F32FBF85AD39BFDE3C30BF47
:10E94000426839BFBB8530BFE12239BF7CCE30BFC2
:10E9500065DD38BF221731BFCB9738BFAD5F31BF00
:10E96000165238BF1DA831BF430C38BF71F031BFFC
:10E9700055C637BFAA3832BF4A8037BFC78032BFBB
:10E98000233A37BFC9C832BFDFF336BFAF1033BF3A
:10E990007FAD36BF7A5833BF046736BF29A033BF77
:10E9A0006C2036BFBCE733BFB8D935BF342F34BF76
:10E9B000E79235BF8F7634BFFB4B35BFCFBD34BF39
:10E9C000F30435BFF30435BFCFBD34BFFB4B35BFB8
:10E9D0008F7634BFE79235BF342F34BFB8D935BFF7
:10E9E000BCE733BF6C2036BF29A033BF046736BFF6
:10E9F0007A5833BF7FAD36BFAF1033BFDFF336BFBA
:10EA0000C9C832BF233A37BFC78032BF4A8037BF39
:10EA1000AA3832BF55C637BF71F031BF430C38BF7B
:10EA20001DA831BF165238BFAD5F31BFCB9738BF7D
:10EA3000221731BF65DD38BF7CCE30BFE12239BF40
:10EA4000BB8530BF426839BFDE3C30BF85AD39BFC2
:10EA5000E6F32FBFACF239BFD3AA2FBFB7373ABF07
:10EA6000A5612FBFA47C3ABF5B182FBF75C13ABF09
:10EA7000F7CE2EBF29063BBF78852EBFC14A3BBFCC
:10EA8000DE3B2EBF3B8F3BBF29F22DBF98D33BBF50
:10EA900059A82DBFD9173CBF6F5E2DBFFC5B3CBF93
:10EAA00069142DBF03A03CBF49CA2CBFECE33CBF97
:10EAB0000F802CBFB8273DBFB9352CBF676B3DBF5A
:10EAC0004AEB2BBFF9AE3DBFBFA02BBF6EF23DBFDF
:10EAD0001B562BBFC5353EBF5B0B2BBFFF783EBF20
:10EAE00082C02ABF1BBC3EBF8E752ABF1BFF3EBF24
:10EAF000802A2ABFFC413FBF57DF29BFC0843FBFE8
:10EB0000159429BF67C73FBFB84829BFF00940BF68
:10EB100041FD28BF5C4C40BFB0B128BFA98E40BFAB
:10EB2000056628BFDAD040BF401A28BFEC1241BFAB
:10EB300061CE27BFE15441BF688227BFB79641BF6E
:10EB4000563627BF70D841BF2AEA26BF0B1A42BFEC
:10EB5000E39D26BF895B42BF845126BFE89C42BF2C
:10EB60000A0526BF29DE42BF77B825BF4C1F43BF29
:10EB7000CB6B25BF516043BF041F25BF38A143BFE6
:10EB800025D224BF00E243BF2C8524BFAB2244BF63
:10EB90001A3824BF376344BFEEEA23BFA5A344BF9E
:10EBA000A99D23BFF5E344BF4B5023BF262445BF97
:10EBB000D30223BF396445BF43B522BF2DA445BF4F
:10EBC000996722BF03E445BFD71922BFBB2346BFC5
:10EBD000FBCB21BF546346BF067E21BFCEA246BFFA
:10EBE000F92F21BF2AE246BFD2E120BF672147BFEC
:10EBF000939320BF856047BF3B4520BF849F47BF9D
:10EC0000CBF61FBF65DE47BF41A81FBF271D48BF0A
:10EC10009F591FBFCA5B48BFE50A1FBF4E9A48BF36
:10EC200012BC1EBFB3D848BF266D1EBFFA1649BF1F
:10EC3000221E1EBF215549BF06CF1DBF299349BFC4
:10EC4000D17F1DBF12D149BF84301DBFDC0E4ABF2A
:10EC50001FE11CBF874C4ABFA2911CBF138A4ABF49
:10EC60000C421CBF7FC74ABF5FF21BBFCC044BBF27
:10EC700099A21BBFFA414BBFBB521BBF097F4BBFC1
:10EC8000C6021BBFF8BB4BBFB8B21ABFC7F84BBF19
:10EC900093621ABF78354CBF55121ABF08724CBF29
:10ECA00000C219BF79AE4CBF947119BFCBEA4CBFFB
:10ECB0000F2119BFFD264DBF73D018BF10634DBF84
:10ECC000C07F18BF029F4DBFF52E18BFD5DA4DBFCC
:10ECD00012DE17BF89164EBF188D17BF1C524EBFCC
:10ECE000073C17BF908D4EBFDFEA16BFE4C84EBF8A
:10ECF0009F9916BF17044FBF474816BF2B3F4FBF02
:10ED0000D9F615BF1F7A4FBF54A515BFF4B44FBF36
:10ED1000B75315BFA8EF4FBF040215BF3B2A50BF22
:10ED200039B014BFAF6450BF585E14BF039F50BFCB
:10ED30005F0C14BF37D950BF50BA13BF4A1351BF2D
:10ED40002A6813BF3D4D51BFEE1513BF108751BF49
:10ED50009AC312BFC2C051BF307112BF54FA51BF23
:10ED6000B01E12BFC63352BF19CC11BF186D52BFAF
:10ED70006B7911BF49A652BFA72611BF59DF52BFF9
:10ED8000CDD310BF491853BFDC8010BF185153BFFB
:10ED9000D52D10BFC78953BFB8DA0FBF55C253BFB7
:10EDA00084870FBFC3FA53BF3B340FBF0F3354BF29
:10EDB000DBE00EBF3B6B54BF658D0EBF47A354BF56
:10EDC000DA390EBF31DB54BF38E60DBFFB1255BF39
:10EDD00081920DBFA44A55BFB33E0DBF2C8255BFD3
:10EDE000D0EA0CBF93B955BFD7960CBFD9F055BF29
:10EDF000C9420CBFFE2756BFA5EE0BBF025F56BF30
:10EE00006B9A0BBFE59556BF1C460BBFA7CC56BFF0
:10EE1000B7F10ABF480357BF3D9D0ABFC73957BF67
:10EE2000AD480ABF267057BF09F409BF63A657BF94
:10EE30004E9F09BF7FDC57BF7F4A09BF791258BF79
:10EE40009BF508BF534858BFA1A008BF0B7E58BF11
:10EE5000924B08BFA1B358BF6FF607BF17E958BF61
:10EE600036A107BF6A1E59BFE84B07BF9C5359BF65
:10EE700086F606BFAD8859BF0EA106BF9CBD59BF1F
:10EE8000824B06BF6AF259BFE2F505BF16275ABF8B
:10EE90002CA005BFA05B5ABF624A05BF09905ABFAC
:10EEA00084F404BF50C45ABF919E04BF75F85ABF82
:10EEB000894804BF792C5BBF6DF203BF5A605BBF0A
:10EEC0003D9C03BF1A945BBFF84503BFB8C75BBF47
:10EED0009FEF02BF34FB5BBF329902BF8E2E5CBF37
:10EEE000B14202BFC7615CBF1CEC01BFDD945CBFD7
:10EEF000739501BFD1C75CBFB53E01BFA3FA5CBF2C
:10EF0000E4E700BF532D5DBFFF9000BFE15F5DBF31
:10EF1000063A00BF4D925DBFF3C5FFBE97C45DBF0B
:10EF2000B217FFBEBEF65DBF4A69FEBEC3285EBF14
:10EF3000BBBAFDBEA65A5EBF040CFDBE678C5EBFA9
:10EF4000275DFCBE05BE5EBF22AEFBBE81EF5EBF8D
:10EF5000F7FEFABEDB205FBFA54FFABE12525FBFBD
:10EF60002DA0F9BE27835FBF8EF0F8BE19B45FBF36
:10EF7000C840F8BEE9E45FBFDC90F7BE961560BFFD
:10EF8000CBE0F6BE214660BF9330F6BE897660BF07
:10EF90003580F5BECFA660BFB1CFF4BEF2D660BF5C
:10EFA000071FF4BEF20661BF386EF3BED03661BFF4
:10EFB00043BDF2BE8A6661BF290CF2BE229661BFD4
:10EFC000EA5AF1BE98C561BF85A9F0BEEAF461BFF7
:10EFD000FBF7EFBE1A2462BF4C46EFBE265362BF5A
:10EFE0007994EEBE108262BF80E2EDBED7B062BF00
:10EFF0006330EDBE7BDF62BF217EECBEFC0D63BFE4
:10F00000BBCBEBBE5A3C63BF3019EBBE956A63BF06
:10F010008166EABEAC9863BFAEB3E9BEA1C663BF6A
:10F02000B700E9BE73F463BF9C4DE8BE212264BF04
:10F030005D9AE7BEAC4F64BFFBE6E6BE147D64BFDD
:10F040007533E6BE59AA64BFCB7FE5BE7BD764BFEC
:10F05000FECBE4BE790465BF0E18E4BE543165BF33
:10F06000FA63E3BE0B5E65BFC4AFE2BEA08A65BFB4
:10F070006AFBE1BE10B765BFEE46E1BE5EE365BF69
:10F080004F92E0BE880F66BF8DDDDFBE8E3B66BF50
:10F09000A928DFBE716766BFA273DEBE309366BF6C
:10F0A00079BEDDBECCBE66BF2E09DDBE45EA66BFB9
:10F0B000C153DCBE991567BF319EDBBECA4067BF36
:10F0C00080E8DABED86B67BFAD32DABEC19667BFE3
:10F0D000B97CD9BE87C167BFA3C6D8BE2AEC67BFBB
:10F0E0006B10D8BEA81668BF135AD7BE034168BFBD
:10F0F00099A3D6BE396B68BFFDECD5BE4C9568BFF1
:10F100004136D5BE3CBF68BF647FD4BE07E968BF47
:10F1100067C8D3BEAE1269BF4811D3BE323C69BFC7
:10F12000095AD2BE916569BFAAA2D1BECC8E69BF71
:10F130002AEBD0BEE4B769BF8A33D0BED7E069BF3F
:10F14000CA7BCFBEA7096ABFEAC3CEBE52326ABF2E
:10F15000EA0BCEBED95A6ABFCA53CDBE3C836ABF42
:10F160008B9BCCBE7BAB6ABF2CE3CBBE95D36ABF77
:10F17000AE2ACBBE8CFB6ABF1072CABE5E236BBFC9
:10F1800053B9C9BE0C4B6BBF7700C9BE95726BBF3C
:10F190007C47C8BEFB996BBF628EC7BE3BC16BBFCD
:10F1A00029D5C6BE58E86BBFD21BC6BE500F6CBF78
:10F1B0005C62C5BE24366CBFC8A8C4BED45C6CBF3C
:10F1C00015EFC3BE5E836CBF4435C3BEC5A96CBF1B
:10F1D000557BC2BE07D06CBF48C1C1BE24F66CBF10
:10F1E0001E07C1BE1D1C6DBFD54CC0BEF2416DBF18
:10F1F0006F92BFBEA1676DBFEBD7BEBE2D8D6DBF39
:10F200004A1DBEBE93B26DBF8B62BDBED5D76DBF6A
:10F21000AFA7BCBEF2FC6DBFB6ECBBBEEB216EBFB0
:10F22000A031BBBEBE466EBF6E76BABE6D6B6EBF02
:10F230001EBBB9BEF88F6EBFB2FFB8BE5DB46EBF65
:10F240002A44B8BE9ED86EBF8488B7BEBAFC6EBFD3
:10F25000C3CCB6BEB0206FBFE610B6BE83446FBF4E
:10F26000EC54B5BE30686FBFD698B4BEB88B6FBFD4
:10F27000A5DCB3BE1BAF6FBF5820B3BE5AD26FBF61
:10F28000EF63B2BE73F56FBF6BA7B1BE671870BFF7
:10F29000CBEAB0BE373B70BF102EB0BEE15D70BF91
:10F2A0003A71AFBE668070BF49B4AEBEC6A270BF31
:10F2B0003CF7ADBE02C570BF153AADBE17E770BFD3
:10F2C000D47CACBE080971BF77BFABBED42A71BF76
:10F2D0000102ABBE7A4C71BF6F44AABEFB6D71BF19
:10F2E000C486A9BE578F71BFFEC8A8BE8EB071BFBD
:10F2F0001F0BA8BE9FD171BF254DA7BE8CF271BF59
:10F30000128FA6BE521372BFE5D0A5BEF43372BFF2
:10F310009F12A5BE705472BF3F54A4BEC77472BF83
:10F32000C595A3BEF89472BF33D7A2BE04B572BF11
:10F330008718A2BEEBD472BFC259A1BEACF472BF93
:10F34000E59AA0BE471473BFEEDB9FBEBE3373BF0A
:10F35000DF1C9FBE0E5373BFB85D9EBE397273BF74
:10F36000789E9DBE3F9173BF20DF9CBE1FB073BFD0
:10F37000AF1F9CBED9CE73BF27609BBE6EED73BF1F
:10F3800086A09ABEDD0B74BFCEE099BE272A74BF5B
:10F39000FE2099BE4B4874BF166198BE496674BF83
:10F3A00017A197BE228474BF00E196BED5A174BF99
:10F3B000D22096BE62BF74BF8D6095BEC9DC74BF9B
:10F3C00031A094BE0BFA74BFBFDF93BE271775BF81
:10F3D000351F93BE1D3475BF945E92BEED5075BF50
:10F3E000DD9D91BE976D75BF10DD90BE1C8A75BF07
:10F3F0002C1C90BE7BA675BF325B8FBEB3C275BF9F
:10F40000229A8EBEC6DE75BFFCD88DBEB3FA75BF1C
:10F41000C0178DBE7A1676BF6E568CBE1B3276BF75
:10F4200007958BBE974D76BF8AD38ABEEC6876BFB0
:10F43000F8118ABE1B8476BF505089BE249F76BFC8
:10F44000938E88BE07BA76BFC1CC87BEC4D476BFC0
:10F45000DA0A87BE5BEF76BFDF4886BECC0977BF8E
:10F46000CE8685BE172477BFAAC484BE3C3E77BF34
:10F47000700284BE3A5877BF224083BE137277BFB2
:10F48000C07D82BEC58B77BF4ABB81BE51A577BF09
:10F49000C0F880BEB7BE77BF223680BEF7D777BF31
:10F4A000E1E67EBE10F177BF56617DBE040A78BFEB
:10F4B000A4DB7BBED12278BFCB557ABE773B78BF29
:10F4C000CCCF78BEF85378BFA64977BE526C78BFD0
:10F4D0005AC375BE868478BFE83C74BE939C78BFDF
:10F4E00051B672BE7BB478BF942F71BE3BCC78BF4F
:10F4F000B2A86FBED6E378BFAB216EBE4AFB78BF21
:10F500007F9A6CBE981279BF2F136BBEBF2979BF4B
:10F51000BA8B69BEC04079BF220468BE9A5779BFD2
:10F52000667C66BE4E6E79BF86F464BEDC8479BFAD
:10F53000836C63BE439B79BF5CE461BE83B179BFDA
:10F54000135C60BE9DC779BFA8D35EBE91DD79BF55
:10F550001A4B5DBE5EF379BF6AC25BBE04097ABF17
:10F5600097395ABE841E7ABFA4B058BEDD337ABF25
:10F570008F2757BE10497ABF589E55BE1C5E7ABF72
:10F58000011554BE02737ABF898B52BEC1877ABF00
:10F59000F10151BE599C7ABF38784FBECBB07ABFCB
:10F5A00060EE4DBE16C57ABF67644CBE3AD97ABFCD
:10F5B0004FDA4ABE37ED7ABF185049BE0E017BBF05
:10F5C000C2C547BEBE147BBF4D3B46BE48287BBF6D
:10F5D000B9B044BEAB3B7BBF072643BEE74E7BBF03
:10F5E000379B41BEFC617BBF491040BEEA747BBFC4
:10F5F0003E853EBEB2877BBF15FA3CBE539A7BBFA9
:10F60000CF6E3BBECDAC7BBF6CE339BE20BF7BBFB2
:10F61000EC5738BE4DD17BBF50CC36BE53E37BBFD9
:10F62000984035BE31F57BBFC4B433BEE9067CBF1C
:10F63000D42832BE7A187CBFC99C30BEE5297CBF75
:10F64000A2102FBE283B7CBF61842DBE444C7CBFE2
:10F6500004F82BBE3A5D7CBF8D6B2ABE086E7CBF62
:10F66000FCDE28BEB07E7CBF515227BE318F7CBFEE
:10F670008CC525BE8A9F7CBFAD3824BEBDAF7CBF84
:10F68000B6AB22BEC9BF7CBFA51E21BEAECF7CBF1C
:10F690007B911FBE6CDF7CBF38041EBE03EF7CBFB6
:10F6A000DE761CBE73FE7CBF6BE91ABEBC0D7DBF4F
:10F6B000E05B19BEDD1C7DBF3DCE17BED82B7DBFE4
:10F6C000834016BEAC3A7DBFB2B214BE59497DBF6D
:10F6D000CA2413BEDE577DBFCC9611BE3D667DBFEA
:10F6E000B70810BE74747DBF8B7A0EBE85827DBF55
:10F6F0004AEC0CBE6E907DBFF35D0BBE309E7DBFAD
:10F7000086CF09BECCAB7DBF054108BE40B97DBFE9
:10F710006EB206BE8CC67DBFC22305BEB2D37DBF0E
:10F72000029503BEB1E07DBF2E0602BE88ED7DBF0F
:10F73000457700BE38FA7DBF92D0FDBDC2067EBFC0
:10F7400073B2FABD24137EBF2C94F7BD5E1F7EBF3B
:10F75000C075F4BD722B7EBF2E57F1BD5E377EBFE4
:10F760007638EEBD23437EBF9A19EBBDC14E7EBFF6
:10F770009AFAE7BD385A7EBF76DBE4BD88657EBF66
:10F780002EBCE1BDB0707EBFC49CDEBDB17B7EBF30
:10F79000377DDBBD8B867EBF895DD8BD3D917EBF49
:10F7A000B93DD5BDC99B7EBFC81DD2BD2DA67EBFAC
:10F7B000B7FDCEBD69B07EBF86DDCBBD7FBA7EBF53
:10F7C00036BDC8BD6DC47EBFC69CC5BD34CE7EBF30
:10F7D000397CC2BDD4D77EBF8D5BBFBD4CE17EBF3F
:10F7E000C33ABCBD9DEA7EBFDD19B9BDC7F37EBF7C
:10F7F000DAF8B5BDC9FC7EBFBBD7B2BDA4057FBFDB
:10F8000080B6AFBD580E7FBF2B95ACBDE4167FBF51
:10F81000BA73A9BD491F7FBF3052A6BD87277FBFDE
:10F820008C30A3BD9D2F7FBFCF0EA0BD8D377FBF76
:10F83000F9EC9CBD543F7FBF0ACB99BDF4467FBF16
:10F8400005A996BD6D4E7FBFE78693BDBF557FBFAF
:10F85000B46490BDE95C7FBF6A428DBDEC637FBF3D
:10F860000A208ABDC76A7FBF94FD86BD7B717FBFBA
:10F870000ADB83BD08787FBF6CB880BD6D7E7FBF1B
:10F88000742B7BBDAB847FBFE9E574BDC28A7FBFAB
:10F8900038A06EBDB1907FBF625A68BD78967FBFB9
:10F8A000681462BD189C7FBF4CCE5BBD91A17FBF29
:10F8B0000E8855BDE3A67FBFAF414FBD0DAC7FBFE6
:10F8C0002FFB48BD0FB17FBF91B442BDEAB57FBFEA
:10F8D000D56D3CBD9EBA7FBFFC2636BD2ABF7FBF1B
:10F8E00007E02FBD8FC37FBFF69829BDCCC77FBF70
:10F8F000CC5123BDE2CB7FBF880A1DBDD1CF7FBFD6
:10F900002CC316BD98D37FBFB87B10BD37D77FBF40
:10F910002F340ABDAFDA7FBF90EC03BD00DE7FBF9E
:10F92000B949FBBC29E17FBF2DBAEEBC2BE47FBFF8
:10F930007B2AE2BC05E77FBFA69AD5BCB8E97FBFAA
:10F94000B00AC9BC43EC7FBF9B7ABCBCA7EE7FBFAB
:10F9500069EAAFBCE3F07FBF1C5AA3BCF8F27FBFDB
:10F96000B6C996BCE6F47FBF38398ABCACF67FBF17
:10F970004B517BBC4AF87FBF003062BCC1F97FBFEE
:10F98000900E49BC11FB7FBF02ED2FBC39FC7FBF3D
:10F9900059CB16BC39FD7FBF3053FBBB13FE7FBF75
:10F9A000890FC9BBC4FE7FBFC1CB96BB4EFF7FBFD3
:10F9B000C70F49BBB1FF7FBFD40FC9BAECFF7FBFF0
:10F9C00000000080000080BFD40FC93AECFF7FBF69
:10F9D000C70F493BB1FF7FBFC1CB963B4EFF7FBFF7
:10F9E000890FC93BC4FE7FBF3053FB3B13FE7FBF73
:10F9F00059CB163C39FD7FBF02ED2F3C39FC7FBF50
:10FA0000900E493C11FB7FBF0030623CC1F97FBFC3
:10FA10004B517B3C4AF87FBF38398A3CACF67FBFFC
:10FA2000B6C9963CE6F47FBF1C5AA33CF8F27FBFF0
:10FA300069EAAF3CE3F07FBF9B7ABC3CA7EE7FBF97
:10FA4000B00AC93C43EC7FBFA69AD53CB8E97FBF5A
:10FA50007B2AE23C05E77FBF2DBAEE3C2BE47FBF5B
:10FA6000B949FB3C29E17FBF90EC033D00DE7FBF3D
:10FA70002F340A3DAFDA7FBFB87B103D37D77FBF49
:10FA80002CC3163D98D37FBF880A1D3DD1CF7FBFC1
:10FA9000CC51233DE2CB7FBFF698293DCCC77FBF39
:10FAA00007E02F3D8FC37FBFFC26363D2ABF7FBFB7
:10FAB000D56D3C3D9EBA7FBF91B4423DEAB57FBF54
:10FAC0002FFB483D0FB17FBFAF414F3D0DAC7FBF16
:10FAD0000E88553DE3A67FBF4CCE5B3D91A17FBF15
:10FAE0006814623D189C7FBF625A683D78967FBF5C
:10FAF00038A06E3DB1907FBFE9E5743DC28A7FBFFB
:10FB0000742B7B3DAB847FBF6CB8803D6D7E7FBF27
:10FB10000ADB833D08787FBF94FD863D7B717FBF04
:10FB20000A208A3DC76A7FBF6A428D3DEC637FBF72
:10FB3000B464903DE95C7FBFE786933DBF557FBFCE
:10FB400005A9963D6D4E7FBF0ACB993DF4467FBF18
:10FB5000F9EC9C3D543F7FBFCF0EA03D8D377FBF5A
:10FB60008C30A33D9D2F7FBF3052A63D87277FBF9E
:10FB7000BA73A93D491F7FBF2B95AC3DE4167FBFEB
:10FB800080B6AF3D580E7FBFBBD7B23DA4057FBF47
:10FB9000DAF8B53DC9FC7EBFDD19B93DC7F37EBFBC
:10FBA000C33ABC3D9DEA7EBF8D5BBF3D4CE17EBF4D
:10FBB000397CC23DD4D77EBFC69CC53D34CE7EBF06
:10FBC00036BDC83D6DC47EBF86DDCB3D7FBA7EBFEE
:10FBD000B7FDCE3D69B07EBFC81DD23D2DA67EBF0C
:10FBE000B93DD53DC99B7EBF895DD83D3D917EBF66
:10FBF000377DDB3D8B867EBFC49CDE3DB17B7EBF07
:10FC00002EBCE13DB0707EBF76DBE43D88657EBFF3
:10FC10009AFAE73D385A7EBF9A19EB3DC14E7EBF36
:10FC20007638EE3D23437EBF2E57F13D5E377EBFD3
:10FC3000C075F43D722B7EBF2C94F73D5E1F7EBFD6
:10FC400073B2FA3D24137EBF92D0FD3DC2067EBF43
:10FC50004577003E38FA7DBF2E06023E88ED7DBF17
:10FC60000295033EB1E07DBFC223053EB2D37DBF06
:10FC70006EB2063E8CC67DBF0541083E40B97DBFD1
:10FC800086CF093ECCAB7DBFF35D0B3E309E7DBF82
:10FC90004AEC0C3E6E907DBF8B7A0E3E85827DBF16
:10FCA000B708103E74747DBFCC96113E3D667DBF93
:10FCB000CA24133EDE577DBFB2B2143E59497DBF00
:10FCC0008340163EAC3A7DBF3DCE173ED82B7DBF5C
:10FCD000E05B193EDD1C7DBF6BE91A3EBC0D7DBFAC
:10FCE000DE761C3E73FE7CBF38041E3E03EF7CBFF5
:10FCF0007B911F3E6CDF7CBFA51E213EAECF7CBF3B
:10FD0000B6AB223EC9BF7CBFAD38243EBDAF7CBF81
:10FD10008CC5253E8A9F7CBF5152273E318F7CBFC8
:10FD2000FCDE283EB07E7CBF8D6B2A3E086E7CBF19
:10FD300004F82B3E3A5D7CBF61842D3E444C7CBF71
:10FD4000A2102F3E283B7CBFC99C303EE5297CBFDA
:10FD5000D428323E7A187CBFC4B4333EE9067CBF57
:10FD60009840353E31F57BBF50CC363E53E37BBFE8
:10FD7000EC57383E4DD17BBF6CE3393E20BF7BBF93
:10FD8000CF6E3B3ECDAC7BBF15FA3C3E539A7BBF5A
:10FD90003E853E3EB2877BBF4910403EEA747BBF42
:10FDA000379B413EFC617BBF0726433EE74E7BBF4E
:10FDB000B9B0443EAB3B7BBF4D3B463E48287BBF82
:10FDC000C2C5473EBE147BBF1850493E0E017BBFE3
:10FDD0004FDA4A3E37ED7ABF67644C3E3AD97ABF74
:10FDE00060EE4D3E16C57ABF38784F3ECBB07ABF35
:10FDF000F101513E599C7ABF898B523EC1877ABF2F
:10FE00000115543E02737ABF589E553E1C5E7ABF60
:10FE10008F27573E10497ABFA4B0583EDD337ABFD2
:10FE200097395A3E841E7ABF6AC25B3E04097ABF84
:10FE30001A4B5D3E5EF379BFA8D35E3E91DD79BF7C
:10FE4000135C603E9DC779BF5CE4613E83B179BFBE
:10FE5000836C633E439B79BF86F4643EDC8479BF48
:10FE6000667C663E4E6E79BF2204683E9A5779BF23
:10FE7000BA8B693EC04079BF2F136B3EBF2979BF53
:10FE80007F9A6C3E981279BFAB216E3E4AFB78BFD9
:10FE9000B2A86F3ED6E378BF942F713E3BCC78BFBB
:10FEA00051B6723E7BB478BFE83C743E939C78BFF9
:10FEB0005AC3753E868478BFA649773E526C78BF98
:10FEC000CCCF783EF85378BFCB557A3E773B78BF9E
:10FED000A4DB7B3ED12278BF56617D3E040A78BF09
:10FEE000E1E67E3E10F177BF2236803EF7D777BF3E
:10FEF000C0F8803EB7BE77BF4ABB813E51A577BFF1
:10FF0000C07D823EC58B77BF2240833E137277BF90
:10FF10007002843E3A5877BFAAC4843E3C3E77BF05
:10FF2000CE86853E172477BFDF48863ECC0977BF53
:10FF3000DA0A873E5BEF76BFC1CC873EC4D476BF7A
:10FF4000938E883E07BA76BF5050893E249F76BF75
:10FF5000F8118A3E1B8476BF8AD38A3EEC6876BF4E
:10FF600007958B3E974D76BF6E568C3E1B3276BF03
:10FF7000C0178D3E7A1676BFFCD88D3EB3FA75BF9A
:10FF8000229A8E3EC6DE75BF325B8F3EB3C275BF0E
:10FF90002C1C903E7BA675BF10DD903E1C8A75BF61
:10FFA000DD9D913E976D75BF945E923EED5075BF9D
:10FFB000351F933E1D3475BFBFDF933E271775BFB6
:10FFC00031A0943E0BFA74BF8D60953EC9DC74BFBE
:10FFD000D220963E62BF74BF00E1963ED5A174BFA9
:10FFE00017A1973E228474BF1661983E496674BF7C
:10FFF000FE20993E4B4874BFCEE0993E272A74BF3D
:020000040801F1
:1000000086A09A3EDD0B74BF27609B3E6EED73BFEA
:10001000AF1F9C3ED9CE73BF20DF9C3E1FB073BF85
:10002000789E9D3E3F9173BFB85D9E3E397273BF0F
:10003000DF1C9F3E0E5373BFEEDB9F3EBE3373BF8C
:10004000E59AA03E471473BFC259A13EACF472BFFB
:100050008718A23EEBD472BF33D7A23E04B572BF5D
:10006000C595A33EF89472BF3F54A43EC77472BFB7
:100070009F12A53E705472BFE5D0A53EF43372BF07
:10008000128FA63E521372BF254DA73E8CF271BF50
:100090001F0BA83E9FD171BFFEC8A83E8EB071BF96
:1000A000C486A93E578F71BF6F44AA3EFB6D71BFD6
:1000B0000102AB3E7A4C71BF77BFAB3ED42A71BF11
:1000C000D47CAC3E080971BF153AAD3E17E770BF4E
:1000D0003CF7AD3E02C570BF49B4AE3EC6A270BF8C
:1000E0003A71AF3E668070BF102EB03EE15D70BFCA
:1000F000CBEAB03E373B70BF6BA7B13E671870BF0D
:10010000EF63B23E73F56FBF5820B33E5AD26FBF54
:10011000A5DCB33E1BAF6FBFD698B43EB88B6FBFA4
:10012000EC54B53E30686FBFE610B63E83446FBFF7
:10013000C3CCB63EB0206FBF8488B73EBAFC6EBF5A
:100140002A44B83E9ED86EBFB2FFB83E5DB46EBFC3
:100150001EBBB93EF88F6EBF6E76BA3E6D6B6EBF3A
:10016000A031BB3EBE466EBFB6ECBB3EEB216EBFC0
:10017000AFA7BC3EF2FC6DBF8B62BD3ED5D76DBF55
:100180004A1DBE3E93B26DBFEBD7BE3E2D8D6DBFF7
:100190006F92BF3EA1676DBFD54CC03EF2416DBFAF
:1001A0001E07C13E1D1C6DBF48C1C13E24F66CBF79
:1001B000557BC23E07D06CBF4435C33EC5A96CBF5A
:1001C00015EFC33E5E836CBFC8A8C43ED45C6CBF51
:1001D0005C62C53E24366CBFD21BC63E500F6CBF5E
:1001E00029D5C63E58E86BBF628EC73E3BC16BBF88
:1001F0007C47C83EFB996BBF7700C93E95726BBFC9
:1002000053B9C93E0C4B6BBF1072CA3E5E236BBF25
:10021000AE2ACB3E8CFB6ABF2CE3CB3E95D36ABFA4
:100220008B9BCC3E7BAB6ABFCA53CD3E3C836ABF3F
:10023000EA0BCE3ED95A6ABFEAC3CE3E52326ABFFB
:10024000CA7BCF3EA7096ABF8A33D03ED7E069BFD9
:100250002AEBD03EE4B769BFAAA2D13ECC8E69BFDB
:10026000095AD23E916569BF4811D33E323C69BFFD
:1002700067C8D33EAE1269BF647FD43E07E968BF4A
:100280004136D53E3CBF68BFFDECD53E4C9568BFBE
:1002900099A3D63E396B68BF135AD73E034168BF56
:1002A0006B10D83EA81668BFA3C6D83E2AEC67BF1D
:1002B000B97CD93E87C167BFAD32DA3EC19667BF10
:1002C00080E8DA3ED86B67BF319EDB3ECA4067BF2D
:1002D000C153DC3E991567BF2E09DD3E45EA66BF76
:1002E00079BEDD3ECCBE66BFA273DE3E309366BFF4
:1002F000A928DF3E716766BF8DDDDF3E8E3B66BF9E
:100300004F92E03E880F66BFEE46E13E5EE365BF7A
:100310006AFBE13E10B765BFC4AFE23EA08A65BF8D
:10032000FA63E33E0B5E65BF0E18E43E543165BFD1
:10033000FECBE43E790465BFCB7FE53E7BD764BF4F
:100340007533E63E59AA64BFFBE6E63E147D64BF02
:100350005D9AE73EAC4F64BF9C4DE83E212264BFEE
:10036000B700E93E73F463BFAEB3E93EA1C663BF15
:100370008166EA3EAC9863BF3019EB3E956A63BF75
:10038000BBCBEB3E5A3C63BF217EEC3EFC0D63BF12
:100390006330ED3E7BDF62BF80E2ED3ED7B062BFEF
:1003A0007994EE3E108262BF4C46EF3E265362BF08
:1003B000FBF7EF3E1A2462BF85A9F03EEAF461BF65
:1003C000EA5AF13E98C561BF290CF23E229661BF00
:1003D00043BDF23E8A6661BF386EF33ED03661BFE0
:1003E000071FF43EF20661BFB1CFF43EF2D660BF04
:1003F0003580F53ECFA660BF9330F63E897660BF6C
:10040000CBE0F63E214660BFDC90F73E961560BF1C
:10041000C840F83EE9E45FBF8EF0F83E19B45FBF14
:100420002DA0F93E27835FBFA54FFA3E12525FBF52
:10043000F7FEFA3EDB205FBF22AEFB3E81EF5EBFE0
:10044000275DFC3E05BE5EBF040CFD3E678C5EBFB3
:10045000BBBAFD3EA65A5EBF4A69FE3EC3285EBFD8
:10046000B217FF3EBEF65DBFF3C5FF3E97C45DBF4A
:10047000063A003F4D925DBFFF90003FE15F5DBFD8
:10048000E4E7003F532D5DBFB53E013FA3FA5CBFDB
:100490007395013FD1C75CBF1CEC013FDD945CBF8D
:1004A000B142023FC7615CBF3299023F8E2E5CBFF2
:1004B0009FEF023F34FB5BBFF845033FB8C75BBF0C
:1004C0003D9C033F1A945BBF6DF2033F5A605BBFD4
:1004D0008948043F792C5BBF919E043F75F85ABF51
:1004E00084F4043F50C45ABF624A053F09905ABF82
:1004F0002CA0053FA05B5ABFE2F5053F16275ABF67
:10050000824B063F6AF259BF0EA1063F9CBD59BF00
:1005100086F6063FAD8859BFE84B073F9C5359BF4D
:1005200036A1073F6A1E59BF6FF6073F17E958BF4C
:10053000924B083FA1B358BFA1A0083F0B7E58BF04
:100540009BF5083F534858BF7F4A093F791258BF6F
:100550004E9F093F7FDC57BF09F4093F63A657BF91
:10056000AD480A3F267057BF3D9D0A3FC73957BF68
:10057000B7F10A3F480357BF1C460B3FA7CC56BFF5
:100580006B9A0B3FE59556BFA5EE0B3F025F56BF3A
:10059000C9420C3FFE2756BFD7960C3FD9F055BF36
:1005A000D0EA0C3F93B955BFB33E0D3F2C8255BFE7
:1005B00081920D3FA44A55BF38E60D3FFB1255BF4F
:1005C000DA390E3F31DB54BF658D0E3F47A354BF70
:1005D000DBE00E3F3B6B54BF3B340F3F0F3354BF48
:1005E00084870F3FC3FA53BFB8DA0F3F55C253BFDA
:1005F000D52D103FC78953BFDC80103F185153BF22
:10060000CDD3103F491853BFA726113F59DF52BF22
:100610006B79113F49A652BF19CC113F186D52BFDB
:10062000B01E123FC63352BF3071123F54FA51BF51
:100630009AC3123FC2C051BFEE15133F108751BF7E
:100640002A68133F3D4D51BF50BA133F4A1351BF63
:100650005F0C143F37D950BF585E143F039F50BF03
:1006600039B0143FAF6450BF0402153F3B2A50BF5E
:10067000B753153FA8EF4FBF54A5153FF4B44FBF74
:10068000D9F6153F1F7A4FBF4748163F2B3F4FBF44
:100690009F99163F17044FBFDFEA163FE4C84EBFCD
:1006A000073C173F908D4EBF188D173F1C524EBF11
:1006B00012DE173F89164EBFF52E183FD5DA4DBF13
:1006C000C07F183F029F4DBF73D0183F10634DBFCE
:1006D0000F21193FFD264DBF9471193FCBEA4CBF46
:1006E00000C2193F79AE4CBF55121A3F08724CBF79
:1006F00093621A3F78354CBFB8B21A3FC7F84BBF68
:10070000C6021B3FF8BB4BBFBB521B3F097F4BBF11
:1007100099A21B3FFA414BBF5FF21B3FCC044BBF7A
:100720000C421C3F7FC74ABFA2911C3F138A4ABF9D
:100730001FE11C3F874C4ABF84301D3FDC0E4ABF7F
:10074000D17F1D3F12D149BF06CF1D3F299349BF1D
:10075000221E1E3F215549BF266D1E3FFA1649BF76
:1007600012BC1E3FB3D848BFE50A1F3F4E9A48BF90
:100770009F591F3FCA5B48BF41A81F3F271D48BF65
:10078000CBF61F3F65DE47BF3B45203F849F47BFF9
:100790009393203F856047BFD2E1203F672147BF49
:1007A000F92F213F2AE246BF067E213FCEA246BF57
:1007B000FBCB213F546346BFD719223FBB2346BF23
:1007C0009967223F03E445BF43B5223F2DA445BFAF
:1007D000D302233F396445BF4B50233F262445BFF6
:1007E000A99D233FF5E344BFEEEA233FA5A344BF01
:1007F0001A38243F376344BF2C85243FAB2244BFC3
:1008000025D2243F00E243BF041F253F38A143BF48
:10081000CB6B253F516043BF77B8253F4C1F43BF8B
:100820000A05263F29DE42BF8451263FE89C42BF8D
:10083000E39D263F895B42BF2AEA263F0B1A42BF4F
:100840005636273F70D841BF6882273FB79641BFD1
:1008500061CE273FE15441BF401A283FEC1241BF0F
:100860000566283FDAD040BFB0B1283FA98E40BF0F
:1008700041FD283F5C4C40BFB848293FF00940BFCC
:100880001594293F67C73FBF57DF293FC0843FBF4B
:10089000802A2A3FFC413FBF8E752A3F1BFF3EBF87
:1008A00082C02A3F1BBC3EBF5B0B2B3FFF783EBF85
:1008B0001B562B3FC5353EBFBFA02B3F6EF23DBF41
:1008C0004AEB2B3FF9AE3DBFB9352C3F676B3DBFBF
:1008D0000F802C3FB8273DBF49CA2C3FECE33CBFFB
:1008E00069142D3F03A03CBF6F5E2D3FFC5B3CBFF6
:1008F00059A82D3FD9173CBF29F22D3F98D33BBFB4
:10090000DE3B2E3F3B8F3BBF78852E3FC14A3BBF2E
:10091000F7CE2E3F29063BBF5B182F3F75C13ABF6C
:10092000A5612F3FA47C3ABFD3AA2F3FB7373ABF68
:10093000E6F32F3FACF239BFDE3C303F85AD39BF27
:10094000BB85303F426839BF7CCE303FE12239BFA2
:100950002217313F65DD38BFAD5F313FCB9738BFE0
:100960001DA8313F165238BF71F0313F430C38BFDC
:10097000AA38323F55C637BFC780323F4A8037BF9B
:10098000C9C8323F233A37BFAF10333FDFF336BF1A
:100990007A58333F7FAD36BF29A0333F046736BF57
:1009A000BCE7333F6C2036BF342F343FB8D935BF56
:1009B0008F76343FE79235BFCFBD343FFB4B35BF19
:1009C000F304353FF30435BFFB4B353FCFBD34BF98
:1009D000E792353F8F7634BFB8D9353F342F34BFD7
:1009E0006C20363FBCE733BF0467363F29A033BFD6
:1009F0007FAD363F7A5833BFDFF3363FAF1033BF9A
:100A0000233A373FC9C832BF4A80373FC78032BF19
:100A100055C6373FAA3832BF430C383F71F031BF5B
:100A20001652383F1DA831BFCB97383FAD5F31BF5D
:100A300065DD383F221731BFE122393F7CCE30BF20
:100A40004268393FBB8530BF85AD393FDE3C30BFA2
:100A5000ACF2393FE6F32FBFB7373A3FD3AA2FBFE7
:100A6000A47C3A3FA5612FBF75C13A3F5B182FBFE9
:100A700029063B3FF7CE2EBFC14A3B3F78852EBFAC
:100A80003B8F3B3FDE3B2EBF98D33B3F29F22DBF30
:100A9000D9173C3F59A82DBFFC5B3C3F6F5E2DBF73
:100AA00003A03C3F69142DBFECE33C3F49CA2CBF77
:100AB000B8273D3F0F802CBF676B3D3FB9352CBF3A
:100AC000F9AE3D3F4AEB2BBF6EF23D3FBFA02BBFBF
:100AD000C5353E3F1B562BBFFF783E3F5B0B2BBF00
:100AE0001BBC3E3F82C02ABF1BFF3E3F8E752ABF04
:100AF000FC413F3F802A2ABFC0843F3F57DF29BFC8
:100B000067C73F3F159429BFF009403FB84829BF48
:100B10005C4C403F41FD28BFA98E403FB0B128BF8B
:100B2000DAD0403F056628BFEC12413F401A28BF8B
:100B3000E154413F61CE27BFB796413F688227BF4E
:100B400070D8413F563627BF0B1A423F2AEA26BFCC
:100B5000895B423FE39D26BFE89C423F845126BF0C
:100B600029DE423F0A0526BF4C1F433F77B825BF09
:100B70005160433FCB6B25BF38A1433F041F25BFC6
:100B800000E2433F25D224BFAB22443F2C8524BF43
:100B90003763443F1A3824BFA5A3443FEEEA23BF7E
:100BA000F5E3443FA99D23BF2624453F4B5023BF77
:100BB0003964453FD30223BF2DA4453F43B522BF2F
:100BC00003E4453F996722BFBB23463FD71922BFA5
:100BD0005463463FFBCB21BFCEA2463F067E21BFDA
:100BE0002AE2463FF92F21BF6721473FD2E120BFCC
:100BF0008560473F939320BF849F473F3B4520BF7D
:100C000065DE473FCBF61FBF271D483F41A81FBFEA
:100C1000CA5B483F9F591FBF4E9A483FE50A1FBF16
:100C2000B3D8483F12BC1EBFFA16493F266D1EBFFF
:100C30002155493F221E1EBF2993493F06CF1DBFA4
:100C400012D1493FD17F1DBFDC0E4A3F84301DBF0A
:100C5000874C4A3F1FE11CBF138A4A3FA2911CBF29
:100C60007FC74A3F0C421CBFCC044B3F5FF21BBF07
:100C7000FA414B3F99A21BBF097F4B3FBB521BBFA1
:100C8000F8BB4B3FC6021BBFC7F84B3FB8B21ABFF9
:100C900078354C3F93621ABF08724C3F55121ABF09
:100CA00079AE4C3F00C219BFCBEA4C3F947119BFDB
:100CB000FD264D3F0F2119BF10634D3F73D018BF64
:100CC000029F4D3FC07F18BFD5DA4D3FF52E18BFAC
:100CD00089164E3F12DE17BF1C524E3F188D17BFAC
:100CE000908D4E3F073C17BFE4C84E3FDFEA16BF6A
:100CF00017044F3F9F9916BF2B3F4F3F474816BFE2
:100D00001F7A4F3FD9F615BFF4B44F3F54A515BF16
:100D1000A8EF4F3FB75315BF3B2A503F040215BF02
:100D2000AF64503F39B014BF039F503F585E14BFAB
:100D300037D9503F5F0C14BF4A13513F50BA13BF0D
:100D40003D4D513F2A6813BF1087513FEE1513BF29
:100D5000C2C0513F9AC312BF54FA513F307112BF03
:100D6000C633523FB01E12BF186D523F19CC11BF8F
:100D700049A6523F6B7911BF59DF523FA72611BFD9
:100D80004918533FCDD310BF1851533FDC8010BFDB
:100D9000C789533FD52D10BF55C2533FB8DA0FBF97
:100DA000C3FA533F84870FBF0F33543F3B340FBF09
:100DB0003B6B543FDBE00EBF47A3543F658D0EBF36
:100DC00031DB543FDA390EBFFB12553F38E60DBF19
:100DD000A44A553F81920DBF2C82553FB33E0DBFB3
:100DE00093B9553FD0EA0CBFD9F0553FD7960CBF09
:100DF000FE27563FC9420CBF025F563FA5EE0BBF10
:100E0000E595563F6B9A0BBFA7CC563F1C460BBFD0
:100E10004803573FB7F10ABFC739573F3D9D0ABF47
:100E20002670573FAD480ABF63A6573F09F409BF74
:100E30007FDC573F4E9F09BF7912583F7F4A09BF59
:100E40005348583F9BF508BF0B7E583FA1A008BFF1
:100E5000A1B3583F924B08BF17E9583F6FF607BF41
:100E60006A1E593F36A107BF9C53593FE84B07BF45
:100E7000AD88593F86F606BF9CBD593F0EA106BFFF
:100E80006AF2593F824B06BF16275A3FE2F505BF6B
:100E9000A05B5A3F2CA005BF09905A3F624A05BF8C
:100EA00050C45A3F84F404BF75F85A3F919E04BF62
:100EB000792C5B3F894804BF5A605B3F6DF203BFEA
:100EC0001A945B3F3D9C03BFB8C75B3FF84503BF27
:100ED00034FB5B3F9FEF02BF8E2E5C3F329902BF17
:100EE000C7615C3FB14202BFDD945C3F1CEC01BFB7
:100EF000D1C75C3F739501BFA3FA5C3FB53E01BF0C
:100F0000532D5D3FE4E700BFE15F5D3FFF9000BF11
:100F10004D925D3F063A00BF97C45D3FF3C5FFBEEB
:100F2000BEF65D3FB217FFBEC3285E3F4A69FEBEF4
:100F3000A65A5E3FBBBAFDBE678C5E3F040CFDBE89
:100F400005BE5E3F275DFCBE81EF5E3F22AEFBBE6D
:100F5000DB205F3FF7FEFABE12525F3FA54FFABE9D
:100F600027835F3F2DA0F9BE19B45F3F8EF0F8BE16
:100F7000E9E45F3FC840F8BE9615603FDC90F7BEDD
:100F80002146603FCBE0F6BE8976603F9330F6BEE7
:100F9000CFA6603F3580F5BEF2D6603FB1CFF4BE3C
:100FA000F206613F071FF4BED036613F386EF3BED4
:100FB0008A66613F43BDF2BE2296613F290CF2BEB4
:100FC00098C5613FEA5AF1BEEAF4613F85A9F0BED7
:100FD0001A24623FFBF7EFBE2653623F4C46EFBE3A
:100FE0001082623F7994EEBED7B0623F80E2EDBEE0
:100FF0007BDF623F6330EDBEFC0D633F217EECBEC4
:101000005A3C633FBBCBEBBE956A633F3019EBBEE6
:10101000AC98633F8166EABEA1C6633FAEB3E9BE4A
:1010200073F4633FB700E9BE2122643F9C4DE8BEE4
:10103000AC4F643F5D9AE7BE147D643FFBE6E6BEBD
:1010400059AA643F7533E6BE7BD7643FCB7FE5BECC
:101050007904653FFECBE4BE5431653F0E18E4BE13
:101060000B5E653FFA63E3BEA08A653FC4AFE2BE94
:1010700010B7653F6AFBE1BE5EE3653FEE46E1BE49
:10108000880F663F4F92E0BE8E3B663F8DDDDFBE30
:101090007167663FA928DFBE3093663FA273DEBE4C
:1010A000CCBE663F79BEDDBE45EA663F2E09DDBE99
:1010B0009915673FC153DCBECA40673F319EDBBE16
:1010C000D86B673F80E8DABEC196673FAD32DABEC3
:1010D00087C1673FB97CD9BE2AEC673FA3C6D8BE9B
:1010E000A816683F6B10D8BE0341683F135AD7BE9D
:1010F000396B683F99A3D6BE4C95683FFDECD5BED1
:101100003CBF683F4136D5BE07E9683F647FD4BE27
:10111000AE12693F67C8D3BE323C693F4811D3BEA7
:101120009165693F095AD2BECC8E693FAAA2D1BE51
:10113000E4B7693F2AEBD0BED7E0693F8A33D0BE1F
:10114000A7096A3FCA7BCFBE52326A3FEAC3CEBE0E
:10115000D95A6A3FEA0BCEBE3C836A3FCA53CDBE22
:101160007BAB6A3F8B9BCCBE95D36A3F2CE3CBBE57
:101170008CFB6A3FAE2ACBBE5E236B3F1072CABEA9
:101180000C4B6B3F53B9C9BE95726B3F7700C9BE1C
:10119000FB996B3F7C47C8BE3BC16B3F628EC7BEAD
:1011A00058E86B3F29D5C6BE500F6C3FD21BC6BE58
:1011B00024366C3F5C62C5BED45C6C3FC8A8C4BE1C
:1011C0005E836C3F15EFC3BEC5A96C3F4435C3BEFB
:1011D00007D06C3F557BC2BE24F66C3F48C1C1BEF0
:1011E0001D1C6D3F1E07C1BEF2416D3FD54CC0BEF8
:1011F000A1676D3F6F92BFBE2D8D6D3FEBD7BEBE19
:1012000093B26D3F4A1DBEBED5D76D3F8B62BDBE4A
:10121000F2FC6D3FAFA7BCBEEB216E3FB6ECBBBE90
:10122000BE466E3FA031BBBE6D6B6E3F6E76BABEE2
:10123000F88F6E3F1EBBB9BE5DB46E3FB2FFB8BE45
:101240009ED86E3F2A44B8BEBAFC6E3F8488B7BEB3
:10125000B0206F3FC3CCB6BE83446F3FE610B6BE2E
:1012600030686F3FEC54B5BEB88B6F3FD698B4BEB4
:101270001BAF6F3FA5DCB3BE5AD26F3F5820B3BE41
:1012800073F56F3FEF63B2BE6718703F6BA7B1BED7
:10129000373B703FCBEAB0BEE15D703F102EB0BE71
:1012A0006680703F3A71AFBEC6A2703F49B4AEBE11
:1012B00002C5703F3CF7ADBE17E7703F153AADBEB3
:1012C0000809713FD47CACBED42A713F77BFABBE56
:1012D0007A4C713F0102ABBEFB6D713F6F44AABEF9
:1012E000578F713FC486A9BE8EB0713FFEC8A8BE9D
:1012F0009FD1713F1F0BA8BE8CF2713F254DA7BE39
:101300005213723F128FA6BEF433723FE5D0A5BED2
:101310007054723F9F12A5BEC774723F3F54A4BE63
:10132000F894723FC595A3BE04B5723F33D7A2BEF1
:10133000EBD4723F8718A2BEACF4723FC259A1BE73
:101340004714733FE59AA0BEBE33733FEEDB9FBEEA
:101350000E53733FDF1C9FBE3972733FB85D9EBE54
:101360003F91733F789E9DBE1FB0733F20DF9CBEB0
:10137000D9CE733FAF1F9CBE6EED733F27609BBEFF
:10138000DD0B743F86A09ABE272A743FCEE099BE3B
:101390004B48743FFE2099BE4966743F166198BE63
:1013A0002284743F17A197BED5A1743F00E196BE79
:1013B00062BF743FD22096BEC9DC743F8D6095BE7B
:1013C0000BFA743F31A094BE2717753FBFDF93BE61
:1013D0001D34753F351F93BEED50753F945E92BE30
:1013E000976D753FDD9D91BE1C8A753F10DD90BEE7
:1013F0007BA6753F2C1C90BEB3C2753F325B8FBE7F
:10140000C6DE753F229A8EBEB3FA753FFCD88DBEFC
:101410007A16763FC0178DBE1B32763F6E568CBE55
:10142000974D763F07958BBEEC68763F8AD38ABE90
:101430001B84763FF8118ABE249F763F505089BEA8
:1014400007BA763F938E88BEC4D4763FC1CC87BEA0
:101450005BEF763FDA0A87BECC09773FDF4886BE6E
:101460001724773FCE8685BE3C3E773FAAC484BE14
:101470003A58773F700284BE1372773F224083BE92
:10148000C58B773FC07D82BE51A5773F4ABB81BEE9
:10149000B7BE773FC0F880BEF7D7773F223680BE11
:1014A00010F1773FE1E67EBE040A783F56617DBECB
:1014B000D122783FA4DB7BBE773B783FCB557ABE09
:1014C000F853783FCCCF78BE526C783FA64977BEB0
:1014D0008684783F5AC375BE939C783FE83C74BEBF
:1014E0007BB4783F51B672BE3BCC783F942F71BE2F
:1014F000D6E3783FB2A86FBE4AFB783FAB216EBE01
:101500009812793F7F9A6CBEBF29793F2F136BBE2B
:10151000C040793FBA8B69BE9A57793F220468BEB2
:101520004E6E793F667C66BEDC84793F86F464BE8D
:10153000439B793F836C63BE83B1793F5CE461BEBA
:101540009DC7793F135C60BE91DD793FA8D35EBE35
:101550005EF3793F1A4B5DBE04097A3F6AC25BBEF7
:10156000841E7A3F97395ABEDD337A3FA4B058BE05
:1015700010497A3F8F2757BE1C5E7A3F589E55BE52
:1015800002737A3F011554BEC1877A3F898B52BEE0
:10159000599C7A3FF10151BECBB07A3F38784FBEAB
:1015A00016C57A3F60EE4DBE3AD97A3F67644CBEAD
:1015B00037ED7A3F4FDA4ABE0E017B3F185049BEE5
:1015C000BE147B3FC2C547BE48287B3F4D3B46BE4D
:1015D000AB3B7B3FB9B044BEE74E7B3F072643BEE3
:1015E000FC617B3F379B41BEEA747B3F491040BEA4
:1015F000B2877B3F3E853EBE539A7B3F15FA3CBE89
:10160000CDAC7B3FCF6E3BBE20BF7B3F6CE339BE92
:101610004DD17B3FEC5738BE53E37B3F50CC36BEB9
:1016200031F57B3F984035BEE9067C3FC4B433BEFC
:101630007A187C3FD42832BEE5297C3FC99C30BE55
:10164000283B7C3FA2102FBE444C7C3F61842DBEC2
:101650003A5D7C3F04F82BBE086E7C3F8D6B2ABE42
:10166000B07E7C3FFCDE28BE318F7C3F515227BECE
:101670008A9F7C3F8CC525BEBDAF7C3FAD3824BE64
:10168000C9BF7C3FB6AB22BEAECF7C3FA51E21BEFC
:101690006CDF7C3F7B911FBE03EF7C3F38041EBE96
:1016A00073FE7C3FDE761CBEBC0D7D3F6BE91ABE2F
:1016B000DD1C7D3FE05B19BED82B7D3F3DCE17BEC4
:1016C000AC3A7D3F834016BE59497D3FB2B214BE4D
:1016D000DE577D3FCA2413BE3D667D3FCC9611BECA
:1016E00074747D3FB70810BE85827D3F8B7A0EBE35
:1016F0006E907D3F4AEC0CBE309E7D3FF35D0BBE8D
:10170000CCAB7D3F86CF09BE40B97D3F054108BEC9
:101710008CC67D3F6EB206BEB2D37D3FC22305BEEE
:10172000B1E07D3F029503BE88ED7D3F2E0602BEEF
:1017300038FA7D3F457700BEC2067E3F92D0FDBDA0
:1017400024137E3F73B2FABD5E1F7E3F2C94F7BD1B
:10175000722B7E3FC075F4BD5E377E3F2E57F1BDC4
:1017600023437E3F7638EEBDC14E7E3F9A19EBBDD6
:10177000385A7E3F9AFAE7BD88657E3F76DBE4BD46
:10178000B0707E3F2EBCE1BDB17B7E3FC49CDEBD10
:101790008B867E3F377DDBBD3D917E3F895DD8BD29
:1017A000C99B7E3FB93DD5BD2DA67E3FC81DD2BD8C
:1017B00069B07E3FB7FDCEBD7FBA7E3F86DDCBBD33
:1017C0006DC47E3F36BDC8BD34CE7E3FC69CC5BD10
:1017D000D4D77E3F397CC2BD4CE17E3F8D5BBFBD1F
:1017E0009DEA7E3FC33ABCBDC7F37E3FDD19B9BD5C
:1017F000C9FC7E3FDAF8B5BDA4057F3FBBD7B2BDBB
:10180000580E7F3F80B6AFBDE4167F3F2B95ACBD31
:10181000491F7F3FBA73A9BD87277F3F3052A6BDBE
:101820009D2F7F3F8C30A3BD8D377F3FCF0EA0BD56
:10183000543F7F3FF9EC9CBDF4467F3F0ACB99BDF6
:101840006D4E7F3F05A996BDBF557F3FE78693BD8F
:10185000E95C7F3FB46490BDEC637F3F6A428DBD1D
:10186000C76A7F3F0A208ABD7B717F3F94FD86BD9A
:1018700008787F3F0ADB83BD6D7E7F3F6CB880BDFB
:10188000AB847F3F742B7BBDC28A7F3FE9E574BD8B
:10189000B1907F3F38A06EBD78967F3F625A68BD99
:1018A000189C7F3F681462BD91A17F3F4CCE5BBD09
:1018B000E3A67F3F0E8855BD0DAC7F3FAF414FBDC6
:1018C0000FB17F3F2FFB48BDEAB57F3F91B442BDCA
:1018D0009EBA7F3FD56D3CBD2ABF7F3FFC2636BDFB
:1018E0008FC37F3F07E02FBDCCC77F3FF69829BD50
:1018F000E2CB7F3FCC5123BDD1CF7F3F880A1DBDB6
:1019000098D37F3F2CC316BD37D77F3FB87B10BD20
:10191000AFDA7F3F2F340ABD00DE7F3F90EC03BD7E
:1019200029E17F3FB949FBBC2BE47F3F2DBAEEBCD8
:1019300005E77F3F7B2AE2BCB8E97F3FA69AD5BC8A
:1019400043EC7F3FB00AC9BCA7EE7F3F9B7ABCBC8B
:10195000E3F07F3F69EAAFBCF8F27F3F1C5AA3BCBB
:10196000E6F47F3FB6C996BCACF67F3F38398ABCF7
:101970004AF87F3F4B517BBCC1F97F3F003062BCCE
:1019800011FB7F3F900E49BC39FC7F3F02ED2FBC1D
:1019900039FD7F3F59CB16BC13FE7F3F3053FBBB55
:1019A000C4FE7F3F890FC9BB4EFF7F3FC1CB96BBB3
:1019B000B1FF7F3FC70F49BBECFF7F3FD40FC9BAD0
:1019C00008004000180048001000400028005000A7
:1019D00020004000380058003000480058006800DF
:1019E000480060006800700008004000100080009F
:1019F0001800C00020004000280048003000880087
:101A00003800C80040008000480050005800D00056
:101A1000500090006000C0006800D0007000980086
:101A20007800D8008800C0009000A000A800D00076
:101A30009800E000B000D000B800E800D800F00046
:101A4000C800E000E800F00008004000100080003E
:101A50001800C00020000001280040013000800173
:101A60003800C001500088005800C800600008011C
:101A700068004801700088017800C8019800D00013
:101A8000A0001001A8005001B0009001B800D001E2
:101A9000E0001801E8005801F0009801F800D801B2
:101AA000280160013001A0013801E0017001A801A6
:101AB0007801E801B801F0010800000210004000C0
:101AC0001800400220008000280080023000C00082
:101AD0003800C002400000014800000350004001EF
:101AE0005800400360008001680080037000C0015E
:101AF0007800C00380000002880008029000000304
:101B000098004802A0000802A8008802B000C8009F
:101B1000B800C802C0000801C8000803D00048018E
:101B2000D8004803E0008801E8008803F000C801FD
:101B3000F800C8030801100210014001180150020A
:101B40002001000328019002300148013801D00231
:101B5000480110035801500360019001680190038F
:101B60007001D0017801D003800140028801180281
:101B70009001400398015802A0014802A801980270
:101B8000B0014803B801D802C0015002C8011803CF
:101B9000D0015003D8015803E0015802E80198032E
:101BA000F0015803F801D803080220021002400295
:101BB000180260022802A002300260023802E0022D
:101BC0004002000348022003500240035802600311
:101BD000600220036802A003700260037802E00341
:101BE0008802A002900280039802A003B00288033A
:101BF000B802E802C0028003C8022803D0029003A2
